:020000040000fa
:080000000002040000000000f2
:020000040000fa
:04000800ca05000025
:020000040000fa
:04000c00ca05000021
:020000040000fa
:04001000ca0500001d
:020000040000fa
:04001400ca05000019
:020000040000fa
:04001800ca05000015
:020000040000fa
:04001c00ca05000011
:020000040000fa
:04002000ca0500000d
:020000040000fa
:04002400ca05000009
:020000040000fa
:04002800ca05000005
:020000040000fa
:04002c00ca05000001
:020000040000fa
:04003000ca050000fd
:020000040000fa
:04003400ca050000f9
:020000040000fa
:04003800ca050000f5
:020000040000fa
:04003c00ca050000f1
:020000040000fa
:04004000ca050000ed
:020000040000fa
:04004400ca050000e9
:020000040000fa
:04004800ca050000e5
:020000040000fa
:04004c00ca050000e1
:020000040000fa
:04005000ca050000dd
:020000040000fa
:04005400ca050000d9
:020000040000fa
:04005800ca050000d5
:020000040000fa
:04005c00ca050000d1
:020000040000fa
:04006000ca050000cd
:020000040000fa
:04006400ca050000c9
:020000040000fa
:04006800ca050000c5
:020000040000fa
:04006c00ca050000c1
:020000040000fa
:04007000ca050000bd
:020000040000fa
:04007400ca050000b9
:020000040000fa
:040078006605000019
:020000040000fa
:04007c00ca050000b1
:020000040000fa
:04008000ca050000ad
:020000040000fa
:04008400ca050000a9
:020000040000fa
:04008800ca050000a5
:020000040000fa
:04008c00ca050000a1
:020000040000fa
:04009000ca0500009d
:020000040000fa
:04009400ca05000099
:020000040000fa
:04009800ca05000095
:020000040000fa
:04009c00ca05000091
:020000040000fa
:0400a000ca0500008d
:020000040000fa
:0400a400ca05000089
:020000040000fa
:0400a800ca05000085
:020000040000fa
:0400ac00ca05000081
:020000040000fa
:0400b000ca0500007d
:020000040000fa
:0400b400ca05000079
:020000040000fa
:0400b800ca05000075
:020000040000fa
:0400bc00ca05000071
:020000040000fa
:0400c000ca0500006d
:020000040000fa
:0400c400ca05000069
:020000040000fa
:0400c800ca05000065
:020000040000fa
:0400cc00ca05000061
:020000040000fa
:0400d000ca0500005d
:020000040000fa
:0400d400ca05000059
:020000040000fa
:0400d800ca05000055
:020000040000fa
:0400dc00ca05000051
:020000040000fa
:0400e000ca0500004d
:020000040000fa
:0400e400ca05000049
:020000040000fa
:0400e800ca05000045
:020000040000fa
:0400ec00ca05000041
:020000040000fa
:0400f00014030000f5
:020000040000fa
:0400f400ca05000039
:020000040000fa
:0400f800ca05000035
:020000040000fa
:0400fc00ca05000031
:020000040000fa
:04010000ca0500002c
:020000040000fa
:04010400ca05000028
:020000040000fa
:04010800ca05000024
:020000040000fa
:04010c00ca05000020
:020000040000fa
:04011000ca0500001c
:020000040000fa
:04011400ca05000018
:020000040000fa
:04011800ca05000014
:020000040000fa
:04011c00ca05000010
:020000040000fa
:04012000ca0500000c
:020000040000fa
:04012400ca05000008
:020000040000fa
:04012800ca05000004
:020000040000fa
:04012c00ca05000000
:020000040000fa
:04013000ca050000fc
:020000040000fa
:04013400ca050000f8
:020000040000fa
:04013800ca050000f4
:020000040000fa
:04013c00ca050000f0
:020000040000fa
:04014000ca050000ec
:020000040000fa
:04014400ca050000e8
:020000040000fa
:04014800ca050000e4
:020000040000fa
:04014c00ca050000e0
:020000040000fa
:04015000ca050000dc
:020000040000fa
:04015400ca050000d8
:020000040000fa
:04015800ca050000d4
:020000040000fa
:04015c00ca050000d0
:020000040000fa
:04016000ca050000cc
:020000040000fa
:04016400ca050000c8
:020000040000fa
:04016800ca050000c4
:020000040000fa
:04016c00ca050000c0
:020000040000fa
:04017000ca050000bc
:020000040000fa
:04017400ca050000b8
:020000040000fa
:04017800ca050000b4
:020000040000fa
:04017c00ca050000b0
:020000040000fa
:04018000ca050000ac
:020000040000fa
:04018400ca050000a8
:020000040000fa
:04018800ca050000a4
:020000040000fa
:04018c00ca050000a0
:020000040000fa
:04019000ca0500009c
:020000040000fa
:04019400ca05000098
:020000040000fa
:04019800ca05000094
:020000040000fa
:04019c00ca05000090
:020000040000fa
:0401a000ca0500008c
:020000040000fa
:0401a400ca05000088
:020000040000fa
:0401a800ca05000084
:020000040000fa
:0401ac00ca05000080
:020000040000fa
:0401b000ca0500007c
:020000040000fa
:0401b400ca05000078
:020000040000fa
:0401b800ca05000074
:020000040000fa
:0401bc00ca05000070
:020000040000fa
:0401c000ca0500006c
:020000040000fa
:0401c400ca05000068
:020000040000fa
:0401c800ca05000064
:020000040000fa
:0401cc00ca05000060
:020000040000fa
:0401d000ca0500005c
:020000040000fa
:0401d400ca05000058
:020000040000fa
:0401d800ca05000054
:020000040000fa
:0401dc00ca05000050
:020000040000fa
:0401e000ca0500004c
:020000040000fa
:0401e400ca05000048
:020000040000fa
:0401e800ca05000044
:020000040000fa
:0401ec00ca05000040
:020000040000fa
:0401f000ca0500003c
:020000040000fa
:0401f400ca05000038
:020000040000fa
:0401f800ca05000034
:020000040000fa
:0401fc00ca05000030
:020000040000fa
:04020800ca05000023
:020000040000fa
:04020c00ca0500001f
:020000040000fa
:04021000ca0500001b
:020000040000fa
:04021400ca05000017
:020000040000fa
:04021800ca05000013
:020000040000fa
:04021c00ca0500000f
:020000040000fa
:04022000ca0500000b
:020000040000fa
:04022400ca05000007
:020000040000fa
:04022800ca05000003
:020000040000fa
:04022c00ca050000ff
:020000040000fa
:04023000ca050000fb
:020000040000fa
:04023400ca050000f7
:020000040000fa
:04023800ca050000f3
:020000040000fa
:04023c00ca050000ef
:020000040000fa
:04024000ca050000eb
:020000040000fa
:04024400ca050000e7
:020000040000fa
:04024800ca050000e3
:020000040000fa
:04024c00ca050000df
:020000040000fa
:04025000ca050000db
:020000040000fa
:04025400ca050000d7
:020000040000fa
:04025800ca050000d3
:020000040000fa
:04025c00ca050000cf
:020000040000fa
:04026000ca050000cb
:020000040000fa
:04026400ca050000c7
:020000040000fa
:04026800ca050000c3
:020000040000fa
:04026c00ca050000bf
:020000040000fa
:04027000ca050000bb
:020000040000fa
:04027400ca050000b7
:020000040000fa
:04027800ca050000b3
:020000040000fa
:04027c00ca050000af
:020000040000fa
:04028000ca050000ab
:020000040000fa
:04028400ca050000a7
:020000040000fa
:04028800ca050000a3
:020000040000fa
:04028c00ca0500009f
:020000040000fa
:04029000ca0500009b
:020000040000fa
:04029400ca05000097
:020000040000fa
:04029800ca05000093
:020000040000fa
:04029c00ca0500008f
:020000040000fa
:0402a000ca0500008b
:020000040000fa
:0402a400ca05000087
:020000040000fa
:0402a800ca05000083
:020000040000fa
:0402ac00ca0500007f
:020000040000fa
:0402b000ca0500007b
:020000040000fa
:0402b400ca05000077
:020000040000fa
:0402b800ca05000073
:020000040000fa
:0402bc00ca0500006f
:020000040000fa
:0402c000ca0500006b
:020000040000fa
:0402c400ca05000067
:020000040000fa
:0402c800ca05000063
:020000040000fa
:0402cc00ca0500005f
:020000040000fa
:0402d000ca0500005b
:020000040000fa
:0402d400ca05000057
:020000040000fa
:0402d800ca05000053
:020000040000fa
:0402dc00ca0500004f
:020000040000fa
:0402e000ca0500004b
:020000040000fa
:0402e400ca05000047
:020000040000fa
:0402e800ca05000043
:020000040000fa
:0402ec00ca0500003f
:020000040000fa
:0402f000ca0500003b
:020000040000fa
:0402f400ca05000037
:020000040000fa
:0402f800ca05000033
:020000040000fa
:0402fc00ca0500002f
:020000040000fa
:04030000ca0500002a
:020000040000fa
:04030400ca05000026
:020000040000fa
:04030800ca05000022
:020000040000fa
:04030c00ca0500001e
:020000040000fa
:04031000ca0500001a
:020000040000fa
:04031400ca05000016
:020000040000fa
:04031800ca05000012
:020000040000fa
:04031c00ca0500000e
:020000040000fa
:04032000ca0500000a
:020000040000fa
:04032400ca05000006
:020000040000fa
:04032800ca05000002
:020000040000fa
:04032c00ca050000fe
:020000040000fa
:04033000ca050000fa
:020000040000fa
:04033400ca050000f6
:020000040000fa
:04033800ca050000f2
:020000040000fa
:04033c00ca050000ee
:020000040000fa
:04034000ca050000ea
:020000040000fa
:04034400ca050000e6
:020000040000fa
:04034800ca050000e2
:020000040000fa
:04034c00ca050000de
:020000040000fa
:04035000ca050000da
:020000040000fa
:04035400ca050000d6
:020000040000fa
:04035800ca050000d2
:020000040000fa
:04035c00ca050000ce
:020000040000fa
:04036000ca050000ca
:020000040000fa
:04036400ca050000c6
:020000040000fa
:04036800ca050000c2
:020000040000fa
:04036c00ca050000be
:020000040000fa
:04037000ca050000ba
:020000040000fa
:04037400ca050000b6
:020000040000fa
:04037800ca050000b2
:020000040000fa
:04037c00ca050000ae
:020000040000fa
:04038000ca050000aa
:020000040000fa
:04038400ca050000a6
:020000040000fa
:04038800ca050000a2
:020000040000fa
:04038c00ca0500009e
:020000040000fa
:04039000ca0500009a
:020000040000fa
:04039400ca05000096
:020000040000fa
:04039800ca05000092
:020000040000fa
:04039c00ca0500008e
:020000040000fa
:0403a000ca0500008a
:020000040000fa
:0403a400ca05000086
:020000040000fa
:0403a800ca05000082
:020000040000fa
:0403ac00ca0500007e
:020000040000fa
:0403b000ca0500007a
:020000040000fa
:0403b400ca05000076
:020000040000fa
:0403b800ca05000072
:020000040000fa
:0403bc00ca0500006e
:020000040000fa
:0403c000ca0500006a
:020000040000fa
:0403c400ca05000066
:020000040000fa
:0403c800ca05000062
:020000040000fa
:0403cc00ca0500005e
:020000040000fa
:0403d000ca0500005a
:020000040000fa
:0403d400ca05000056
:020000040000fa
:0403d800ca05000052
:020000040000fa
:0403dc00ca0500004e
:020000040000fa
:0403e000ca0500004a
:020000040000fa
:0403e400ca05000046
:020000040000fa
:0403e800ca05000042
:020000040000fa
:0403ec00ca0500003e
:020000040000fa
:0403f000ca0500003a
:020000040000fa
:0403f400ca05000036
:020000040000fa
:0403f800ca05000032
:020000040000fa
:0403fc00ca0500002e
:020000040000fa
:100400002fa820000e7f22000e01880000000000af
:10041000000020000000e000020032000001200087
:100420002002880014000700300207000000e000ee
:1004300003003a00a0f5220001002000020037006e
:100440000000200001002000810f70000100320038
:1004500014000700000020000000e000020032004d
:100460000000020000000000b827020000000000a9
:100470000040da000000fe004440a900e0442000f3
:100480000000e000030032000020200090018800fe
:100490004440a800000006008a1f78008b1f7800e7
:1004a00000000600a1028800800478000000eb0034
:1004b0001f003700e284440054a0b4009905ba003c
:1004c000e284440054a0b4009906ba00e2844400d7
:1004d00054a0b4000006eb00476fde00fd07b20039
:1004e000ae018800636ce10003003a00eaff0700f8
:1004f0000000eb000e003700606ce10008003a00dd
:10050000004deb000a05e800020039003420ec0041
:100510000af0a0008b05e900f9ff3e000400370057
:100520006168e100010032000086eb000b0007006b
:1005300019c7ba001905ba000e04e00003003a001a
:100540000a00e000dbff3a0000000600fe07b200f0
:10055000ae0288008a047800f5ff37000cd0a300b3
:10056000e20f4d001c00390089027800354dba00b9
:100570000a05e800020039003420ec000af0a0006f
:100580008b05e9000f003200254dba000a05e8008e
:10059000020039003420ec000af0a0008b05e900cd
:1005a000080032000c00e0000600320015cdba0051
:1005b0000a05e800020039003420ec000af0a0002f
:1005c0008b05e9008984e80054a0b4000b00e0002a
:1005d000e2ff3a00000006009902ba00055d7800cb
:1005e0008b05e900f7ff3200c82ade00055d7800c0
:1005f0008b05e900f3ff32000c00e000f1ff320050
:1006000019ddba00eeff3700000000000000000016
:1006100000000000000000000000000000000000da
:1006200000000000000000003600f800809fbe00bf
:10063000829fbe00849fbe00869fbe000000fa001d
:100640008a40a900a11780000008200000806000f7
:100650000000e00008003200f4e2a9000828ef00e2
:1006600070408000200090008000eb0001087800be
:100670000e28ef000e013700404080008000eb00a4
:10068000b200200003002000820f5000838f58002a
:10069000fd003e00006001000b0037003a0037000b
:1006a000760037009d003700f4003700c90037009e
:1006b000da003700f1003700dc003700f2003700c5
:1006c00035003700510037000080200020009000e6
:1006d000620060000000e000f4003a0000802000aa
:1006e00010009000704088000080200010009000f2
:1006f000104078000ae8b700008020001000900049
:1007000010009000604088000080200010009000e1
:10071000e6004000008020001100980000802000ca
:1007200090009000a0a62000808f500003003a00a7
:100730000080200041a620001100980000802000c9
:1007400020019000e1ff2f0081006100210098004e
:1007500000802000900090000080200010007800b1
:10076000808f500004003a0000802000a00090001c
:100770000110a00021009800f002a8002000200035
:1007800040408800ca003700f022a8002000200066
:1007900040408800c6003700a117800000002800f4
:1007a000008060000000e0000800320000802000af
:1007b000604090008040e800008020006140980088
:1007c0004000200049140700b90037008040800035
:1007d0008000d100f00f20000080600060178800ca
:1007e0008040800061006000004078000004e0006c
:1007f00003003200b000200040408800ac00370009
:100800003000200040408800a9003700a117800078
:1008100000002800008060000000e00008003200b6
:1008200000802000604090008040e80000802000b0
:1008300061409800400020002c1407009c00370005
:10084000f022a800804080004800de00e600600042
:10085000000f200001007000804088008040800070
:100860000000a0008040880010c0b30012e8b7006c
:1008700020002000404088008d00370012c8bf00d3
:10088000e14f50000a003200604080001000780004
:10089000804088006040800020009000a0408800d8
:1008a000604080002040900016e8b700010037004b
:1008b0001268ef0081408000f00f2000808f500010
:1008c00009003600804080004800de00e60060003d
:1008d000000f20000100700060178800a0002000b9
:1008e0004040880072003700804080006017880018
:1008f0008040800061006000004078000004e0005b
:10090000030032005000200040408800680037009b
:10091000300020004040880065003700a1178000ab
:1009200000002800008060000000e00009003200a4
:1009300000802000604090008040e800008020009f
:1009400061409800f5e2a90050002000e71307007d
:100950005700370016c8bf008080fb008100e90007
:10096000cf08de00814078000040e90016e8b700bb
:100970000104e0001000320060408000660040008a
:10098000604088000ac8bf000040e9000ae8b700dc
:100990000ac8bf000004e00003003a002000200065
:1009a000d213070042003700f022a80020002000e8
:1009b000404088003e003700a04080009040780012
:1009c0008180fb00611788000000e800a0408800db
:1009d00037003700a1178000000028000080600069
:1009e0000000e0000900320000802000604090001c
:1009f0008040e80000802000614098004000200016
:100a0000ba130700f5e2a90029003700f062a80038
:100a10008000200040408800250037008000200032
:100a200040408800f062a80021003700a04080000c
:100a30005117800081407800014878000000e800ec
:100a4000a040880016c8bf000040e90016e8b700c3
:100a500016c8bf000004e00004003200f0a2a900a4
:100a6000600020004040880002003700f0a2a8008b
:100a70008d130700f082a8000d0037002000200031
:100a80009a1307000a0037000080200060409000a1
:100a90008040e80000802000614098006000200055
:100aa0009213070000000000010037000000000062
:100ab0000080fa004f03be004f02be004f01be008f
:100ac0004f00be003600f900004006003600f80076
:100ad000809fbe00829fbe00849fbe00869fbe0096
:100ae0000200fa009680a90010c3b3009c0b070017
:100af000004f78001e80fb00801f7800b090290016
:100b0000801f78000b020700e4875700607d2900f2
:100b1000790007001e80fb006800600000f0a7005d
:100b20000000ea000000ea004f00de00804078008c
:100b300020822000014878001e417800e1406100d9
:100b400030822000014878009e80fb0000042000d5
:100b50000080600000f0a7000000ea000000ea004a
:100b60004f00de008040780040822000014878007d
:100b70008680a9009680a8000080fa004f03be007e
:100b80004f02be004f01be004f00be003600f9000c
:100b9000004006000040da000000fe000a00fa00f3
:100ba00011002000b1bf9f00c0bf9f006a805700a6
:100bb000ee0407004fb897000080fa00000006001e
:100bc0000a00fa0051002000b1bf9f00c0bf9f0083
:100bd0006a805700e70407005fb897000080fa00ba
:100be00000000600889fbe0080047800005480004a
:100bf0000000e00004003a000e0007000084eb0053
:100c00000000e00008003500085480000900e00002
:100c10000500320009004400060007000000e00063
:100c200001003d000084eb00080078004f04be0086
:100c300000000600800078000100e00003003a0098
:100c40000000200000548800000005000080eb0038
:100c500002002000828f500002003e0001548800f4
:100c60000000eb00000006000800fa0010079800e2
:100c7000210798003207980000000000112880002a
:100c800000102000008060000000e000fbff320048
:100c9000be009000010f78000e0037000000000039
:100ca0001128800000102000008060000000e0009b
:100cb000fbff32002e009000104078000000fb0087
:100cc000202888002e0090000000e80020079800ef
:100cd0001e0fe9001e0078000000e000efff3a0060
:100ce0003e0090000080fa000000060000000500b1
:100cf000619620000b003700619620006a00070013
:100d0000800078000080eb000100e0000400350066
:100d100061962000a0002000020007004f80de0046
:100d200000000600889fbe008a1f78000004be00f5
:100d3000c900900069009000808f500005003900c4
:100d400009007800b70007008080eb000000e00099
:100d500016003500084578004900900008587800d2
:100d6000c00498001900780000b8a30004003a00fd
:100d700000a8a30007003200ea4f540005003a0023
:100d8000090078000d0007008080eb000000e00003
:100d900006003a0000c02000190060000200320086
:100da00049009000e00498008a80fb000100780070
:100db0004f0578004f04be0000000600889fbe006b
:100dc0008a1f7800000478000800e0000d003a0057
:100dd000489b2000700544008004eb005800780018
:100de0000000e00004003200f4ff07000000e00013
:100df00001003d008084eb008a0f5400f7ff3a00a9
:100e00002500370000002200180060008004eb007d
:100e100021003200a80490000f00370009015100a2
:100e2000384090000000fb00890078008eff07002a
:100e30000000e00007003c002800900040049800fb
:100e400060049800500c98001890a0008084eb007b
:100e5000110037008084440048019000828f5400c4
:100e6000eeff3900280090004004980098007800b8
:100e700002c020000281600001003a0038009000aa
:100e800001e8a3000200320060049800010037006e
:100e9000500c98008004eb00090078004f057800a2
:100ea0004f04be0000000600889fbe008a9fbe005f
:100eb00080047800010478002c003700c8009000fe
:100ec00068009000808f500004003900080078000e
:100ed000540007000000e00037003500004020000b
:100ee0001800600009003200a1002000090078000d
:100ef00042000700800578000b00e000030032008c
:100f0000618514000a854500040037000900780057
:100f100034000700000578008005eb0048009000d1
:100f2000e8009000808050008a8f5000020031005d
:100f3000010578008005eb000a017800890078003f
:100f400021000700480090000a004000400498007b
:100f50000b00e000040032000800780097ff070053
:100f60000000e00014003a008a8444001904e00004
:100f7000d2ff3a0000802000180060000600320016
:100f8000080078008dff0700800078000080eb00eb
:100f90000100e00009003a0001c0200098806000d4
:100fa0000000eb000500320048009000600498004b
:100fb0000000eb00010037000080eb004f05be0091
:100fc0004f04be00000006008001780002003700d8
:100fd000b15978000201e9000200e000fcff3a008c
:100fe0000000060080007800010178003104e00074
:100ff000fdff3a0000005100000006000001eb0078
:1010000000027800b041780081cf510001003a0021
:10101000040178000304e000f9ff3a0002007800c0
:1010200000000600889fbe008a1f78000004780038
:10103000c8009000680190000000eb00828f500013
:101040003c003900180078002200290002016000ed
:10105000e20f510007003200012024000000e000f0
:1010600001003d0001202000008c70000080eb009a
:10107000300037000200260002006000820f50009e
:1010800009003a0038009000808f500006003900b7
:101090000800780049ff0700800078000080eb001e
:1010a0000100e00023003a001805780000c020008d
:1010b0000000650018003a00a804900060022000bb
:1010c00008004000808f540013003a0000202000e8
:1010d0006f010700200498000000e00005003a00be
:1010e00029049800490498008904e800390498000c
:1010f000080037000a60a0000a0c7800400498003d
:10110000012020008080400031049800400c9800ad
:10111000500c98000c000700280090005004980024
:10112000380090006004980000002600180c700041
:101130000000eb004f0578004f04be0000000600e1
:101140006094200061003700881f7800c8a7200045
:101150001804e00003003a00f9ff070020c0b300c4
:10116000004c78004f04780000000600889fbe0005
:10117000000478000800780010ff07008004780061
:1011800000042000180060000200320028009000d7
:10119000860007000000eb00200498003840900013
:1011a0000004e000050035000000fb007bfe0700a6
:1011b0000000e000010032008084eb001810900075
:1011c0000000e000080032007dfe07000000e000a3
:1011d000010032008084eb001810900073000700bb
:1011e0000000eb00101498000008200018006000b8
:1011f000150032000001eb006000b800639b200086
:101200000202d00063027a00880f520005003a0003
:101210000000400081804800008041000008eb0091
:101220000600370061004000e08048000201e8004d
:10123000e80f5000e08f5800f0ff3a0008007800f7
:101240005a0007000e003700000c780000c0eb00c9
:1012500030449800600220000800400020049800fc
:101260004004980050049800400c980060049800d6
:10127000500c98007004980076004400000c980010
:10128000090078004f04be0000000600881f7800a7
:101290000004eb006140b800e2ff2f00f3ff2f00d5
:1012a00058030700429c2000620078000000e00024
:1012b00001003200adff07000804e800e80f540009
:1012c000f4ff3a004f0478000000060001002000ff
:1012d0000100e00008003200010080000100e00091
:1012e000050032008100e900010088008100d00083
:1012f0000200800000b1780000000600889fbe0058
:1013000000047800010078008204780088017800e9
:10131000090178001100200056000700890f5000d5
:10132000010032000004eb00080078004f04be000a
:10133000000006000000fa00e88157004fb997004e
:1013400061962000e0972000360407000080fa0034
:1013500000000600889fbe000004780001007800ad
:1013600082047800880178000901780011002000cb
:1013700040000700890f5000010032000004eb001c
:10138000080078004f04be00000006000000fa00cc
:10139000e88157004fb9970061962000a09a20007d
:1013a000200407000080fa00000006000000e000b2
:1013b0002f003200c0017800e38f51002c0036006e
:1013c0000308a3002a003a00c15380000100e00096
:1013d00002003200810f500004003100110098001b
:1013e000c053880016003700820078001101900079
:1013f0000200e00002003200800f5100faff3900c5
:101400001102780084824000850f500018003900d6
:10141000808f520003003a008308420001007800e8
:10142000070037000200e0000300320083014000a3
:10143000830f51000e0039001200980090009800b0
:10144000900090000100e00009003200100140000f
:10145000828f500006003a0062a720000009eb00ce
:1014600010017800110841009100900011009800cf
:1014700000000600889fbe008a9fbe008c9fbe00b1
:101480008e1f7800000678000104780002007800c2
:10149000830478000881b900020778000200e000a8
:1014a000420032000800e00041003200820578006e
:1014b000c900900069009000808f5000040039003e
:1014c00009007800d7fe07000000e0002900350081
:1014d00000402000190060000a0032000b01780073
:1014e000a10020000c00780093000700800678001f
:1014f0000d00e00006003200610516000a85460076
:10150000040037000b0578008006eb00010037006f
:101510000b05780049009000e900900080805000a1
:101520008a8f500002003100010578008006eb0030
:101530000a0178008c007800a3fe07008a85550018
:10154000490090000a004000c00498000d00e0002f
:10155000040032000900780018fe07000000e000d7
:1015600004003a000b00e000020032000a064600c8
:10157000cfff370000802000190060000200320019
:10158000090078000dfe070000c02000190060006f
:101590000200320049009000e00498008b055700db
:1015a000110009008885d800010037000000eb0019
:1015b0004f0778004f06be004f05be004f04be0027
:1015c00000000600889fbe0000047800b153800030
:1015d0000100e00002003200010078000d00370039
:1015e000c153800080a7200004003700910f5400f1
:1015f000250036000180e800910090000100e00025
:10160000faff3a0010003700920f54001e00360017
:101610000280e800100178000200e000faff3a00c2
:1016200011017800c153800080a72000040037001a
:10163000910f5400140036000180e80091009000e2
:10164000828f5000faff3a00f9538000888f5400cf
:101650000100310088047800090078004c00070080
:101660000000e00004003a00888f540005003200ba
:101670008904d100f5ff3700091878004bff0700f7
:10168000d2ff37000000eb004f04be000000060050
:10169000881f7800630440000800a1008000eb0070
:1016a000800f540021003600e30f540001003e007b
:1016b0004800200008007800c2ff07008000eb000f
:1016c0000000e000190032009000780091017800dd
:1016d00064815100880f5100030031001101900016
:1016e00002087800070037000881400002087800ef
:1016f0009101900013019800100178001109140065
:1017000088087800100178000000eb000200e0007b
:1017100004003200920190000300e000010032005a
:101720000280e800b05388008180e8000100780062
:101730004f0478000000060003003700b0cf10000f
:10174000050032000201e900800178000200e0009b
:10175000faff3a00000005000300780000000600d0
:10176000020037000304e0000600320000017800a8
:1017700002007800b041780081cf5100f9ff3a00b3
:10178000010037000001eb000200780000000600b5
:10179000800078000000eb000100e000050034004c
:1017a000010078000ffd0700e10f400001003a0042
:1017b0000000eb0000000600fc874700889fbe0089
:1017c0008a9fbe008c9fbe008e1f780000067800a6
:1017d00080c5b30080cf50000a003200774040003f
:1017e00080cf50000a0032006940400080cf500096
:1017f0000b00320090a3200080bf9f00ae002000ad
:101800000a00370082a2200082bf9f000600370036
:1018100093a3200083bf9f008e00200003003700a9
:1018200094a3200084bf9f000e0120003c02be0054
:101830002c03be000605be000404be0040c6b30073
:1018400080cf5000030032006540400080cf500040
:101850000b003a00e00f5200e08f5a00e00f5b00ef
:10186000e08f5b0006003d006000b8006011b8002a
:1018700004045000858458000605590087855900e6
:10188000e80f57000400320040002000f00f57001e
:1018900038003a000100370030002000e00f54000b
:1018a000e08f5c00e00f5d00e08f5d0004003a0017
:1018b000dc0890008d0120000100e00006003200ed
:1018c0008e00e900888060008fba9700e5c078003c
:1018d000f1ef9f007d012000800078008100e90089
:1018e000050033008b05d1000a85d3008984d3001d
:1018f0000884d300f9ff3700089ebe000a96be0098
:10190000120037008d06e9008e00e9008480600037
:101910000fb99700e2c1780082fd2f000f0141004e
:1019200003f17e00800078008100e90005003300ab
:101930008783d1000683d3008582d3000482d3003d
:10194000f9ff3700049ebe000696be003c02be00b2
:101950002c03be00e00f5200e08f5a00e00f5b0046
:10196000e08f5b008b0034000d00e000e5ff3c00e1
:10197000880037002c60900081c6b300814f500072
:101980000b00320006003c000004e00008003200ba
:10199000e6c05000814f50004e003a00040037006e
:1019a000c1c6b300814f50004a003a002100370001
:1019b0000800e00004003a005c0890008d0120005f
:1019c0000000e00006003200110009000e84d8007b
:1019d0000fb99700e2c07800f1ef9f007d01200071
:1019e000110009000e84d8000a0037001100090018
:1019f0000e04d8008d06e9000e81b90002045400df
:101a00008fb8970061417c0081fd2f008f804000de
:101a100082f07e00000478000800e000020032003e
:101a20000d00e000f1ff3c00cfc4de00614db900c5
:101a300025003700e00f5400e08f5c0004003a00fe
:101a40005c0890008d0120000000e00007003200db
:101a50006171b9000800be00670107008fb99700e7
:101a6000e3417800f3ef9f007d0120006171b90030
:101a70000800be00500107000b0037006171b9007b
:101a80000800be003d0107008d06e90000f1b90025
:101a9000020454000fba9700e4427c0084fd2f003a
:101aa0000f02420005f27e000004be00e00f50006d
:101ab000e08f5800020032000d00e000efff3c0014
:101ac0004fcdde008a057800089ebe000a96be0053
:101ad00030003700e00f5400e08f5c00e00f5d0045
:101ae000e08f5d0004003a005c0890008d0120004a
:101af0000000e000090032006172b900612bb900fa
:101b00000800be000a01be00e40107000fba9700fa
:101b100064427800f4ef9f007d0120006172b900fb
:101b2000612bb9000800be000a01be00d401070005
:101b30000d0037006172b900612bb9000800be00ca
:101b40000a01be00d90107008d06e90000f2b900c4
:101b5000040454008fba970065427c0085fd2f0075
:101b60008f82420084f27e00009ebe000296be007c
:101b70003c04be002c05be00e00f5400e08f5c006a
:101b8000e00f5d00e08f5d00020034000d00e0001a
:101b9000e8ff3c00e80f570010003a000c109000de
:101ba0000038a3000d003200f78f560006003e00fb
:101bb00085fd2f008f824200e5c07e0000c3b30088
:101bc00080cf5000050032008d06e90002c3b3004b
:101bd00081fd2f008f80400082f07e00788116000a
:101be000120e98006c00900083fd2f008f81410041
:101bf0008d804100f4fc07001c089000dc08900078
:101c0000810f500006003d0000805000000e98003b
:101c10000c1090000040a100001698000f00370043
:101c20000100e0000d003d008c109000f480600089
:101c3000f08f500009003a007c099000fc009000f1
:101c4000810051000c0990008280500000805000fb
:101c50004240a90001003400000e98004f077800b0
:101c60004f06be004f05be004f04be00cf01b100bd
:101c7000000006000400fa00889fbe008a9fbe0094
:101c80008c1f78000004780001067800f80d9000a1
:101c900078009000808555000808900080855500e8
:101ca0001808900080855500280890008085550010
:101cb00038089000808555004808900080855500c0
:101cc0000002220090bf9f0000032300a0bf9f00de
:101cd000081090000028a30015003a000b00e00057
:101ce000130034000b0578008a047800e20f5500d9
:101cf0000100360029002000c80190000901780089
:101d0000ee80570058009000030001005004980036
:101d10000000e0008c0032006808900009004000dc
:101d2000600c9800090555004240a900eeff3c00f8
:101d3000780190000200e0000c003400c80190001f
:101d40008c007800580090000300010050049800b7
:101d50008080eb000000e0007c003200e80890008a
:101d60007800900000804000600c9800880c900083
:101d70000900e0001100340009057800e28f5400ea
:101d8000010036002a002000c80190000a017800f6
:101d9000ec805700580090000300010050049800a8
:101da0000000e00068003200680890000a0040006f
:101db000600c98008a845400edff370018099000e9
:101dc0000200e0000c003400c8019000e800900020
:101dd0005800900003000100500498008080eb0040
:101de0000000e00059003200e80890001808900058
:101df00000804000600c9800a80c90000900e000f2
:101e00001100340009057800e28f5400010036000b
:101e10002a002000c80190000a017800ec805700d9
:101e20005800900003000100500498000000e000fa
:101e300045003200680890000a004000600c9800dd
:101e40008a845400edff3700380990000200e0005a
:101e50000e003400e80090001808900080804000d8
:101e6000c801900058009000030001005004980041
:101e70008080eb000000e00034003200e8089000b1
:101e80003808900000804000600c9800c80c90005a
:101e90000900e0001100340009057800e28f5400c9
:101ea000010036002a002000c80190000a017800d5
:101eb000ec80570058009000030001005004980087
:101ec0000000e00020003200680890000a00400096
:101ed000600c98008a845400edff370008109000d1
:101ee0008000eb000028a300180032000b00e00087
:101ef000160034008b04780009057800e28f540046
:101f0000010036002a002000c80190000a01780074
:101f1000ee80570058009000030001005004980024
:101f20000000e00008003200680890000a0040004d
:101f3000600c98008a8454004240a900eeff3c00e7
:101f40008000eb00010037008080eb00010078008a
:101f50004f0678004f05be004f04be000080fa0017
:101f600000000600010878000000060000c0da004a
:101f70000000060000c0da0000000600839f680031
:101f80000100e00002003d0060001000e080180049
:101f90000300e00002003d0060011100e081190033
:101fa000050007004f00e00002003b006000100049
:101fb000e0801800000006006022b8000602200041
:101fc0000000d0008180d2000482d2008582d2003d
:101fd0000000a0000202520083825a000300310078
:101fe0000202420083824a000000a1000603e900c9
:101ff000f3ff3a0000000600efff07000400be00f8
:1020000000000600020ab900001bb9000200b80077
:10201000810042008100430000000600889fbe004e
:102020008a9fbe0030044200b0844a0030054b0055
:1020300090854b006000b1000898be000a90be0079
:102040000440e10005c8e10006d0e10007d8e10046
:1020500002003100680040001008e8004f05be0093
:102060004f04be0000000600889fbe008a9fbe008d
:102070003004be002005be000418540005985c0022
:1020800006185d0007985d00110020000440e10083
:1020900005c8e10006d0e10007d8e10001003900e1
:1020a0008000eb00108810004f05be004f04be00fa
:1020b000000006001200fa00889fbe008a9fbe0042
:1020c0008c9fbe00e0b79f00f1b79f0082bf9f00ca
:1020d00093bf9f000605be000404be000000eb0095
:1020e000d0b79f00c0b79f00b0b79f00a0b79f00b8
:1020f00090b79f000006eb005fb19700cfb097004c
:10210000820141003fb097000200e00004003d0062
:10211000370007007e805700c0ff0700030037002c
:10212000330007007e805700cfff0700dfb697001f
:102130000d00e0000c0035006fb29700ffb2970071
:102140000fbb97009fbb97001000200001002000ec
:102150006011b800000272008182720002037300f5
:10216000838373001b0007000c06e80001042000b5
:10217000810f5600e0ff3a000d00e00004003d0032
:102180000802be000a03be007e805700a3ff0700be
:102190005fa897000000e00005003a001fb297001a
:1021a000afb297003fb39700cfb397000900070085
:1021b0006fb09700ffb097000fb997009fb99700d5
:1021c0004f06be004f05be004f04be000080fa005f
:1021d000000006000100070000000600a4b79f00f1
:1021e000b5b79f00c6b79f00d7b79f000000060095
:1021f0004f09de0082817100b3b79f004f01de00fe
:102200008180400082807000a1b79f008fb097004e
:102210004f09de00000040000200700090b79f00f0
:102220007fa897004f01de0081804000828070000f
:1022300081b79f000d0007004f3ade00000040000c
:1022400004007000f0af9f00080007000402420085
:1022500085824a0006034b0087834b00dfff07009f
:102260000802be000a03be00000006002fb297005d
:10227000bfb297004fb39700dfb39700000006008e
:10228000881f780018002000881f780089ff070049
:102290008f87e9004f04780000000600801feb00e4
:1022a00084ff07008f87e90000000600889fbe00ba
:1022b0008a9fbe00e00f5000e08f5800e00f5900e9
:1022c000e08f59000c003d006044b8006055b80034
:1022d0000000540081805c0002015d0083815d008c
:1022e000180020001500070008003d001800070036
:1022f0000004eb00050037000004eb000f000700ae
:1023000002003d001200070018002000dcff07005b
:102310000800e000060032006022b8006033b80018
:102320000000520081805a0002015b0083815b0043
:102330004f05be004f04be0000000600e00f520033
:10234000e08f5a00e00f5b00e08f5b0000000600aa
:102350006044b8006055b8000402540085825c00f7
:1023600006035d0087835d0000000600889fbe00b5
:102370008a9fbe008c1f7800e00f5000e08f58004d
:10238000e00f5900e08f59000d003d006044b80097
:102390006055b8000000540081805c0002015d00bf
:1023a00083815d001c0020000820e10009a8e100f5
:1023b0000ab0e1000bb8e1000d003d000800370055
:1023c0000006eb00e00f5200e08f5a00e00f5b00c8
:1023d000e08f5b0006003d006044b8006055b80027
:1023e0000402540085825c0006035d0087835d0063
:1023f000aaff07000c00e000060032006022b800cf
:102400006033b8000000520081805a0002015b0076
:1024100083815b004f0678004f05be004f04be006d
:10242000000006006200fa00889fbe008a1f780044
:1024300000057800810478000204780083007800a9
:1024400080f92f000f004000c6fe07009a979f00fa
:10245000a9979f000000eb00b09f9f001885fb002c
:102460008a04fb000a05ea004f55de0050022000f6
:10247000808f54000d003200e10f55000b003a0030
:102480000a017800880078002f9097009f919700ac
:1024900003000100a0979f000000e0008e003200c2
:1024a0003f9897000000e800b09f9f000a04440096
:1024b00050022000808f5400040032000900e00028
:1024c000e6ff3a003f989700840037000000eb00d9
:1024d000909f9f00809f9f00f0979f00e0979f0034
:1024e000d0979f00c0979f0007003700e1a520000c
:1024f000010050000000400021a52000610078008c
:10250000df98970001007000d09f9f00880478003a
:1025100009047800384578008a00fb00e0a5200017
:102520008ffc07000000e000f0ff3a00a1c2b300fa
:10253000814f55000e003a00cf8897000180e900d6
:10254000c08f9f0010007800c09f9f000000e00037
:1025500005003d000000ea00c09f9f005f989700c3
:102560000020a000d09f9f000904e8000f00370062
:10257000c09f9f000000eb0005003700f2ff27001e
:10258000820f5000020032006a01b9000280400050
:102590000904780088047800b900fb000103b10049
:1025a000e98f5000f5ff3600c09f9f00e0c2b300e6
:1025b000984f1000020032000080eb001900370035
:1025c000a0c2b300d84f100007003a00cf88970090
:1025d0000180e900c08f9f0010007800a09f9f003d
:1025e0000804e800100037000000eb00a09f9f00e7
:1025f0008800780005003700f3ff2700830f5000a4
:10260000020032006a02b9000400410001047800af
:10261000880078003101fb000203b100e90f51008e
:10262000f5ff3600a09f9f00984478008900fb00ca
:10263000a0a420004afc07000000e00002003200d5
:102640000804e800010037008044eb00c97f9f00c8
:1026500080c6b30080cf540004003a0098cf140025
:102660000a003a006640500006003700c0c6b300ba
:1026700080cf540005003a0098cf140003003a00c0
:1026800065404000c07f9f000804e8001801fb007f
:10269000e3fb2f008f81410081f92f008f804000e4
:1026a000a0f92f000f004000100007000000e0001c
:1026b00009003a00e1fb2f008f804000a0f92f00b5
:1026c0000f0040006bfd07000000e0000200350035
:1026d0000804e80061ff37000080eb004f05780038
:1026e0004f04be000080fa0000000600889fbe0074
:1026f0008a1f780000047800e0c6b300804f5100c4
:10270000c100320015003c006b405000804f51006a
:10271000240032000a003c0070405000804f5100fd
:10272000fa00320065404000804f510068003200de
:1027300050c2b300804f51000b013a00070137002f
:1027400040c6b300804f51001b003200654040007e
:10275000804f510004013a001700370030c7b30022
:10276000804f5100e900320007003c0064405000f7
:10277000804f5100560032000040e800804f510069
:10278000f9003a00d300370050c7b300804f510022
:102790004f00320063404000804f5100f2003a0089
:1027a0004b0037001181e900820878007800900022
:1027b00012417800ea00370028609000c4c6b300d8
:1027c000844f500007003a00110278006400520064
:1027d000800878001002be004fabde008603780050
:1027e0001100370014c7b300844f500003003200bb
:1027f000a4c6b300844f500006003a0011027800ce
:1028000068005200800878003002be002003be003d
:10281000050037001180e900800878001002780078
:10282000cfa2de00612bb900049cbe000694be005e
:102830002860900081c6b300814f50000d00320027
:1028400021c6b300814f500004003a000402fb008f
:10285000cfa2de00612bb9000800370041c7b300ea
:10286000814f500003003200e6c04000814f50000d
:1028700004003a00cfa2de00612bb900049cbe0028
:102880000694be003802be002803be007800900007
:10289000d1c2b300e00f5200e08f5a00e00f5b009e
:1028a000e08f5b0008003500881090000118a3003d
:1028b00002003200b1c2b300030037000108a300d8
:1028c0004c00320001c2b30081717800470037002c
:1028d00028609000c4c6b300844f500006003a0040
:1028e0001102780064005200800878001002be00d7
:1028f0006033b8001100370014c7b300844f500094
:1029000003003200a4c6b300844f500006003a0012
:102910001102780068005200800878003002be0082
:102920002003be00050037001180e9008008780010
:10293000100278008002eb006033b800049cbe00f7
:102940000694be002860900081c6b300814f5000fd
:102950000d00320021c6b300814f500004003a0040
:102960000482fb008002eb006033b80008003700ef
:1029700041c7b300814f500003003200e6c0400061
:10298000814f500004003a008002eb006033b80031
:10299000049cbe000694be00081090000038a300fe
:1029a000140032003802be002803be00e00f5200bf
:1029b000e08f5a00e00f5b00e08f5b000d003200fb
:1029c00080c7b300804f51000300320080c5b300c0
:1029d000804f510007003a007800900001c3b30017
:1029e000817178000000e800827178000000e80042
:1029f0007004980078009000808141006304980082
:102a0000824078003e00370028619000c3c6b300c2
:102a10001180e900834f5100220032000a003c007f
:102a2000e4c15100834f51002500320083c1e8000a
:102a3000834f510013003200e8c15100834f510011
:102a40001e003a000a00370043c7b300834f51000d
:102a50001b003200e6c14100834f510018003200d4
:102a6000e9c15100834f510014003a0005003700be
:102a70008008780010007800485c900008487800d2
:102a8000410037008008780010007800680a900044
:102a9000cfa2de00612bb9000498be000690be00f4
:102aa000390037008008780010007800680990002d
:102ab000cf91de000288be00330037001180e900ac
:102ac0008008780010007800680c900008087800f2
:102ad0002d0037001180e90080087800100278008e
:102ae000cfa2de00612bb900049cbe000694be009c
:102af00078009000808141006304980081c7b30092
:102b0000080078002cfb07001f0037001180e90047
:102b100080087800100578006a049800d80c9000ae
:102b20000900e00004003d000a0078002df90700cc
:102b30008004780007003700090178008000eb006e
:102b40000a007800fcfa07000000e00001003200f3
:102b50008a045000190c98000b0037007800900090
:102b60008271780006003700780090008081410073
:102b70000204e00001003a0052c2b300824978002a
:102b80000000e800700498000000eb004f0578009a
:082b90004f04be000000060026
:020000040000fa
:102b9800022d0000544e000090f00000fffe0000df
:102ba8000a3200000a00000053740000617200003d
:102bb80074200000616c00006c2000007465000047
:102bc80073740000732e00002e2e0000000d00000c
:102bd800004100006c6c0000207400006573000068
:102be80074730000207300007563000063650000c3
:102bf8006564000065640000005300007461000013
:102c0800727400002074000065730000742c0000ca
:102c180020690000642000003d20000025640000b9
:102c28002e2e00002e000000446100007461000098
:102c3800206d0000656100006e2000003d2000004e
:102c480025640000005300006572000069610000ff
:102c58006c2000007465000073740000207300008d
:102c6800756300006365000065640000656400002a
:102c7800005300006c6500006570000020660000cd
:102c88006f720000203100002073000065630000af
:102c98006f6e000064000000507200006f63000057
:102ca80065730000736900006e6700002063000010
:102cb8006f6d0000706c0000657400006500000016
:102cc800507200006f6300006573000073690000b4
:102cd8006e67000020660000616900006c650000f6
:102ce8006400000052610000646900006f20000069
:102cf800736800006f7200007420000072650000a5
:102d080061640000207300007563000063650000c3
:102d180073730000667500006c00000052610000cb
:102d2800646900006f200000736800006f72000083
:102d380074200000726500006164000020660000d5
:102d4800616900006c6500006400000052610000c9
:102d5800646900006f2000006c6f00006e6700005f
:102d68002072000065610000642000007375000097
:102d7800636300006573000073660000756c0000f3
:102d88000052000061640000696f0000206c0000c0
:102d98006f6e00006720000072650000616400002b
:102da80020660000616900006c6500006400000096
:102db8005365000074740000696e0000672000000d
:102dc800757000002072000061640000696f0000e7
:102dd800207300006c650000657000002072000020
:102de8006567000069730000746500007273000075
:102df800005300004c500000434f00004e310000cb
:102e0800203d000020250000580000005741000028
:102e18004b450000544900004d4500004820000083
:102e28003d2000002558000000570000414b0000dd
:102e380045540000494d0000454c0000203d00006d
:102e4800202500005800000052460000434f0000b3
:102e58004e370000203d00002025000058000000eb
:102e680052610000646900006f200000736c00006c
:102e78006565000070200000636c00006f6300004f
:102e88006b200000636100006c6900006272000042
:102e980061740000696f00006e200000646f00001c
:102ea8006e6500002c200000534c000050430000c9
:102eb8004c4b00002070000065720000696f000034
:102ec800642000003d200000256c0000756e0000a5
:102ed800730000005761000069740000696e00000b
:102ee80067200000666f0000722000007261000019
:102ef800646900006f200000746f000020770000f4
:102f0800616b0000652e00002e2e000000520000ac
:102f180061640000696f0000207700006f6b00009b
:102f2800656e0000004e00006f2000007375000001
:102f3800636800002074000065730000742c0000b2
:102f480020690000642000003d2000002564000086
:102f580000540000657300007420000073750000c1
:102f6800636300006565000064650000642c000070
:102f780020690000642000003d2000002564000056
:102f880000000000626f0000617200006420000011
:102f9800696e000069740000206400006f6e000014
:102fa800650000000d000000726100006469000007
:102fb8006f200000696e0000697400002064000042
:102fc8006f6e00006500000053650000742000006b
:102fd8006d6f000074650000203100002c20000097
:102fe80049440000203d0000203100002c20000052
:102ff80061640000647200006573000073200000c3
:103008003d200000307800004141000035340000c8
:103018000053000065740000206d00006f7400000c
:1030280065200000322c00002049000044200000e8
:103038003d200000322c0000206100006464000084
:103048007265000073730000203d0000203000000e
:10305800784100004135000035000000546500004b
:1030680073740000696e000067200000636f000041
:103078006d7000006c65000074650000005400006d
:1030880065730000746900006e6700002066000028
:10309800616900006c650000640000005465000070
:1030a80073740000696e000067200000636100000f
:1030b8006e630000656c00006c6500006400000031
:1030c80052580000206d00006f6400006500000089
:1030d80054580000206d00006f6400006500000077
:1030e8006d680000722000006c6500006e670000cb
:1030f80074680000203d00002025000064000000e6
:1031080070610000796c00006f61000064200000ad
:103118006c6500006e6700007468000020620000a3
:1031280069740000732000002862000079740000b0
:1031380065730000292000003d2000002564000080
:10314800202800002564000029000000746f00009a
:10315800746100006c2000006c6500006e67000060
:1031680074680000203d0000202500006400000075
:10317800546f0000746100006c2000006c65000052
:103188006e67000074680000207400006f6f000014
:103198002062000069670000212000004d610000e6
:1031a800786900006d7500006d20000069730000eb
:1031b8002025000064000000536c000065650000d5
:1031c800706900006e6700002e2e00002e000000bf
:1031d8004d65000073730000616700006520000002
:1031e8007265000063650000697600006564000090
:1031f8000052000061640000696f00002077000041
:103208006f6b000065200000757000000049000029
:103218004e5400005354000041540000203d00006b
:1032280020300000782500002e32000058000000f1
:103238005258000020700000617900006c6f000097
:10324800616400003a2000005b0000003078000054
:10325800252e0000325800002c200000003000000d
:10326800782500002e320000585d00002022000062
:10327800003c0000252e0000325800003e000000ef
:103288000d0000004643000053480000203d0000a8
:1032980020300000782500002e3200005800000081
:1032a80046430000534c0000203d00002030000041
:1032b800782500002e320000580000004c51000014
:1032c800492000003d200000256400000052000055
:1032d80053530000492000003d20000025640000f1
:1032e800005400005820000073750000636300005c
:1032f8006573000073660000756c00002c200000e8
:10330800545800005354000041540000203d000070
:1033180020300000782500002e3200005800000000
:103328005458000020660000616900006c650000c8
:10333800642c000020540000585300005441000041
:10334800542000003d20000030780000252e0000a9
:10335800325800000000000070610000796c000025
:103368006f610000645b0000256400005d3a0000a6
:10337800206e0000756d0000207700006f7200005d
:1033880064730000203d000020250000642c00002c
:10339800207700006f720000642000006c65000058
:1033a8006e67000074680000203d000020250000c2
:1033b800642000006269000074730000000d0000c2
:1033c800005500006e6b00006e6f0000776e000005
:1033d800207700006f72000064200000736900000d
:1033e8007a6500003a200000256400000000000013
:1033f800545800004e460000494600004f20000087
:103408003d200000220000003c2500002e32000074
:10341800583e0000000d000000250000783d000027
:0c342800257800000d0a000000000000e4
:020000040000fa
:103434000000fa00b0c1b300480107000004a00076
:1034440080407800b0c1b300760107000080fa0024
:10345400000006000600fa001007980021079800f3
:103464000040eb00004f78001e80fb0051932000c9
:1034740012c4b300827078001e4fe8001e80fb0067
:103484005193200082c8b300827078001e4fe80078
:103494001e80fb000282200012417800519320001c
:1034a400827078001e4fe8001e80fb0051932000bc
:1034b40000c1eb00827078001e4fe8001e80fb0004
:1034c4005193200000c1eb00827078001e4fe80089
:1034d4001e80fb005193200000c1eb008270780035
:1034e4001e4fe8001e80fb005193200000c1eb003a
:1034f400827078001e4fe8001e80fb00b28120001d
:103504001241780051932000827078001e4fe80029
:103514001e80fb00a28120001241780051932000fc
:10352400827078001e4fe8001e00900010007800a2
:10353400000178008000e8001e0090000108780077
:1035440091c0b300020078001d0107002e00900016
:10355400804078001e009000100078000001780080
:103564008001e8001e009000030878000200780043
:10357400130107000040eb00004f78000c003700f7
:103584001e80fb0051932000e14078001e4fe800ac
:103594001e00900010007800000178008001e8000f
:1035a4001e00900003087800020078000401070060
:1035b4001e407800e84f5000f1ff36000080fa000a
:1035c400000006001200fa0000302000ca000700c4
:1035d4004047980010302000300798004e4090007b
:1035e4008080fb003e00900000804000400798006f
:1035f400be009000010f78000000eb001007980057
:103604000a0037001e0078001e0fe800ba00070009
:10361400528220009e009000810041008048780082
:103624001e0090000000e800100798004e00900073
:103634009e007800808f5000f2ff39001e00780051
:103644001e0fe800ac000700204f98001e00780011
:103654001e0fe800a8000700304f98001e007800f5
:103664001e0fe800a4000700404f98001e007800d9
:103674001e0fe800a0000700504f9800d0c0b30010
:10368400b60007000004a00080407800d0c0b3005a
:10369400e4000700c0912900801f780024f7070088
:1036a4008f87e9004e4090000080fb000080e90015
:1036b400700798000000eb001007980045003700e1
:1036c400518220001e00900000804000904078004d
:1036d400015798001e009000e70f500008003e00bc
:1036e4000e5090000080fb00801f7800a0922900fb
:1036f400801f78000ef70700e48757003200370078
:103704001e009000e80f500008003a000e50900090
:103714000080fb00801f780030932900801f780010
:1037240003f70700e4875700270037008e50900006
:10373400f0c2b30080cf5000040036008e509000d9
:1037440090c3b30080cf5000140036008e50900018
:1037540000c6b30080cf5000040036008e509000a5
:10376400a0c7b30080cf50000c0036008e509000ec
:1037740000c4b30080cf5000040036008e50900087
:10378400a0c5b30080cf5000040036008e509000d6
:1037940000c2b30080cf500004003a000e509000e5
:1037a4000080fb0051f50700070037000e50900021
:1037b4000080fb00801f7800d0932900801f7800d0
:1037c400dbf60700e48757001e0090000000e800c5
:1037d400100798009e0090007e009000808f50009b
:1037e400b7ff39002002200040f50700409429006b
:1037f40040f507003e4890000080fb00801f7800e1
:1038040060942900801f7800c9f60700e4875700f8
:103814004094290037f507002e4890000080fb00f3
:10382400801f780040952900801f7800c0f60700ab
:10383400e4875700409429002ef507004e48900075
:103844000080fb00801f780020962900801f7800ec
:10385400b7f60700e48757004094290025f50700d0
:103864005e4890000080fb00801f7800b09629001d
:10387400801f7800aef60700e487570040942900c3
:103884001cf507000080fa00000006000200fa00a0
:1038940040c2b30031000700004f78001e80fb00d7
:1038a400610060000000e00009003a001e80fb0097
:1038b400801f780050972900801f78009cf607002d
:1038c400e4875700409429000af5070008003700f0
:1038d4001e80fb00801f780040992900801f78001b
:1038e40093f60700e48757004094290001f5070088
:1038f4000080fa00000006000400fa001007980097
:10390400b00480004400de0061406000104798006d
:103914009680a9008f41a9001e0090003b07070074
:10392400004f78008f41a8001e4090006140600065
:103934000080fb00610060004400dd00b2048000f0
:10394400f1fe2f008100610001007000b0048800c6
:103954001e4078000080fa00000006000400fa000f
:1039640020479800b00480004400de0061406000fd
:10397400104798009680a9008f41a9002e4090001e
:10398400cb060700004f78008f41a8001e4090002e
:10399400614060000080fb00610060004400dd00c5
:1039a400b2048000f1fe2f0081006100010070006c
:1039b400b00488001e4078000080fa000000060071
:1039c4000600fa001007980041479800b0048000f0
:1039d4004400de0061406000004f78009680a9003a
:1039e4008f41a900ce4090001e00900047070700b9
:1039f4008f41a8001e407800614060000080fb00f9
:103a0400610060004400dd00b2048000f1fe2f007c
:103a14008100610001007000b00488000080fa0099
:103a2400000006000400fa0020479800314798007f
:103a3400b00480004400de0061406000004f780064
:103a44009680a9008f41a900be4090002e409000ae
:103a5400c10607008f41a8001e4078006140600045
:103a64000080fb00610060004400dd00b2048000bf
:103a7400f1fe2f008100610001007000b004880095
:103a84000080fa00000006000000fa0061ceb300d6
:103a940020c3b300e3ff07000080fa000000060023
:103aa4000000fa0041c0b300a0c2b300ddff07006c
:103ab4000080fa00000006000000fa0021c0b300f4
:103ac400a0c2b300d7ff07000080fa000000060080
:103ad4000000fa0011c0b300a0c2b300d1ff070078
:103ae4000080fa00000006000200fa0060c3b30080
:103af4009aff0700004f78001e4078000024a000c1
:103b04008040780060c3b300c6ff0700b0cfb300a5
:103b14001e4060008040780060c3b300c1ff07000e
:103b240020002000410b07000080fa00000006007e
:103b34000000fa00b0c1b30088ff07000080fb005a
:103b44004400de0000407800614060000080fa001c
:103b5400000006000000fa00d0c0b3007fff070099
:103b64000004a00080407800d0c0b300adff07007f
:103b74000080fa00000006000200fa00000f78003e
:103b84001e0078004400dd00004078003040b3009f
:103b9400804078000020200089ff0700d2ff070042
:103ba4000080fa00000006000400fa002047980094
:103bb40000c2b300004f78002e4090000004a20021
:103bc4000004e000020032001e14a00001003700cf
:103bd4001e04a0009e4078000040eb0091ff070007
:103be4000080fa00000006000000fa000040eb002c
:103bf4005aff07000034a000804078000040eb002a
:103c040088ff07000080fa00000006000000fa00a8
:103c14000040eb0051ff070071cfb300014060008a
:103c2400804078000040eb007eff07000080fa002f
:103c3400000006000200fa00000f78001e00780061
:103c4400104078008040780010c0b30075ff070072
:103c54001e00e800104078008040780020c0b300c7
:103c640070ff07000080fa00000006000200fa005e
:103c7400000f78001e007800104078008040780023
:103c840030c0b30067ff07001e00e8001040780052
:103c94008040780040c0b30062ff07000080fa0053
:103ca400000006000200fa00000f78001e007800f1
:103cb400104078008040780050c0b30059ff0700de
:103cc4001e00e800104078008040780060c0b30017
:103cd40054ff07001e80e800104078008040780000
:103ce40070c0b3004fff07009e007800638040005f
:103cf400104078008040780080c0b30049ff07007e
:103d04009e00780064804000104078008040780075
:103d140090c0b30043ff07009e0078006580400018
:103d24001040780080407800a0c0b3003dff070039
:103d34009e00780066804000104078008040780043
:103d4400b0c0b30037ff07009e00780067804000d2
:103d54001040780080407800c0c0b30031ff0700f5
:103d64000080fa00000006000200fa00000f78004c
:103d74001e007800104078008040780080232000e6
:103d84000fff07001e00e800104078008040780014
:103d9400902320000aff07000080fa0000000600bc
:103da4000200fa00000f78001e007800104078002e
:103db400804078000023200001ff07001e00e80077
:103dc400104078008040780010232000fcfe07009b
:103dd4001e80e800104078008040780020232000f6
:103de400f7fe07009e0078006380400010407800d2
:103df4008040780030232000f1fe07009e00780008
:103e04006480400010407800804078004023200007
:103e1400ebfe07009e0078006580400010407800ab
:103e24008040780050232000e5fe07009e007800c3
:103e340066804000104078008040780060232000b5
:103e4400dffe07009e007800678040001040780085
:103e54008040780070232000d9fe07000080fa001b
:103e6400000006000800fa002007980031079800b7
:103e7400b00480004400de006140600020479800e8
:103e84009680a9008f41a90011c0b3002e009000b4
:103e94001e0607000000eb00000f78000600370044
:103ea4001e007800be0090000080400010407800a2
:103eb4006a0507001e0fe8001e007800ef0f50008f
:103ec400f7ff34008f41a8002e409000614060004d
:103ed4000080fb00610060004400dd00b20480004b
:103ee400f1fe2f008100610001007000b004880021
:103ef4000080fa00000006000000fa008f61a900ab
:103f0400401f2000490a07008f61a800401f2000bd
:103f1400460a07000080fa00000006000000fa00cc
:103f24008f41a8008f81a800f3ff070081c9b30067
:103f340080c1b300bbfe070051c9b300e0c2b300a7
:103f4400b8fe070031c0b300002020009cfe07002b
:103f540011c0b3001020200099fe070001c8b3006f
:103f64002020200096fe070001c9b3006020200035
:103f740093fe070001c8b3007020200090fe0700e4
:103f840001c1b300802020008dfe070011c2b300e0
:103f9400002220008afe070001c8b300a0c3b300ba
:103fa400a0fe070001c6b300f0c3b3009dfe0700e6
:103fb40001c4b300e0c3b3009afe070000c1b3001c
:103fc40066fe070001cfb300014070008040780016
:103fd40000c1b30093fe070010c1b3005ffe0700e9
:103fe400f1cdb300014060008040780010c1b300ff
:103ff4008cfe070061cbb30020c3b30089fe070029
:1040040041c0b30060c3b30086fe0700800c2000eb
:10401400f40907008040eb0060c3b30081fe070091
:10402400800c2000ef0907000080fa000000060061
:104034000200fa0001c8b30020c2b30079fe0700f1
:1040440050c3b30045fe0700004f78008f81a900dc
:1040540093fe07001e4078000074a00080407800a2
:1040640050c3b3006ffe07000080fa000000060092
:104074000000fa008f81a8009bfe07000080fa0070
:10408400000006000c00fa00200798003107980091
:104094004207980053079800be0090004e0090001d
:1040a400808040005e009000008f4000b0c1b300eb
:1040b4002afe070020479800ae409000d0cfb300fe
:1040c40000c0600020479800ae409000b0cfb3001d
:1040d40000c06000204798002e0090001040780037
:1040e4000080fb004300de00004078000080fb00fd
:1040f40061006000004078000004e000030032002a
:104104002e4090000014a000204798002e0090003c
:10411400104078000080fb004500de00004078007d
:104124000080fb0061006000004078000004e000b3
:10413400030032002e4090000024a0002047980085
:10414400b00480004400de00614060003047980005
:104154009680a9008f41a9003e009000004078009d
:10416400804078000000eb00680507001e0078001e
:1041740000407800b9040700060037002e009000c4
:1041840010407800ae0090008100e80021079800fc
:10419400b204070010c0b3009e0078000100e000e4
:1041a40001003c000040eb001e0fe9000004e000a9
:1041b400f2ff3a008f41a8003e4090006140600049
:1041c4000080fb00610060004400dd00b204800058
:1041d400f1fe2f008100610001007000b00488002e
:1041e4000080fa00000006000200fa00004f780088
:1041f400114798001e80fb00670060004300dd004b
:10420400804078001e4090006740600000c070004d
:1042140080407800c0c2b30002fe07000080fa00ac
:10422400000006000200fa0000c3b300cbfd070043
:104234000080fb004200de00004078000080fb00ac
:104244006100600000f0a7000000ea000000ea003e
:104254004f00de00004f78008040eb0000c3b30045
:10426400f0fd07001e4078000080fa000000060000
:104274000400fa0020479800c0c2b300b7fd07004d
:10428400004f78002e4090000004e000020032004d
:1042940000c4b3000100370000c8b3009e4078009a
:1042a40001407000004f78009e407800c0c2b30007
:1042b400dcfd07000080fa00000006000200fa009e
:1042c40040c2b300a5fd0700004f78001e80fb002c
:1042d40061006000004078000004e0000900320042
:1042e4009e80fb0000022000008060000000e000cf
:1042f40002003200200020000300370010002000dc
:10430400010037000000eb000080fa000000060006
:104314000e00fa00400798005107980062079800c1
:1043240090c3b3008dfd07000024a00080407800f6
:1043340090c3b300bbfd0700b00480004400de005e
:1043440061406000604798009680a9008f41a900f1
:1043540000302000ad0407000080fb001007980027
:104364000000eb00000f7800070037002804070066
:10437400ce009000804878004e0090000000e800d5
:10438400400798001e0fe8001e0090009e00780071
:10439400808f5000f5ff39001d0407004047980046
:1043a4001b040700504798005e0090000000e000e6
:1043b400030032005e009000ce4090000148780077
:1043c4006e0090000000e000030032006e009000d8
:1043d400de409000014878008f41a8006e409000b4
:1043e400614060000080fb00610060004400dd006b
:1043f400b2048000f1fe2f00810061000100700012
:10440400b0048800d3fd070090c3b30053fd070038
:10441400b1cfb300014060008040780090c3b30086
:1044240080fd07001e0090000080fa0000000600d6
:104434000400fa000000eb00000f780010c3b30082
:1044440046fd0700204798002e4090000080fb00a6
:10445400680060000000e000010032001e00a000bf
:104464002e4090000080fb00610060000040780056
:104474000004e000010032001e10a0002e40900055
:104484000080fb00700060000000e00001003200ca
:104494001e20a0001e0078000080fa000000060024
:1044a4000200fa00805d2900801f7800b6f307003f
:1044b4008f87e900b05e29000ef207000000eb00d0
:1044c400000f7800070037001e0078001100070075
:1044d4000004e00002003a000040eb000b0037004b
:1044e4001e0fe8001e007800e60f5000f6ff3600ad
:1044f400d05e2900801f7800a3f307008f87e900ae
:10450400b05e2900fbf1070010c0b3000080fa0080
:10451400000006000600fa00889fbe0020079800ed
:104524000000eb00000f7800ae009000811f7800bf
:1045340010602900801f78007df30700e48757008e
:10454400b05e2900ebf107002e009000e30f50004d
:1045540050003200e30f500005003e00e10f500010
:104564000a003200e10f50002d003e002500370004
:10457400e50f500045003200e50f50006b00390094
:10458400e60f50003a0132002f0137000000eb0023
:104594001007980009003700c15c29001e00900034
:1045a40000804000104078000080fb001e0f400097
:1045b4001e0090000000e80010079800b0ae8400d0
:1045c4009e009000808f5000f3ff3900b0ae84004d
:1045d4009e00780000017800110009008280d80054
:1045e400000f78009e1f780080612900801f7800ea
:1045f4004ff30700e4875700b05e2900bdf10700c0
:104604001c01370070622900801f780048f30700fe
:104614008f87e900b05e2900b6f107001501370065
:10462400d0632900801f780041f307008f87e900d9
:10463400b05e2900aff10700803e20007b08070030
:1046440010002000b3ff07000004e0000700320060
:1046540000652900801f780035f307008f87e90083
:10466400b05e2900a3f1070002013700406629006b
:10467400801f78002ef307008f87e900b05e2900c1
:104684009cf107000040eb000301370010c0b300a9
:104694000101370000c1b300b0fc07000004e000d2
:1046a4000b00320060672900801f780020f30700a8
:1046b4008f87e900b05e29008ef1070020222000d8
:1046c4008dfc07000004e00009003a000f003700e9
:1046d40020692900801f780015f307008f87e900ff
:1046e400b05e290083f107000040eb00ea003700c8
:1046f400a06a2900801f78000df307008f87e90066
:10470400b05e29007bf10700da003700506c290005
:10471400801f780006f307008f87e900b05e290048
:1047240074f107000040eb00db003700c06d290086
:10473400801f7800fef207008f87e900b05e290031
:104744006cf10700002220006bfc07000080fb00d6
:10475400801f7800d06f2900801f7800f4f20700d2
:10476400e4875700b05e290062f107003022200080
:1047740061fc07000080fb00801f7800a070290006
:10478400801f7800eaf20700e4875700b05e290032
:1047940058f107002022200057fc07000080fb008e
:1047a400801f780090712900801f7800e0f20700d4
:1047b400e4875700b05e29004ef107007020200006
:1047c4004dfc07000080fb00801f780080722900e8
:1047d400801f7800d6f20700e4875700b05e2900f6
:1047e40044f107000022200043fc070080407800c9
:1047f40000ccb30080c0600010c2b30000c07000e1
:1048040080407800002220006dfc070021cdb30019
:10481400202220006afc070050c3b3004ffc0700ad
:104824008040780000c8b30080c0600020c4b3009a
:1048340000c070008040780050c3b30079fc0700ca
:1048440080c0eb00702220005dfc070080c0eb00fc
:10485400602220005afc0700b020200026fc07003c
:104864000044a00080407800b020200054fc0700e1
:1048740010002000db07070000000000b02020002b
:104884001dfc07000004e000fcff3d00b0202000f8
:1048940019fc07000081fb008001eb00f000200000
:1048a40001002000020278000301780080017800f2
:1048b4000100780003026200000061008000eb0048
:1048c400c000dd00000020000001be006120b8002f
:1048d4000001710081817100c014dd000800200016
:1048e400a020200004fc07000081fb008001eb00f5
:1048f4004818dd00c810de00810070004810dd009b
:10490400000474008184740090202000fafb0700e6
:104914000080fb008000eb000000740081807400c4
:10492400809fbe0040732900801f780080f207003a
:10493400e6875700b05e2900eef007000022200051
:10494400edfb07000080fb00801f7800d06f29007a
:10495400801f780076f20700e4875700b05e2900d4
:10496400e4f0070030222000e3fb07000080fb0096
:10497400801f7800a0702900801f78006cf2070067
:10498400e4875700b05e2900daf0070020222000f7
:10499400d9fb07000080fb00801f7800907129007c
:1049a400801f780062f20700e4875700b05e290098
:1049b400d0f0070070202000cffb07000080fb0030
:1049c400801f780080722900801f780058f2070049
:1049d400e4875700b05e2900c6f00700902220004b
:1049e400c5fb07000074a0008040780090222000de
:1049f400f3fb0700e0762900801f78004cf20700e3
:104a04008f87e900b05e2900baf0070000000000bb
:104a140040822000104078000004e000fcff3200d7
:104a2400408220008040eb0001487800b0782900e3
:104a3400801f78003ef207008f87e900b05e2900ee
:104a4400acf007000b003700ae009000811f780027
:104a540070792900801f780035f20700e487570039
:104a6400b05e2900a3f007000040eb000a00370005
:104a7400000000002e019000821f7800d07a2900e7
:104a8400801f78002af20700e4875700b05e2900ef
:104a940098f0070010c0b3004f04be000080fa0075
:104aa400000006000800fa00300798000000eb0040
:104ab400000f7800280137001e007800c200dd00d6
:104ac400c0a1200000804000100078004800de00f3
:104ad400634060000080fb00630040001100200080
:104ae4008008dd001e0078004201dd00c0a1200026
:104af40000004100100078004a00de000040780009
:104b04000080fb000000e800811f7800801f78000f
:104b14009e1f7800009b2900801f780004f2070084
:104b2400e8875700309e290072f007001e007800c5
:104b3400c200dd00c0a12000008040009040780049
:104b44003e00900010007800000178008001e80029
:104b54003e009000030878000200780098fb0700ec
:104b64001e007800c200dd00c0a1200000804000cb
:104b7400100078004800de00634060000080fb0005
:104b84004600dd00804078001e0078004201dd0010
:104b9400c0a1200000004100100078004a00de009f
:104ba4000040780000c07000804078003e00900013
:104bb40010007800000178008001e8003e009000b9
:104bc40003087800020078007dfb07001e007800cf
:104bd400c200dd00c0a12000008040001000780069
:104be4004a00de00004078000080fb000000e8007e
:104bf400200798000000eb0010079800d100370050
:104c04001e007800c200dd00c0a12000008040002a
:104c1400100078004800de00634060000080fb0064
:104c2400e10f50008d003200e10f500003003c0002
:104c34000000e0009e003200b0003700e20f500098
:104c44005c003200e30f5000ac003a001e00780014
:104c54004200dd008080e800c0a120000080400008
:104c640010007800800078001e0090004300dd00f2
:104c7400008040005001be004000be004818de0025
:104c8400804078003e009000100078000001780019
:104c94008001e8003e0090000308780002007800dc
:104ca40047fb07001e0078004200dd008080e8001a
:104cb400c0a120000080400010007800800078002f
:104cc4001e0090004300dd00008040005001be0043
:104cd4004000be0003007800804078003e00900051
:104ce40010007800000178008001e8003e00900088
:104cf400030878000200780031fb07001e007800ea
:104d04004200dd008080e800c0a120000080400057
:104d140010007800800078001e0090004300dd0041
:104d2400008040005001be004000be004810de007c
:104d3400481add0000007200804078003e009000b8
:104d440010007800000178008001e8003e00900027
:104d5400030878000200780019fb07001e007800a1
:104d64004200dd008080e800c0a1200000804000f7
:104d740010007800800078001e0090004300dd00e1
:104d8400008040005001be004000be0002007800d8
:104d9400804078003e009000100078000001780008
:104da4008001e8003e0090000308780002007800cb
:104db40003fb07001e0078004200dd008080e8004d
:104dc400c0a120000080400010007800800078001e
:104dd4001e0090004200dd00008040001000be0074
:104de4004808de00804078003e0090001000780003
:104df400000178008001e8003e009000030878007c
:104e040002007800eefa07001e0078004200dd0080
:104e14008080e800c0a120000080400010007800dd
:104e2400800078001e0090004200dd0000804000f9
:104e34001000be004008de00804078003e00900074
:104e440010007800000178008001e8003e00900026
:104e54000308780002007800d9fa07001e007800e1
:104e64004200dd008080e800c0a1200000804000f6
:104e740010007800800078001e00900000004000c0
:104e840000804000100078004800de008040780078
:104e94003e00900010007800000178008001e800d6
:104ea4003e0090000308780002007800c4fa07006e
:104eb4001e0078004200dd008080e800c0a12000d0
:104ec4000080400010007800800078001e009000f0
:104ed40000804000904078003e0090001000780070
:104ee400000178008001e8003e009000030878008b
:104ef40002007800b2fa07000f0037001e007800a5
:104f0400c200dd00c0a12000008040001000780035
:104f14004800de00634060000080fb00801f7800d2
:104f2400509e2900801f780001f10700e487570094
:104f3400309e29006fef07001e0090000000e8007b
:104f4400100798009e0090002e009000808f500063
:104f54002bff39001e0fe8001e007800e20f5000fe
:104f6400d5fe36000080fa00000006000800fa00b2
:104f74003e060700607c2900801f7800ecf00700e3
:104f84008f87e900607d29005aef0700e3fb0700e3
:104f9400807d2900801f7800e5f007008f87e900f5
:104fa400607d290053ef0700803e20001f060700a4
:104fb400100c8000680060000000e0000700320070
:104fc400807e2900801f7800d9f007008f87e900d0
:104fd400607d290047ef07000a00370050c5b30081
:104fe4001be8b70020c0b3001de8b700d08029003b
:104ff400801f7800cef007008f87e900607d2900cc
:105004003cef07001ac8bf008040780040c0b300de
:1050140084fa07001bc8bf008040780030c0b3008a
:1050240080fa0700803e200000060700100c800074
:10503400680060000000e0001200320018fd070064
:105044000004e0000700320020832900801f78005c
:10505400b7f007008f87e900607d290025ef07007e
:105064000e00370030842900801f7800b0f007005c
:105074008f87e900607d29001eef0700ad0407005b
:105084000600370020852900801f7800a8f007005b
:105094008f87e900607d290016ef0700803e20001d
:1050a400e2050700100c80004300de006140600050
:1050b4001ce8b7001cc8bf000004e000090032006f
:1050c40040862900801f780099f007008f87e90047
:1050d400607d290007ef07000040eb00b2fa0700eb
:1050e40058003700c0862900801f780090f0070020
:1050f4008f87e900607d2900feee07008441a80047
:105104000000eb00000f7800000120002007980049
:105114000000eb00100798001a0037001e009000f2
:10512400c200dd00c0a12000008040001000780013
:105134004a00de00004078000080fb008000e800a8
:105144001e0090004201dd00c0a1200000004100cb
:10515400100078004800de00634060000080fb001f
:10516400630040000008dd00800078002e009000fd
:10517400008040001e0f40001e0090000000e80068
:10518400100798001e009000e20f5000e3ff360065
:105194001e0078004300de0069004000f0408800f3
:1051a40090002000801f780040872900801f78002d
:1051b4005ff00700e4875700607d2900cdee07000b
:1051c4001e0078004300de00801f78009e1f7800d8
