:020000040000fa
:080000000002040000000000f2
:020000040000fa
:04000800740500007b
:020000040000fa
:04000c007405000077
:020000040000fa
:040010007405000073
:020000040000fa
:04001400740500006f
:020000040000fa
:04001800740500006b
:020000040000fa
:04001c007405000067
:020000040000fa
:040020007405000063
:020000040000fa
:04002400740500005f
:020000040000fa
:04002800740500005b
:020000040000fa
:04002c007405000057
:020000040000fa
:040030007405000053
:020000040000fa
:04003400740500004f
:020000040000fa
:04003800740500004b
:020000040000fa
:04003c007405000047
:020000040000fa
:040040007405000043
:020000040000fa
:04004400740500003f
:020000040000fa
:04004800740500003b
:020000040000fa
:04004c007405000037
:020000040000fa
:040050007405000033
:020000040000fa
:04005400740500002f
:020000040000fa
:04005800740500002b
:020000040000fa
:04005c007405000027
:020000040000fa
:040060007405000023
:020000040000fa
:04006400740500001f
:020000040000fa
:04006800740500001b
:020000040000fa
:04006c007405000017
:020000040000fa
:040070007405000013
:020000040000fa
:04007400740500000f
:020000040000fa
:040078006a05000015
:020000040000fa
:04007c007405000007
:020000040000fa
:040080007405000003
:020000040000fa
:0400840074050000ff
:020000040000fa
:0400880074050000fb
:020000040000fa
:04008c0074050000f7
:020000040000fa
:0400900074050000f3
:020000040000fa
:0400940074050000ef
:020000040000fa
:0400980074050000eb
:020000040000fa
:04009c0074050000e7
:020000040000fa
:0400a00074050000e3
:020000040000fa
:0400a40074050000df
:020000040000fa
:0400a80074050000db
:020000040000fa
:0400ac0074050000d7
:020000040000fa
:0400b00074050000d3
:020000040000fa
:0400b40074050000cf
:020000040000fa
:0400b80074050000cb
:020000040000fa
:0400bc0074050000c7
:020000040000fa
:0400c00074050000c3
:020000040000fa
:0400c40074050000bf
:020000040000fa
:0400c80074050000bb
:020000040000fa
:0400cc0074050000b7
:020000040000fa
:0400d00074050000b3
:020000040000fa
:0400d40074050000af
:020000040000fa
:0400d80074050000ab
:020000040000fa
:0400dc0074050000a7
:020000040000fa
:0400e00074050000a3
:020000040000fa
:0400e400740500009f
:020000040000fa
:0400e800740500009b
:020000040000fa
:0400ec007405000097
:020000040000fa
:0400f00018030000f1
:020000040000fa
:0400f400740500008f
:020000040000fa
:0400f800740500008b
:020000040000fa
:0400fc007405000087
:020000040000fa
:040100007405000082
:020000040000fa
:04010400740500007e
:020000040000fa
:04010800740500007a
:020000040000fa
:04010c007405000076
:020000040000fa
:040110007405000072
:020000040000fa
:04011400740500006e
:020000040000fa
:04011800740500006a
:020000040000fa
:04011c007405000066
:020000040000fa
:040120007405000062
:020000040000fa
:04012400740500005e
:020000040000fa
:04012800740500005a
:020000040000fa
:04012c007405000056
:020000040000fa
:040130007405000052
:020000040000fa
:04013400740500004e
:020000040000fa
:04013800740500004a
:020000040000fa
:04013c007405000046
:020000040000fa
:040140007405000042
:020000040000fa
:04014400740500003e
:020000040000fa
:04014800740500003a
:020000040000fa
:04014c007405000036
:020000040000fa
:040150007405000032
:020000040000fa
:04015400740500002e
:020000040000fa
:04015800740500002a
:020000040000fa
:04015c007405000026
:020000040000fa
:040160007405000022
:020000040000fa
:04016400740500001e
:020000040000fa
:04016800740500001a
:020000040000fa
:04016c007405000016
:020000040000fa
:040170007405000012
:020000040000fa
:04017400740500000e
:020000040000fa
:04017800740500000a
:020000040000fa
:04017c007405000006
:020000040000fa
:040180007405000002
:020000040000fa
:0401840074050000fe
:020000040000fa
:0401880074050000fa
:020000040000fa
:04018c0074050000f6
:020000040000fa
:0401900074050000f2
:020000040000fa
:0401940074050000ee
:020000040000fa
:0401980074050000ea
:020000040000fa
:04019c0074050000e6
:020000040000fa
:0401a00074050000e2
:020000040000fa
:0401a40074050000de
:020000040000fa
:0401a80074050000da
:020000040000fa
:0401ac0074050000d6
:020000040000fa
:0401b00074050000d2
:020000040000fa
:0401b40074050000ce
:020000040000fa
:0401b80074050000ca
:020000040000fa
:0401bc0074050000c6
:020000040000fa
:0401c00074050000c2
:020000040000fa
:0401c40074050000be
:020000040000fa
:0401c80074050000ba
:020000040000fa
:0401cc0074050000b6
:020000040000fa
:0401d00074050000b2
:020000040000fa
:0401d40074050000ae
:020000040000fa
:0401d80074050000aa
:020000040000fa
:0401dc0074050000a6
:020000040000fa
:0401e00074050000a2
:020000040000fa
:0401e400740500009e
:020000040000fa
:0401e800740500009a
:020000040000fa
:0401ec007405000096
:020000040000fa
:0401f0007405000092
:020000040000fa
:0401f400740500008e
:020000040000fa
:0401f800740500008a
:020000040000fa
:0401fc007405000086
:020000040000fa
:040208007405000079
:020000040000fa
:04020c007405000075
:020000040000fa
:040210007405000071
:020000040000fa
:04021400740500006d
:020000040000fa
:040218007405000069
:020000040000fa
:04021c007405000065
:020000040000fa
:040220007405000061
:020000040000fa
:04022400740500005d
:020000040000fa
:040228007405000059
:020000040000fa
:04022c007405000055
:020000040000fa
:040230007405000051
:020000040000fa
:04023400740500004d
:020000040000fa
:040238007405000049
:020000040000fa
:04023c007405000045
:020000040000fa
:040240007405000041
:020000040000fa
:04024400740500003d
:020000040000fa
:040248007405000039
:020000040000fa
:04024c007405000035
:020000040000fa
:040250007405000031
:020000040000fa
:04025400740500002d
:020000040000fa
:040258007405000029
:020000040000fa
:04025c007405000025
:020000040000fa
:040260007405000021
:020000040000fa
:04026400740500001d
:020000040000fa
:040268007405000019
:020000040000fa
:04026c007405000015
:020000040000fa
:040270007405000011
:020000040000fa
:04027400740500000d
:020000040000fa
:040278007405000009
:020000040000fa
:04027c007405000005
:020000040000fa
:040280007405000001
:020000040000fa
:0402840074050000fd
:020000040000fa
:0402880074050000f9
:020000040000fa
:04028c0074050000f5
:020000040000fa
:0402900074050000f1
:020000040000fa
:0402940074050000ed
:020000040000fa
:0402980074050000e9
:020000040000fa
:04029c0074050000e5
:020000040000fa
:0402a00074050000e1
:020000040000fa
:0402a40074050000dd
:020000040000fa
:0402a80074050000d9
:020000040000fa
:0402ac0074050000d5
:020000040000fa
:0402b00074050000d1
:020000040000fa
:0402b40074050000cd
:020000040000fa
:0402b80074050000c9
:020000040000fa
:0402bc0074050000c5
:020000040000fa
:0402c00074050000c1
:020000040000fa
:0402c40074050000bd
:020000040000fa
:0402c80074050000b9
:020000040000fa
:0402cc0074050000b5
:020000040000fa
:0402d00074050000b1
:020000040000fa
:0402d40074050000ad
:020000040000fa
:0402d80074050000a9
:020000040000fa
:0402dc0074050000a5
:020000040000fa
:0402e00074050000a1
:020000040000fa
:0402e400740500009d
:020000040000fa
:0402e8007405000099
:020000040000fa
:0402ec007405000095
:020000040000fa
:0402f0007405000091
:020000040000fa
:0402f400740500008d
:020000040000fa
:0402f8007405000089
:020000040000fa
:0402fc007405000085
:020000040000fa
:040300007405000080
:020000040000fa
:04030400740500007c
:020000040000fa
:040308007405000078
:020000040000fa
:04030c007405000074
:020000040000fa
:040310007405000070
:020000040000fa
:04031400740500006c
:020000040000fa
:040318007405000068
:020000040000fa
:04031c007405000064
:020000040000fa
:040320007405000060
:020000040000fa
:04032400740500005c
:020000040000fa
:040328007405000058
:020000040000fa
:04032c007405000054
:020000040000fa
:040330007405000050
:020000040000fa
:04033400740500004c
:020000040000fa
:040338007405000048
:020000040000fa
:04033c007405000044
:020000040000fa
:040340007405000040
:020000040000fa
:04034400740500003c
:020000040000fa
:040348007405000038
:020000040000fa
:04034c007405000034
:020000040000fa
:040350007405000030
:020000040000fa
:04035400740500002c
:020000040000fa
:040358007405000028
:020000040000fa
:04035c007405000024
:020000040000fa
:040360007405000020
:020000040000fa
:04036400740500001c
:020000040000fa
:040368007405000018
:020000040000fa
:04036c007405000014
:020000040000fa
:040370007405000010
:020000040000fa
:04037400740500000c
:020000040000fa
:040378007405000008
:020000040000fa
:04037c007405000004
:020000040000fa
:040380007405000000
:020000040000fa
:0403840074050000fc
:020000040000fa
:0403880074050000f8
:020000040000fa
:04038c0074050000f4
:020000040000fa
:0403900074050000f0
:020000040000fa
:0403940074050000ec
:020000040000fa
:0403980074050000e8
:020000040000fa
:04039c0074050000e4
:020000040000fa
:0403a00074050000e0
:020000040000fa
:0403a40074050000dc
:020000040000fa
:0403a80074050000d8
:020000040000fa
:0403ac0074050000d4
:020000040000fa
:0403b00074050000d0
:020000040000fa
:0403b40074050000cc
:020000040000fa
:0403b80074050000c8
:020000040000fa
:0403bc0074050000c4
:020000040000fa
:0403c00074050000c0
:020000040000fa
:0403c40074050000bc
:020000040000fa
:0403c80074050000b8
:020000040000fa
:0403cc0074050000b4
:020000040000fa
:0403d00074050000b0
:020000040000fa
:0403d40074050000ac
:020000040000fa
:0403d80074050000a8
:020000040000fa
:0403dc0074050000a4
:020000040000fa
:0403e00074050000a0
:020000040000fa
:0403e400740500009c
:020000040000fa
:0403e8007405000098
:020000040000fa
:0403ec007405000094
:020000040000fa
:0403f0007405000090
:020000040000fa
:0403f400740500008c
:020000040000fa
:0403f8007405000088
:020000040000fa
:0403fc007405000084
:020000040000fa
:100400006fa420000e7f22000e0188000000000073
:10041000000020000000e000020032000001200087
:100420002002880014000700050207000000e00019
:1004300003003a00c06323000100200002003700df
:100440000000200001002000810f70000100320038
:1004500014000700000020000000e000020032004d
:100460000000020000000000d6340200000000007e
:100470000040da000000fe004440a90020472000b0
:100480000000e000030032000020200090018800fe
:100490004440a800000006008a1f78008b1f7800e7
:1004a00000000600a1028800800478000000eb0034
:1004b0001f003700e284440054a0b4009905ba003c
:1004c000e284440054a0b4009906ba00e2844400d7
:1004d00054a0b4000006eb00476fde00fd07b20039
:1004e000ae018800636ce10003003a00eaff0700f8
:1004f0000000eb000e003700606ce10008003a00dd
:10050000004deb000a05e800020039003420ec0041
:100510000af0a0008b05e900f9ff3e000400370057
:100520006168e100010032000086eb000b0007006b
:1005300019c7ba001905ba000e04e00003003a001a
:100540000a00e000dbff3a0000000600fe07b200f0
:10055000ae0288008a047800f5ff37000cd0a300b3
:10056000e20f4d001c00390089027800354dba00b9
:100570000a05e800020039003420ec000af0a0006f
:100580008b05e9000f003200254dba000a05e8008e
:10059000020039003420ec000af0a0008b05e900cd
:1005a000080032000c00e0000600320015cdba0051
:1005b0000a05e800020039003420ec000af0a0002f
:1005c0008b05e9008984e80054a0b4000b00e0002a
:1005d000e2ff3a00000006009902ba00055d7800cb
:1005e0008b05e900f7ff3200c82ade00055d7800c0
:1005f0008b05e900f3ff32000c00e000f1ff320050
:1006000019ddba00eeff3700000000000000000016
:1006100000000000000000000000000000000000da
:1006200000000000000000000000000000000000ca
:100630003600f800809fbe00829fbe00849fbe00ef
:10064000869fbe000000fa008a40a900a117800022
:1006500000082000008060000000e0000800320078
:10066000f4e2a9000828ef0070408000200090000c
:100670008000eb00010878000e28ef000e01370023
:10068000404080008000eb00b2002000030020000a
:10069000820f5000838f5800fd003e000060010073
:1006a0000b0037003a003700760037009d00370016
:1006b000f4003700c9003700da003700f1003700d6
:1006c000dc003700f20037003500370051003700fa
:1006d0000080200020009000620060000000e00028
:1006e000f4003a0000802000100090007040880064
:1006f0000080200010009000104078000ae8b70049
:1007000000802000100090001000900060408800e1
:100710000080200010009000e600400000802000d3
:10072000110098000080200090009000e0a02000c0
:10073000808f500003003a000080200081a020003c
:10074000110098000080200020019000e1ff2f00a0
:10075000810061002100980000802000900090003e
:100760000080200010007800808f500004003a00c4
:1007700000802000a00090000110a000210098003f
:10078000f002a8002000200040408800ca00370086
:10079000f022a8002000200040408800c60037005a
:1007a000a117800000002800008060000000e00029
:1007b0000800320000802000604090008040e80087
:1007c00000802000614098004000200005170700cd
:1007d000b9003700804080008000d100f00f200079
:1007e0000080600060178800804080006100600029
:1007f000004078000004e00003003200b000200058
:1008000040408800ac0037003000200040408800a5
:10081000a9003700a11780000000280000806000b8
:100820000000e000080032000080200060409000de
:100830008040e800008020006140980040002000d7
:10084000e81607009c003700f022a80080408000d6
:100850004800de00e6006000000f2000010070008c
:1008600080408800804080000000a0008040880018
:1008700010c0b30012e8b7002000200040408800fc
:100880008d00370012c8bf00e14f50000a0032004f
:100890006040800010007800804088006040800048
:1008a00020009000a0408800604080002040900020
:1008b00016e8b700010037001268ef0081408000a1
:1008c000f00f2000808f500009003600804080002b
:1008d0004800de00e6006000000f2000010070000c
:1008e00060178800a0002000404088007200370098
:1008f00080408000601788008040800061006000b8
:10090000004078000004e0000300320050002000a6
:1009100040408800680037003000200040408800d8
:1009200065003700a11780000000280000806000eb
:100930000000e000090032000080200060409000cc
:100940008040e8000080200061409800f5e2a900a6
:1009500050002000a31607005700370016c8bf003c
:100960008080fb008100e900cf08de008140780034
:100970000040e90016e8b7000104e0001000320072
:100980006040800066004000604088000ac8bf00e8
:100990000040e9000ae8b7000ac8bf000004e00010
:1009a00003003a00200020008e16070042003700a6
:1009b000f022a80020002000404088003e003700c0
:1009c000a0408000904078008180fb006117880083
:1009d0000000e800a040880037003700a117800021
:1009e00000002800008060000000e00009003200e4
:1009f00000802000604090008040e80000802000df
:100a0000614098004000200076160700f5e2a9003a
:100a100029003700f062a8008000200040408800d4
:100a2000250037008000200040408800f062a800c8
:100a300021003700a04080005117800081407800dd
:100a4000014878000000e800a040880016c8bf00f8
:100a50000040e90016e8b70016c8bf000004e00037
:100a600004003200f0a2a90060002000404088008d
:100a700002003700f0a2a80049160700f082a80083
:100a80000d00370020002000561607000a0037002e
:100a900000802000604090008040e800008020003e
:100aa00061409800600020004e1607000000000022
:100ab00001003700000000000080fa004f03be0074
:100ac0004f02be004f01be004f00be003600f900cd
:100ad000004006000000fa002408a8008680a90053
:100ae0000080fa00004006000040da000000fe002e
:100af0000a00fa0011002000b1bf9f00c0bf9f0094
:100b00006a805700510607004fb897000080fa002e
:100b1000000006000a00fa0051002000b1bf9f004b
:100b2000c0bf9f006a8057004a0607005fb8970061
:100b30000080fa0000000600889fbe008004780054
:100b4000205280000000e00004003a000e00070080
:100b50000084eb000000e00008003500285280000f
:100b60000900e0000500320009004400060007000b
:100b70000000e00001003d000084eb000800780068
:100b80004f04be0000000600800078000100e00075
:100b900003003a00000020002052880000000500f9
:100ba0000080eb0002002000828f500002003e0017
:100bb000215288000000eb00000006000800fa0047
:100bc00010079800210798003207980000000000e5
:100bd0001128800000102000008060000000e0006c
:100be000fbff3200be009000010f78000e003700be
:100bf000000000001128800000102000008060002c
:100c00000000e000fbff32002e0090001040780052
:100c10000000fb00202888002e0090000000e80063
:100c2000200798001e0fe9001e0078000000e00079
:100c3000efff3a003e0090000080fa00000006003e
:100c400000000500889fbe008a9fbe00300442005d
:100c5000b0844a0030054b0090854b006000b10025
:100c60000898be000a90be000440e10005c8e100fb
:100c700006d0e10007d8e100020031006800400022
:100c80001008e8004f05be004f04be00000006003b
:100c9000889fbe008a9fbe003004be002005be00b3
:100ca0000418540005985c0006185d0007985d0064
:100cb000110020000440e10005c8e10006d0e10079
:100cc00007d8e100010039008000eb001088100017
:100cd0004f05be004f04be00000006001200fa00df
:100ce000889fbe008a9fbe008c9fbe00e0b79f0019
:100cf000f1b79f0082bf9f0093bf9f000605be0013
:100d00000404be000000eb00d0b79f00c0b79f00f6
:100d1000b0b79f00a0b79f0090b79f000006eb0000
:100d20005fb19700cfb09700820141003fb09700bc
:100d30000200e00004003d00370007007e805700fd
:100d4000c0ff070003003700330007007e80570014
:100d5000cfff0700dfb697000d00e0000c00350064
:100d60006fb29700ffb297000fbb97009fbb970031
:100d700010002000010020006011b8000002720085
:100d80008182720002037300838373001b000700db
:100d90000c06e80001042000810f5600e0ff3a0035
:100da0000d00e00004003d000802be000a03be0082
:100db0007e805700a3ff07005fa897000000e000b7
:100dc00005003a001fb29700afb297003fb39700fb
:100dd000cfb39700090007006fb09700ffb09700ee
:100de0000fb997009fb997004f06be004f05be0090
:100df0004f04be000080fa0000000600010007005a
:100e000000000600a4b79f00b5b79f00c6b79f00bb
:100e1000d7b79f00000006004f09de0082817100f5
:100e2000b3b79f004f01de008180400082807000d8
:100e3000a1b79f008fb097004f09de00000040006f
:100e40000200700090b79f007fa897004f01de005e
:100e5000818040008280700081b79f000d000700f4
:100e60004f3ade000000400004007000f0af9f0029
:100e7000080007000402420085824a0006034b0076
:100e800087834b00dfff07000802be000a03be0095
:100e9000000006002fb29700bfb297004fb3970033
:100ea000dfb3970000000600881f780018002000bc
:100eb000881f780089ff07008f87e9004f047800ba
:100ec00000000600801feb0084ff07008f87e90009
:100ed00000000600889fbe008a9fbe00e00f500001
:100ee000e08f5800e00f5900e08f59000c003d00e2
:100ef0006044b8006055b8000000540081805c0078
:100f000002015d0083815d001800200015000700cc
:100f100008003d00180007000004eb000500370042
:100f20000004eb000f00070002003d001200070064
:100f300018002000dcff07000800e0000600320077
:100f40006022b8006033b8000000520081805a006f
:100f500002015b0083815b004f05be004f04be00b1
:100f600000000600e00f5200e08f5a00e00f5b0027
:100f7000e08f5b00000006006044b8006055b800d8
:100f80000402540085825c0006035d0087835d00d7
:100f900000000600889fbe008a9fbe008c1f78005c
:100fa000e00f5000e08f5800e00f5900e08f59002b
:100fb0000d003d006044b8006055b80000005400ca
:100fc00081805c0002015d0083815d001c002000c7
:100fd0000820e10009a8e1000ab0e1000bb8e10037
:100fe0000d003d00080037000006eb00e00f520046
:100ff000e08f5a00e00f5b00e08f5b0006003d00d1
:101000006044b8006055b8000402540085825c005a
:1010100006035d0087835d00aaff07000c00e00067
:10102000060032006022b8006033b80000005200b1
:1010300081805a0002015b0083815b004f067800cb
:101040004f05be004f04be0000000600889fbe0092
:101050008a9fbe008c1f78000006eb00e00f500056
:10106000e08f5800e00f5900e08f590007003d0065
:101070006044b8006055b8000000540081805c00f6
:1010800002015d0083815d001c002000e00f520022
:10109000e08f5a00e00f5b00e08f5b0007003d002f
:1010a0006044b8006055b8000402540085825c00ba
:1010b00006035d0087835d000c00a2000c000700a2
:1010c0000c00e000060032006022b8006033b80077
:1010d0000000520081805a0002015b0083815b00a6
:1010e0004f0678004f05be004f04be00000006000a
:1010f000889fbe008a9fbe008c9fbe000404b8007b
:101100000506b8008904460060854e000606b80052
:101110000a054600e0854e000706b8008b0546002c
:10112000040eb800890446000a854e00e0854d0093
:10113000050eb8000a0546008b854e00060eb80065
:101140008b0546000416b8000a0546008b854e0044
:101150000516b8008b054600041eb8008b05460036
:101160000800be000a01be004f06be004f05be00cb
:101170004f04be0000000600c19620000b0037009f
:10118000c19620006a000700800078000080eb0014
:101190000100e00004003500c1962000a0002000fe
:1011a000020007004f80de0000000600889fbe009e
:1011b0008a1f78000004be00c900900069009000fa
:1011c000808f50000500390009007800b700070043
:1011d0008080eb000000e000160035000845780034
:1011e0004900900008587800c00498001900780061
:1011f00000b8a30004003a0000a8a30007003200d2
:10120000ea4f540005003a00090078000d0007007d
:101210008080eb000000e00006003a0000c02000e3
:10122000190060000200320049009000e0049800bc
:101230008a80fb00010078004f0578004f04be0053
:1012400000000600889fbe008a1f78000004780016
:101250000800e0000d003a00a89b20007005440043
:101260008004eb00580078000000e0000400320029
:10127000f4ff07000000e00001003d008084eb0067
:101280008a0f5400f7ff3a002500370000002200c3
:10129000180060008004eb0021003200a8049000d8
:1012a0000f00370009015100384090000000fb009a
:1012b0008900780041fe07000000e00007003c00c4
:1012c000280090004004980060049800500c98009a
:1012d0001890a0008084eb00110037008084440047
:1012e00048019000828f5400eeff390028009000e2
:1012f000400498009800780002c02000028160003d
:1013000001003a003800900001e8a300020032001a
:101310006004980001003700500c98008004eb0036
:10132000090078004f0578004f04be000000060059
:10133000889fbe008a9fbe00800478000104780068
:101340002c003700c800900068009000808f50008b
:101350000400390008007800540007000000e00095
:1013600037003500004020001800600009003200fe
:10137000a1002000090078004200070080057800e5
:101380000b00e00003003200618514000a8545006f
:1013900004003700090078003400070000057800d9
:1013a0008005eb0048009000e8009000808050002d
:1013b0008a8f500002003100010578008005eb00a3
:1013c0000a01780089007800210007004800900099
:1013d0000a004000400498000b00e00004003200c6
:1013e0000800780097ff07000000e00014003a00b2
:1013f0008a8444001904e000d2ff3a0000802000f3
:101400001800600006003200080078008dff070019
:10141000800078000080eb000100e00009003a0045
:1014200001c02000988060000000eb000500320041
:1014300048009000600498000000eb0001003700b5
:101440000080eb004f05be004f04be000000060008
:101450008001780002003700b15978000201e900ec
:101460000200e000fcff3a00000006008000780067
:10147000010178003104e000fdff3a000000510056
:10148000000006000001eb0000027800b041780087
:1014900081cf510001003a00040178000304e0000c
:1014a000f9ff3a000200780000000600889fbe00a5
:1014b0008a1f780000047800c8009000680190003e
:1014c0000000eb00828f50003c00390018007800cb
:1014d0002200290002016000e20f510007003200e3
:1014e000012024000000e00001003d000120200058
:1014f000008c70000080eb003000370002002600f6
:1015000002006000820f500009003a00380090008d
:10151000808f5000060039000800780049ff07005e
:10152000800078000080eb000100e00023003a001a
:101530001805780000c020000000650018003a007f
:10154000a80490006002200008004000808f540032
:1015500013003a00002020008501070020049800b5
:101560000000e00005003a002904980049049800b2
:101570008904e80039049800080037000a60a000d8
:101580000a0c780040049800012020008080400070
:1015900031049800400c9800500c98000c00070093
:1015a00028009000500498003800900060049800d3
:1015b00000002600180c70000000eb004f057800ba
:1015c0004f04be0000000600a0b8200061003700f4
:1015d000881f780008a420001804e00003003a00e7
:1015e000f9ff070020c0b300004c78004f047800da
:1015f00000000600889fbe00000478000800780004
:1016000010ff07008004780000042000180060002c
:1016100002003200280090009c0007000000eb0050
:1016200020049800384090000004e00005003500d8
:101630000000fb002efd07000000e000010032006a
:101640008084eb00181090000000e00008003200d9
:1016500030fd07000000e000010032008084eb0054
:1016600018109000890007000000eb00101498008b
:101670000008200018006000150032000001eb0097
:101680006000b800c39b20000202d00063027a0011
:10169000880f520005003a00000040008180480099
:1016a000008041000008eb000600370061004000a8
:1016b000e08048000201e800e80f5000e08f580089
:1016c000f0ff3a0008007800700007000e003700b5
:1016d000000c780000c0eb0030449800600220004d
:1016e000080040002004980040049800500498002e
:1016f000400c980060049800500c9800700498000a
:1017000076004400000c9800090078004f04be00e9
:1017100000000600881f78000004eb006140b8005c
:10172000e2ff2f00f3ff2f006e030700a29c2000b2
:10173000620078000000e00001003200adff070009
:101740000804e800e80f5400f4ff3a004f04780062
:1017500000000600010020000100e0000800320047
:10176000010080000100e000050032008100e90076
:10177000010088008100d0000200800000b17800e4
:1017800000000600889fbe00000478000100780079
:101790008204780088017800090178001100200097
:1017a0006c000700890f5000010032000004eb00bc
:1017b000080078004f04be00000006000000fa0098
:1017c000e88157004fb99700c196200020bc200047
:1017d0004a0307000080fa0000000600889fbe0050
:1017e0000004780001007800820478008801780005
:1017f000090178001100200056000700890f5000f1
:10180000010032000004eb00080078004f04be0025
:10181000000006000000fa00e88157004fb9970069
:10182000c1962000e0be2000340307000080fa00cb
:1018300000000600889fbe000004780001007800c8
:1018400082047800880178000901780011002000e6
:1018500040000700890f5000010032000004eb0037
:10186000080078004f04be00000006000000fa00e7
:10187000e88157004fb99700c1962000a0c1200011
:101880001e0307000080fa00000006000000e000d0
:101890002f003200c0017800e38f51002c00360089
:1018a0000308a3002a003a00e15180000100e00093
:1018b00002003200810f5000040031001100980036
:1018c000e051880016003700820078001101900076
:1018d0000200e00002003200800f5100faff3900e0
:1018e0001102780084824000850f500018003900f2
:1018f000808f520003003a00830842000100780004
:10190000070037000200e0000300320083014000be
:10191000830f51000e0039001200980090009800cb
:10192000900090000100e00009003200100140002a
:10193000828f500006003a00a2a320000009eb00ad
:1019400010017800110841009100900011009800ea
:1019500000000600889fbe008a9fbe008c9fbe00cc
:101960008e1f7800000678000104780002007800dd
:10197000830478000881b900020778000200e000c3
:10198000420032000800e000410032008205780089
:10199000c900900069009000808f50000400390059
:1019a00009007800c1fe07000000e00029003500b2
:1019b00000402000190060000a0032000b0178008e
:1019c000a10020000c00780093000700800678003a
:1019d0000d00e00006003200610516000a85460091
:1019e000040037000b0578008006eb00010037008b
:1019f0000b05780049009000e900900080805000bd
:101a00008a8f500002003100010578008006eb004b
:101a10000a0178008c0078008dfe07008a85550049
:101a2000490090000a004000c00498000d00e0004a
:101a3000040032000900780002fe07000000e00008
:101a400004003a000b00e000020032000a064600e3
:101a5000cfff370000802000190060000200320034
:101a600009007800f7fd070000c0200019006000a1
:101a70000200320049009000e00498008b055700f6
:101a8000110009008885d800010037000000eb0034
:101a90004f0778004f06be004f05be004f04be0042
:101aa00000000600889fbe0000047800d15180002d
:101ab0000100e00002003200010078000d00370054
:101ac000e1518000c0a3200004003700910f5400b2
:101ad000250036000180e800910090000100e00040
:101ae000faff3a0010003700920f54001e00360033
:101af0000280e800100178000200e000faff3a00de
:101b000011017800e1518000c0a3200004003700db
:101b1000910f5400140036000180e80091009000fd
:101b2000828f5000faff3a0019528000888f5400cb
:101b30000100310088047800090078004c0007009b
:101b40000000e00004003a00888f540005003200d5
:101b50008904d100f5ff3700091878004bff070012
:101b6000d2ff37000000eb004f04be00000006006b
:101b7000881f7800630440000800a1008000eb008b
:101b8000800f540021003600e30f540001003e0096
:101b90004800200008007800c2ff07008000eb002a
:101ba0000000e000190032009000780091017800f8
:101bb00064815100880f5100030031001101900031
:101bc000020878000700370008814000020878000a
:101bd0009101900013019800100178001109140080
:101be00088087800100178000000eb000200e00097
:101bf00004003200920190000300e0000100320076
:101c00000280e800d05188008180e800010078005f
:101c10004f0478000000060003003700b0cf10002a
:101c2000050032000201e900800178000200e000b6
:101c3000faff3a00000005000300780000000600eb
:101c4000020037000304e0000600320000017800c3
:101c500002007800b041780081cf5100f9ff3a00ce
:101c6000010037000001eb000200780000000600d0
:101c7000800078000000eb000100e0000500340067
:101c800001007800acfb0700e10f400001003a00c2
:101c90000000eb0000000600fc874700889fbe00a4
:101ca0008a9fbe008c9fbe008e1f780000067800c1
:101cb00080c5b30080cf50000a003200774040005a
:101cc00080cf50000a0032006940400080cf5000b1
:101cd0000b003200d09d200080bf9f00ae0020008e
:101ce0000a003700c29c200082bf9f000600370018
:101cf000d39d200083bf9f008e002000030037008b
:101d0000d49d200084bf9f000e0120003c02be0035
:101d10002c03be000605be000404be0040c6b3008e
:101d200080cf5000030032006540400080cf50005b
:101d30000b003a00e00f5200e08f5a00e00f5b000a
:101d4000e08f5b0006003d006000b8006011b80045
:101d50000404500085845800060559008785590001
:101d6000e80f57000400320040002000f00f570039
:101d700038003a000100370030002000e00f540026
:101d8000e08f5c00e00f5d00e08f5d0004003a0032
:101d9000dc0890008d0120000100e0000600320008
:101da0008e00e900888060008fba9700e5c0780057
:101db000f1ef9f007d012000800078008100e900a4
:101dc000050033008b05d1000a85d3008984d30038
:101dd0000884d300f9ff3700089ebe000a96be00b3
:101de000120037008d06e9008e00e9008480600053
:101df0000fb99700e2c1780082fd2f000f0141006a
:101e000003f17e00800078008100e90005003300c6
:101e10008783d1000683d3008582d3000482d30058
:101e2000f9ff3700049ebe000696be003c02be00cd
:101e30002c03be00e00f5200e08f5a00e00f5b0061
:101e4000e08f5b008b0034000d00e000e5ff3c00fc
:101e5000880037002c60900081c6b300814f50008d
:101e60000b00320006003c000004e00008003200d5
:101e7000e6c05000814f50004e003a000400370089
:101e8000c1c6b300814f50004a003a00210037001c
:101e90000800e00004003a005c0890008d0120007a
:101ea0000000e00006003200110009000e84d80096
:101eb0000fb99700e2c07800f1ef9f007d0120008c
:101ec000110009000e84d8000a0037001100090033
:101ed0000e04d8008d06e9000e81b90002045400fa
:101ee0008fb8970061417c0081fd2f008f804000fa
:101ef00082f07e00000478000800e000020032005a
:101f00000d00e000f1ff3c00cfc4de00614db900e0
:101f100025003700e00f5400e08f5c0004003a0019
:101f20005c0890008d0120000000e00007003200f6
:101f30006171b9000800be00670107008fb9970002
:101f4000e3417800f3ef9f007d0120006171b9004b
:101f50000800be00500107000b0037006171b90096
:101f60000800be003d0107008d06e90000f1b90040
:101f7000020454000fba9700e4427c0084fd2f0055
:101f80000f02420005f27e000004be00e00f500088
:101f9000e08f5800020032000d00e000efff3c002f
:101fa0004fcdde008a057800089ebe000a96be006e
:101fb00030003700e00f5400e08f5c00e00f5d0060
:101fc000e08f5d0004003a005c0890008d01200065
:101fd0000000e000090032006172b900612bb90015
:101fe0000800be000a01be00b6fb07000fba97004a
:101ff00064427800f4ef9f007d0120006172b90017
:10200000612bb9000800be000a01be00a6fb070054
:102010000d0037006172b900612bb9000800be00e5
:102020000a01be00abfb07008d06e90000f2b90013
:10203000040454008fba970065427c0085fd2f0090
:102040008f82420084f27e00009ebe000296be0097
:102050003c04be002c05be00e00f5400e08f5c0085
:10206000e00f5d00e08f5d00020034000d00e00035
:10207000e8ff3c00e80f570010003a000c109000f9
:102080000038a3000d003200f78f560006003e0016
:1020900085fd2f008f824200e5c07e0000c3b300a3
:1020a00080cf5000050032008d06e90002c3b30066
:1020b00081fd2f008f80400082f07e007881160025
:1020c000120e98006c00900083fd2f008f8141005c
:1020d0008d804100defc07001c089000dc089000a9
:1020e000810f500006003d0000805000000e980057
:1020f0000c1090000040a100001698000f0037005f
:102100000100e0000d003d008c109000f4806000a4
:10211000f08f500009003a007c099000fc0090000c
:10212000810051000c099000828050000080500016
:102130004240a90001003400000e98004f077800cb
:102140004f06be004f05be004f04be00cf01b100d8
:10215000000006000400fa00889fbe008a9fbe00af
:102160008c1f78000004780001067800f80d9000bc
:102170007800900080855500080890008085550003
:10218000180890008085550028089000808555002b
:1021900038089000808555004808900080855500db
:1021a0000002220090bf9f0000032300a0bf9f00f9
:1021b000081090000028a30015003a000b00e00072
:1021c000130034000b0578008a047800e20f5500f4
:1021d0000100360029002000c801900009017800a4
:1021e000ee80570058009000030001005004980052
:1021f0000000e0008c0032006808900009004000f8
:10220000600c9800090555004240a900eeff3c0013
:10221000780190000200e0000c003400c80190003a
:102220008c007800580090000300010050049800d2
:102230008080eb000000e0007c003200e8089000a5
:102240007800900000804000600c9800880c90009e
:102250000900e0001100340009057800e28f540005
:10226000010036002a002000c80190000a01780011
:10227000ec805700580090000300010050049800c3
:102280000000e00068003200680890000a0040008a
:10229000600c98008a845400edff37001809900004
:1022a0000200e0000c003400c8019000e80090003b
:1022b0005800900003000100500498008080eb005b
:1022c0000000e00059003200e80890001808900073
:1022d00000804000600c9800a80c90000900e0000d
:1022e0001100340009057800e28f54000100360027
:1022f0002a002000c80190000a017800ec805700f5
:102300005800900003000100500498000000e00015
:1023100045003200680890000a004000600c9800f8
:102320008a845400edff3700380990000200e00075
:102330000e003400e80090001808900080804000f3
:10234000c80190005800900003000100500498005c
:102350008080eb000000e00034003200e8089000cc
:102360003808900000804000600c9800c80c900075
:102370000900e0001100340009057800e28f5400e4
:10238000010036002a002000c80190000a017800f0
:10239000ec805700580090000300010050049800a2
:1023a0000000e00020003200680890000a004000b1
:1023b000600c98008a845400edff370008109000ec
:1023c0008000eb000028a300180032000b00e000a2
:1023d000160034008b04780009057800e28f540061
:1023e000010036002a002000c80190000a01780090
:1023f000ee80570058009000030001005004980040
:102400000000e00008003200680890000a00400068
:10241000600c98008a8454004240a900eeff3c0002
:102420008000eb00010037008080eb0001007800a5
:102430004f0678004f05be004f04be000080fa0032
:1024400000000600010878000000060000c0da0065
:102450000000060000c0da0000000600839f68004c
:102460000100e00002003d0060001000e080180064
:102470000300e00002003d0060011100e08119004e
:10248000050007004f00e00002003b006000100064
:10249000e0801800000006006022b800060220005c
:1024a0000000d0008180d2000482d2008582d20058
:1024b0000000a0000202520083825a000300310093
:1024c0000202420083824a000000a1000603e900e4
:1024d000f3ff3a0000000600efff07000400be0013
:1024e00000000600020ab900001bb9000200b80093
:1024f0008100420081004300000006006200fa00f3
:10250000889fbe008a1f780000057800810478004b
:10251000020478008300780080f92f000f0040004b
:10252000c8ff07009a979f00a9979f000000eb0043
:10253000b09f9f001885fb008a04fb000a05ea0093
:102540004f55de0050022000808f54000d003200f5
:10255000e10f55000b003a000a017800880078006e
:102560002f9097009f91970003000100a0979f0074
:102570000000e0008e0032003f9897000000e80065
:10258000b09f9f000a04440050022000808f540036
:10259000040032000900e000e6ff3a003f9897008f
:1025a000840037000000eb00909f9f00809f9f00f9
:1025b000f0979f00e0979f00d0979f00c0979f00e3
:1025c0000700370021a0200001005000000040005b
:1025d000619f200061007800df9897000100700083
:1025e000d09f9f008804780009047800384578005f
:1025f0008a00fb0020a0200091fd07000000e00001
:10260000f0ff3a00a1c2b300814f55000e003a001e
:10261000cf8897000180e900c08f9f0010007800ec
:10262000c09f9f000000e00005003d000000ea00a0
:10263000c09f9f005f9897000020a000d09f9f0040
:102640000904e8000f003700c09f9f000000eb0066
:1026500005003700f2ff2700820f50000200320011
:102660006a01b900028040000904780088047800fb
:10267000b900fb000103b100e98f5000f5ff3600ff
:10268000c09f9f00e0c2b300984f100002003200cc
:102690000080eb0019003700a0c2b300d84f100033
:1026a00007003a00cf8897000180e900c08f9f00a3
:1026b00010007800a09f9f000804e8001000370079
:1026c0000000eb00a09f9f00880078000500370005
:1026d000f3ff2700830f5000020032006a02b900a6
:1026e0000400410001047800880078003101fb00fb
:1026f0000203b100e90f5100f5ff3600a09f9f00d3
:10270000984478008900fb00e09e20004cfd070003
:102710000000e000020032000804e8000100370079
:102720008044eb00c97f9f0080c6b30080cf540077
:1027300004003a0098cf14000a003a0066405000a6
:1027400006003700c0c6b30080cf540005003a0031
:1027500098cf140003003a0065404000c07f9f00fe
:102760000804e8001801fb00e3fb2f008f81410003
:1027700081f92f008f804000a0f92f000f0040004a
:10278000100007000000e00009003a00e1fb2f0004
:102790008f804000a0f92f000f0040006dfe070061
:1027a0000000e000020035000804e80061ff370087
:1027b0000080eb004f0578004f04be000080fa0057
:1027c00000000600889fbe008a1f78000004780081
:1027d000e0c6b300804f5100c100320015003c003c
:1027e0006b405000804f5100240032000a003c0032
:1027f00070405000804f5100fa00320065404000a8
:10280000804f51006800320050c2b300804f510029
:102810000b013a000701370040c6b300804f51005a
:102820001b00320065404000804f510004013a0017
:102830001700370030c7b300804f5100e900320065
:1028400007003c0064405000804f510056003200a9
:102850000040e800804f5100f9003a00d3003700f3
:1028600050c7b300804f51004f003200634040001a
:10287000804f5100f2003a004b0037001181e9000f
:10288000820878007800900012417800ea00370052
:1028900028609000c4c6b300844f500007003a007f
:1028a0001102780064005200800878001002be0017
:1028b0004fabde00860378001100370014c7b30069
:1028c000844f500003003200a4c6b300844f500070
:1028d00006003a0011027800680052008008780073
:1028e0003002be002003be00050037001180e90061
:1028f0008008780010027800cfa2de00612bb900ba
:10290000049cbe000694be002860900081c6b300ff
:10291000814f50000d00320021c6b300814f50009e
:1029200004003a000402fb00cfa2de00612bb900d4
:102930000800370041c7b300814f50000300320048
:10294000e6c04000814f500004003a00cfa2de00f4
:10295000612bb900049cbe000694be003802be0084
:102960002803be0078009000d1c2b300e00f5200ef
:10297000e08f5a00e00f5b00e08f5b00080035003d
:10298000881090000118a30002003200b1c2b30009
:10299000030037000108a3004c00320001c2b3005d
:1029a000817178004700370028609000c4c6b300ea
:1029b000844f500006003a00110278006400520073
:1029c000800878001002be006033b80011003700a4
:1029d00014c7b300844f500003003200a4c6b300f4
:1029e000844f500006003a0011027800680052003f
:1029f000800878003002be002003be0005003700ca
:102a00001180e90080087800100278008002eb0055
:102a10006033b800049cbe000694be00286090009d
:102a200081c6b300814f50000d00320021c6b300b3
:102a3000814f500004003a000482fb008002eb004a
:102a40006033b8000800370041c7b300814f500021
:102a500003003200e6c04000814f500004003a00fd
:102a60008002eb006033b800049cbe000694be00f8
:102a7000081090000038a300140032003802be0095
:102a80002803be00e00f5200e08f5a00e00f5b0009
:102a9000e08f5b000d00320080c7b300804f510013
:102aa0000300320080c5b300804f510007003a0098
:102ab0007800900001c3b300817178000000e80045
:102ac000827178000000e80070049800780090009f
:102ad0008081410063049800824078003e00370006
:102ae00028619000c3c6b3001180e900834f5100f4
:102af000220032000a003c00e4c15100834f510023
:102b00002500320083c1e800834f510013003200da
:102b1000e8c15100834f51001e003a000a003700ff
:102b200043c7b300834f51001b003200e6c1410090
:102b3000834f510018003200e9c15100834f51000a
:102b400014003a0005003700800878001000780073
:102b5000485c900008487800410037008008780001
:102b600010007800680a9000cfa2de00612bb90047
:102b70000498be000690be00390037008008780037
:102b80001000780068099000cf91de000288be0036
:102b9000330037001180e9008008780010007800c9
:102ba000680c9000080878002d0037001180e900bb
:102bb0008008780010027800cfa2de00612bb900f7
:102bc000049cbe000694be00780090008081410005
:102bd0006304980081c7b300080078002efc07004a
:102be0001f0037001180e900800878001005780088
:102bf0006a049800d80c90000900e00004003d0031
:102c00000a00780019fa07008004780007003700ee
:102c1000090178008000eb000a007800fefb070045
:102c20000000e000010032008a045000190c9800f6
:102c30000b003700780090008271780006003700a2
:102c400078009000808141000204e00001003a0019
:102c500052c2b300824978000000e8007004980076
:102c60000000eb004f0578004f04be000000060096
:020000040000fa
:102c7000022d0000544e000090f00000fffe000006
:102c80000a3200000a000000537400006172000064
:102c900074200000616c00006c200000746500006e
:102ca00073740000732e00002e2e0000000d000033
:102cb000004100006c6c000020740000657300008f
:102cc00074730000207300007563000063650000ea
:102cd000656400006564000000530000746100003a
:102ce000727400002074000065730000742c0000f2
:102cf00020690000642000003d20000025640000e1
:102d00002e2e00002e0000004461000074610000bf
:102d1000206d0000656100006e2000003d20000075
:102d20002564000000530000657200006961000026
:102d30006c200000746500007374000020730000b4
:102d40007563000063650000656400006564000051
:102d5000005300006c6500006570000020660000f4
:102d60006f720000203100002073000065630000d6
:102d70006f6e000064000000507200006f6300007e
:102d800065730000736900006e6700002063000037
:102d90006f6d0000706c000065740000650000003d
:102da000507200006f6300006573000073690000db
:102db0006e67000020660000616900006c6500001d
:102dc00064000000536c000065650000706900003d
:102dd0006e670000204d0000435500002e2e0000bd
:102de0002e00000052610000646900006f200000a6
:102df000776f00006b6500006e000000496e0000f8
:102e0000746500007272000075700000742000008c
:102e10006e6f000074200000667200006f6d00008d
:102e20002072000061640000696f000020770000dc
:102e3000616b0000650000005261000064690000e1
:102e40006f200000736800006f72000074200000a3
:102e5000726500006164000020730000756300006b
:102e60006365000073730000667500006c0000006d
:102e700052610000646900006f2000007368000068
:102e80006f72000074200000726500006164000031
:102e900020660000616900006c65000064000000ad
:102ea00052610000646900006f2000006c6f000038
:102eb0006e67000020720000656100006420000061
:102ec00073750000636300006573000073660000a3
:102ed000756c00000052000061640000696f000022
:102ee000206c00006f6e000067200000726500001b
:102ef0006164000020660000616900006c650000ec
:102f0000640000005761000069740000696e0000f1
:102f100067200000666f00007220000072610000f0
:102f2000646900006f200000746f000020770000cb
:102f3000616b0000652000006166000074650000a0
:102f4000722000007e2500006c7500006d7300008b
:102f50002e2e00002e0000004e6f00002073000097
:102f60007563000068200000746500007374000041
:102f70002c20000069640000203d00002025000096
:102f800064000000546500007374000020730000aa
:102f900075630000636500006564000065640000ff
:102fa0002c20000069640000203d00002025000066
:102fb000640000006d680000722000006c65000075
:102fc0006e67000074680000203d000020250000ae
:102fd000640000000d00000070610000796c0000ca
:102fe0006f610000642000006c6500006e670000e7
:102ff0007468000020620000697400007320000003
:103000002862000079740000657300002920000028
:103010003d200000256400002028000025640000f9
:1030200029000000746f0000746100006c20000033
:103030006c6500006e67000074680000203d0000b1
:103040002025000064000000546f0000746100003f
:103050006c2000006c6500006e6700007468000062
:10306000207400006f6f000020620000696700009c
:10307000212000004d610000786900006d7500009e
:103080006d2000006973000020250000640000002e
:10309000556e00006b6e00006f7700006e20000020
:1030a000776f00007264000020730000697a0000ee
:1030b000653a00002025000064000000257500002e
:1030c0002054000058000000257500002052000028
:1030d0005800000052580000207000006179000084
:1030e0006c6f0000616400003a2000006d68000011
:1030f000722000003d2000005b00000030780000de
:10310000252e0000325800002c2000000030000066
:10311000782500002e320000585d0000002d0000d0
:1031200020700000617900006c6f00006164000095
:10313000206500006c6500006d6500006e74000085
:1031400020250000752000002d00000069640000ab
:10315000203d00002025000063000000776f000084
:1031600072640000206c0000656e0000677400004f
:10317000682000003d20000025750000006e000062
:10318000756d000062650000722000006f6600002f
:10319000207700006f72000064730000203d000083
:1031a00020250000750000006461000074610000cb
:1031b000203d0000200000003c2500002e320000d1
:1031c000583e0000006400006174000061200000af
:1031d00025750000203d000020250000750000003e
:1031e000646100007461000020250000752000006b
:1031f0003d200000256c00007500000064610000a7
:103200007461000020250000752000003d200000b2
:10321000256c00006c750000004600004353000060
:10322000482000003d20000030780000252e0000de
:103230003258000000460000435300004c200000bc
:103240003d20000030780000252e0000325800009c
:10325000004c000051490000203d000020250000e6
:10326000640000005253000053490000203d00005c
:103270002025000064000000526100006469000025
:103280006f200000736c0000656500007020000076
:10329000636c00006f6300006b200000636100003e
:1032a0006c6900006272000061740000696f0000c8
:1032b0006e200000646f00006e6500002c2000008e
:1032c000534c0000504300004c4b000020700000a5
:1032d00065720000696f0000642000003d2000005e
:1032e000256c0000756e0000730000000d000000ea
:1032f000736c000065650000704300006c6f000097
:10330000636b000043790000636c0000657300008c
:10331000203d0000202500006c75000000540000d6
:10332000582000007375000063630000657300009f
:1033300073660000756c00002c200000534e0000e6
:10334000203d000020250000642c000020540000d7
:103350005853000054410000542000003d2000005c
:1033600030780000252e0000325800000054000084
:103370005820000066610000696c00006564000070
:103380002c200000534e0000203d000020250000ae
:10339000642c0000205400005853000054410000e9
:1033a000542000003d20000030780000252e000051
:1033b0003258000000540000584e000046490000fa
:1033c000464f0000203d000020220000003c00008d
:1033d000252e0000325800003e0000002578000035
:1033e0003d250000780d00000a000000626f00001b
:1033f0006172000064200000696e000069740000c2
:10340000206400006f6e0000650000000d000000e9
:1034100072610000646900006f200000696e0000a6
:1034200069740000206400006f6e000065000000f9
:103430005465000073740000696e0000672000008e
:10344000636f00006d7000006c6500007465000023
:103450000054000065730000746900006e6700008e
:1034600020660000616900006c65000064000000d7
:103470005465000073740000696e0000672000004e
:10348000736b00006970000070650000640000004c
:103490004d6f0000746500002049000044200000ca
:1034a0003d200000257500002c2000006164000014
:1034b0006472000065730000732000003d2000006e
:1034c00030780000252e000032580000252e000024
:1034d0003258000000520000582000006d6f0000bc
:1034e0006465000000540000582000006d6f00006b
:1034f000646500000052000061640000696f000014
:10350000207700006f6b00006520000075700000e0
:1035100000000000736c0000617600006520000070
:103520006164000064720000206e000061630000ae
:103530006b0000000d000000636f00006d6d000067
:10354000616e0000642000006e610000636b00008b
:043550000000000077
:020000040000fa
:103554000200fa002408a90010c3b3006f01070099
:10356400004f78001e80fb006800600000f0a70098
:103574000000ea000000ea004f00de00004078008e
:103584006140600000404000428220001241780007
:10359400d1cfb3008140610000c0700024e8b700bf
:1035a4009e40780061c0600061406000614060003e
:1035b400e1406000200020000008dd00428220007d
:1035c40012417800b1cfb3008140610000c07000a7
:1035d40024e8b7009e80fb00000420000080600007
:1035e40000f0a7000000ea000000ea004f00de003f
:1035f40000407800e1406000300020000008dd0059
:10360400428220001241780071cfb30081406100f2
:1036140000c0700024e8b7000080fa000000060033
:103624000000fa0090222000230107000074a0008b
:103634008040780090222000510107000080fa00a9
:10364400000006000c00fa00889fbe008a9fbe009e
:103654004007980051079800b02020001601070089
:103664000044a00080407800b020200044010700fe
:1036740010002000cf0f070000000000b020200041
:103684000d0107000004e000fcff3d00b020200015
:10369400090107000081fb008001eb00f00020001d
:1036a4000100200002027800030178008001780004
:1036b4000100780003026200000061008000eb005a
:1036c400c000dd00000020000001be006120b80041
:1036d4000001710081817100c014dd000800200028
:1036e400a0202000f40007000081fb008001eb0013
:1036f4004818dd00c810de00810070004810dd00ad
:10370400000474008184740090202000ea00070003
:103714000080fb008000eb00001f74000197740020
:103724009e009000200320000088b900000178006a
:103734001e0078006000b90000007800000141001c
:103744009e007800200320000008b8000101410019
:10375400820078004c09dd004400de0000007100a6
:10376400c408de00008fbe001e00be00809fbe00a5
:10377400c0932900801f78000ff80700e6875700e0
:10378400609729007df607004e009000de0090004f
:103794006011b80004242400f50020006033b80050
:1037a40029f607000205be000004be001e00be008c
:1037b4006011b8000203be000002be000800be0093
:1037c4000a01be00b7f507002007980031079800ea
:1037d4002e009000be009000809fbe0080972900bc
:1037e400801f7800f4f70700e687570060972900e8
:1037f40062f6070090222000af000700c1cfb3009b
:10380400014160002e009000be0090004808de00d8
:103814000040780063406000004071008040780000
:1038240090222000d60007002e009000be009000d9
:103834004008de00004078008040780080222000ac
:10384400cf0007002e009000be0090004809dd0064
:103854004800de0000007100c808de000040780067
:103864008040780070222000c50007002e009000e0
:10387400004078008040780060222000c0000700eb
:103884004f05be004f04be000080fa000000060091
:103894000000fa00b0c1b300a00007000004a000bb
:1038a40080407800b0c1b300ce0007001ac8bf0042
:1038b4000040e8001ae8b7000080fa0000000600a3
:1038c4000400fa00100798000040eb00004f780055
:1038d4001e80fb00a193200012c4b3008270780004
:1038e4001e4fe8001e80fb00a193200082c8b30095
:1038f400827078001e4fe8001e80fb00a281200029
:1039040012417800a1932000827078001e4fe800d5
:103914001e80fb00a193200000c1eb0082707800a0
:103924001e4fe8001e80fb00a193200000c1eb00a5
:10393400827078001e4fe8001e80fb00a1932000d7
:1039440000c1eb00827078001e4fe8001e80fb006f
:10395400a193200000c1eb00827078001e4fe800a4
:103964001e80fb007282200012417800a193200087
:10397400827078001e4fe8001e80fb0062822000e7
:1039840012417800a1932000827078001e4fe80055
:103994001e00900010007800000178008000e8000c
:1039a4001e0090000108780091c0b3000200780066
:1039b40073000700c0408000804078001e00900023
:1039c40010007800000178008001e8001e009000db
:1039d4000308780002007800690007000040eb004b
:1039e400004f78000c0037001e80fb00a1932000dc
:1039f400e14078001e4fe8001e009000100078009f
:103a0400000178008001e8001e009000030878009f
:103a1400020078005a0007001e407800e84f50006a
:103a2400f1ff36000080fa00000006000200fa00f0
:103a340040c2b30039000700004f78001e80fb002d
:103a4400610060000000e0000d003a009e80fb0071
:103a54001ac8bf000080fb000000e900811f780045
:103a6400801f7800f0982900801f780052f7070023
:103a7400e687570060972900c0f507000c0037005f
:103a84009e80fb001ac8bf000080fb000000e90014
:103a9400811f7800801f7800709b2900801f7800a8
:103aa40045f70700e687570060972900b3f507003c
:103ab4000080fa00000006000400fa0010079800d5
:103ac400b00480004400de006140600010479800ac
:103ad4009680a9008f41a9001e0090009608070057
:103ae400004f78008f41a8001e40900061406000a4
:103af4000080fb00610060004400dd00b20480002f
:103b0400f1fe2f008100610001007000b004880004
:103b14001e4078000080fa00000006000400fa004d
:103b240020479800b00480004400de00614060003b
:103b3400104798009680a9008f41a9002e4090005c
:103b440026080700004f78008f41a8001e4090000f
:103b5400614060000080fb00610060004400dd0003
:103b6400b2048000f1fe2f008100610001007000aa
:103b7400b00488001e4078000080fa0000000600af
:103b84000600fa001007980041479800b00480002e
:103b94004400de0061406000004f78009680a90078
:103ba4008f41a900ce4090001e009000a20807009b
:103bb4008f41a8001e407800614060000080fb0037
:103bc400610060004400dd00b2048000f1fe2f00bb
:103bd4008100610001007000b00488000080fa00d8
:103be400000006000400fa002047980031479800be
:103bf400b00480004400de0061406000004f7800a3
:103c04009680a9008f41a900be4090002e409000ec
:103c14001c0807008f41a8001e4078006140600026
:103c24000080fb00610060004400dd00b2048000fd
:103c3400f1fe2f008100610001007000b0048800d3
:103c44000080fa00000006000000fa0061ceb30014
:103c540020c3b300e3ff07000080fa000000060061
:103c64000000fa0041c0b300a0c2b300ddff0700aa
:103c74000080fa00000006000000fa0021c0b30032
:103c8400a0c2b300d7ff07000080fa0000000600be
:103c94000000fa0011c0b300a0c2b300d1ff0700b6
:103ca4000080fa00000006000200fa0060c3b300be
:103cb4009aff0700004f78001e4078000024a000ff
:103cc4008040780060c3b300c6ff0700b0cfb300e4
:103cd4001e4060008040780060c3b300c1ff07004d
:103ce40020002000450e07000080fa0000000600b6
:103cf4000000fa00b0c1b30088ff07000080fb0099
:103d04004480de0000407800614060000080fa00da
:103d1400000006000000fa00d0c0b3007fff0700d7
:103d24000004a00080407800d0c0b300adff0700bd
:103d34000080fa00000006000200fa00000f78007c
:103d44001e0078004400dd00004078003040b300dd
:103d5400804078000020200089ff0700d2ff070080
:103d64000080fa00000006000400fa0020479800d2
:103d740000c2b300004f78002e4090000004a2005f
:103d84000004e000020032001e14a000010037000d
:103d94001e04a0009e4078000040eb0091ff070045
:103da4000080fa00000006000000fa000040eb006a
:103db4005aff07000034a000804078000040eb0068
:103dc40088ff07000080fa00000006000000fa00e7
:103dd4000040eb0051ff070071cfb30001406000c9
:103de400804078000040eb007eff07000080fa006e
:103df400000006000200fa00000f78001e007800a0
:103e0400104078008040780010c0b30075ff0700b0
:103e14001e00e800104078008040780020c0b30005
:103e240070ff07000080fa00000006000200fa009c
:103e3400000f78001e007800104078008040780061
:103e440030c0b30067ff07001e00e8001040780090
:103e54008040780040c0b30062ff07000080fa0091
:103e6400000006000200fa00000f78001e0078002f
:103e7400104078008040780050c0b30059ff07001c
:103e84001e00e800104078008040780060c0b30055
:103e940054ff07001e80e80010407800804078003e
:103ea40070c0b3004fff07009e007800638040009d
:103eb400104078008040780080c0b30049ff0700bc
:103ec4009e007800648040001040780080407800b4
:103ed40090c0b30043ff07009e0078006580400057
:103ee4001040780080407800a0c0b3003dff070078
:103ef4009e00780066804000104078008040780082
:103f0400b0c0b30037ff07009e0078006780400010
:103f14001040780080407800c0c0b30031ff070033
:103f24000080fa00000006000200fa00000f78008a
:103f34001e00780010407800804078008023200024
:103f44000fff07001e00e800104078008040780052
:103f5400902320000aff07000080fa0000000600fa
:103f64000200fa00000f78001e007800104078006c
:103f7400804078000023200001ff07001e00e800b5
:103f8400104078008040780010232000fcfe0700d9
:103f94001e80e80010407800804078002023200034
:103fa400f7fe07009e007800638040001040780010
:103fb4008040780030232000f1fe07009e00780046
:103fc4006480400010407800804078004023200046
:103fd400ebfe07009e0078006580400010407800ea
:103fe4008040780050232000e5fe07009e00780002
:103ff40066804000104078008040780060232000f4
:10400400dffe07009e0078006780400010407800c3
:104014008040780070232000d9fe07000080fa0059
:10402400000006000800fa002007980031079800f5
:10403400b00480004400de00614060002047980026
:104044009680a9008f41a90011c0b3002e009000f2
:10405400790707000000eb00000f78000600370026
:104064001e007800be0090000080400010407800e0
:10407400c50607001e0fe8001e007800ef0f500071
:10408400f7ff34008f41a8002e409000614060008b
:104094000080fb00610060004400dd00b204800089
:1040a400f1fe2f008100610001007000b00488005f
:1040b4000080fa00000006000000fa008f61a900e9
:1040c400401f20004d0d07008f61a800401f2000f5
:1040d4004a0d07000080fa00000006000000fa0004
:1040e4008f41a8008f81a800f3ff070081c9b300a6
:1040f40080c1b300bbfe070051c9b300e0c2b300e6
:10410400b8fe070031c0b300002020009cfe070069
:1041140011c0b3001020200099fe070001c8b300ad
:104124002020200096fe070001c9b3006020200073
:1041340093fe070001c8b3007020200090fe070022
:1041440001c1b300802020008dfe070011c2b3001e
:10415400002220008afe070001c8b300a0c3b300f8
:10416400a0fe070001c6b300f0c3b3009dfe070024
:1041740001c4b300e0c3b3009afe070000c1b3005a
:1041840066fe070001cfb300014070008040780054
:1041940000c1b30093fe070010c1b3005ffe070027
:1041a400f1cdb300014060008040780010c1b3003d
:1041b4008cfe0700002220003ffe070080407800ac
:1041c40000ccb30080c0600010c2b30000c0700017
:1041d400804078000022200069fe070031c4b3004b
:1041e4002022200066fe070050c3b3004bfe0700e8
:1041f4008040780000c8b30080c0600020c4b300d1
:1042040000c070008040780050c3b30075fe070002
:1042140061cbb30020c3b30072fe070041c0b300fa
:1042240060c3b3006ffe0700800c2000e10c0700a0
:104234008040eb0060c3b3006afe0700800c2000de
:10424400dc0c07000080fa00000006000200fa00ff
:1042540001c8b30020c2b30062fe070050c3b3001c
:104264002efe0700004f78008f81a9007cfe070016
:104274001e4078000074a0008040780050c3b30052
:1042840058fe07000080fa00000006000000fa0053
:104294008f81a80084fe07000080fa000000060059
:1042a4000c00fa0020079800310798004207980094
:1042b40053079800be0090004e009000808040009c
:1042c4005e009000008f4000b0c1b30013fe0700f1
:1042d40020479800ae409000d0cfb30000c06000eb
:1042e40020479800ae409000b0cfb30000c06000fb
:1042f400204798002e009000104078000080fb00ba
:104304004300de00004078000080fb006100600094
:10431400004078000004e000030032002e409000ca
:104324000014a000204798002e0090001040780050
:104334000080fb004500de00004078000080fb00a8
:1043440061006000004078000004e00003003200d7
:104354002e4090000024a00020479800b004800064
:104364004400de0061406000304798009680a90058
:104374008f41a9003e009000004078008040780002
:104384000000eb00ac0607001e0078000040780037
:10439400fd050700060037002e009000104078004d
:1043a400ae0090008100e80021079800f6050700a0
:1043b40010c0b3009e0078000100e00001003c0042
:1043c4000040eb001e0fe9000004e000f2ff3a0099
:1043d4008f41a8003e409000614060000080fb00d7
:1043e400610060004400dd00b2048000f1fe2f0093
:1043f4008100610001007000b00488000080fa00b0
:10440400000006000200fa00004f780011479800ef
:104414001e80fb00670060004300dd0080407800e0
:104424001e4090006740600000c07000804078002b
:10443400c0c2b300ebfd07000080fa0000000600d4
:104444000200fa0000c3b300b4fd07000080fb00c3
:104454004280de006100600000f0a7000000ea0076
:104464000000ea004f00de00004f78008040eb00bf
:1044740000c3b300dbfd07001e4078000080fa0093
:10448400000006000400fa0020479800c0c2b300f0
:10449400a2fd0700004f78002e4090000004e000c9
:1044a4000200320000c4b3000100370000c8b300aa
:1044b4009e40780001407000004f78009e407800d4
:1044c400c0c2b300c7fd07000080fa000000060068
:1044d4000200fa0040c2b30090fd0700004f7800cc
:1044e4001e80fb0061006000004078000004e000d2
:1044f400090032009e80fb00000220000080600062
:104504000000e00002003200200020000300370019
:1045140010002000010037000000eb000080fa00ca
:10452400000006000e00fa004007980051079800aa
:104534006207980090c3b30078fd07000024a00030
:104544008040780090c3b300a6fd0700b00480004b
:104554004400de0061406000604798009680a90036
:104564008f41a90000302000f30507000080fb0004
:10457400100798000000eb00000f780007003700d8
:104584006e050700ce009000804878004e00900031
:104594000000e800400798001e0fe8001e0090008d
:1045a4009e007800808f5000f5ff390063050700f6
:1045b4004047980061050700504798005e0090004e
:1045c4000000e000030032005e009000ce40900046
:1045d400014878006e0090000000e0000300320003
:1045e4006e009000de409000014878008f41a800e2
:1045f4006e409000614060000080fb00610060003c
:104604004400dd00b2048000f1fe2f00810061004f
:1046140001007000b0048800befd070090c3b30021
:104624003efd0700b1cfb300014060008040780038
:1046340090c3b3006bfd07001e0090000080fa00d9
:10464400000006000400fa000000eb00000f7800f0
:1046540010c3b30031fd0700204798002e4090009e
:104664000080fb00680060000000e00001003200f0
:104674001e00a0002e4090000080fb00610060003e
:10468400004078000004e000010032001e10a00089
:104694002e4090000080fb00700060000000e000ed
:1046a400010032001e20a0001e0078000080fa00e5
:1046b400000006000400fa00b09d2900801f780065
:1046c4003df407008f87e9000000eb00000f78003d
:1046d4002b0037001e007800f7fc070020479800e5
:1046e400ae409000f0c2b30080cf5000040036000a
:1046f400ae40900090c3b30080cf50001400360049
:10470400ae40900000c6b30080cf500004003600d5
:10471400ae409000a0c7b30080cf50000c0036001c
:10472400ae40900000c4b30080cf500004003600b7
:10473400ae409000a0c5b30080cf50000400360006
:10474400ae40900000c2b30080cf500004003a0095
:104754002e4090000080fb0086f20700070037001f
:104764002e4090000080fb00801f7800709e29007e
:10477400801f780010f40700e48757001e0fe8003c
:10478400c0408000660040009e0f5000d1ff3e00f4
:104794002002200077f207006097290077f20700d3
:1047a4000080fa00000006000200fa000000eb009e
:1047b400000f780013003700f00320009e007800fb
:1047c400808f500005003e001e00780000407800f5
:1047d400d2fc07000080fb00030037001e007800b5
:1047e400b5fc07000080fb00801f78009e1f780046
:1047f400e09e2900801f7800eff30700e68757004a
:104804001e0fe800f00320009e007800808f500007
:10481400e9ff360000202000000f78001300370065
:10482400f00320009e007800808f500005003e00b9
:104834001e00780000407800b8fc07000080fb00f0
:10484400030037001e0078009bfc07000080fb007b
:10485400801f78009e1f7800e09e2900801f78004a
:10486400d5f30700e68757001e0fe800c024200098
:104874009e007800808f5000e9ff36000080fa0027
:10488400000006000200fa00a0a22000e1c6b30066
:104894000148780051518000f0cf2f000080600063
:1048a4005051880051518000f03f2000008060008a
:1048b40050518800a081200060518800e0a22000af
:1048c40011c6b3000148780071518000f0cf2f0069
:1048d400008060000080a000705188007151800049
:1048e400f03f20000080600070518800e0812000cb
:1048f4008051880020a3200081c6b30001487800bd
:1049040091518000f0cf2f0000806000905188000a
:1049140091518000f03f2000008060009051880099
:1049240000822000a051880060a3200041c6b3008b
:1049340001487800b151800000302000010070006f
:10494400b0518800b1518000f03f20000080600029
:1049540000a0a000b0518800a0a12000c051880090
:1049640000042000e04088000000eb00000f780005
:10497400180037001e007800c200dd00a0a220004d
:1049840000804000100078004a00de0000407800fb
:104994000080fb008000e8001e0078004201dd007a
:1049a400a0a2200000004100100078004800de00b2
:1049b400634060000080fb00630040000008dd00ed
:1049c40080007800e040800000804000e0408800e3
:1049d4001e0fe8001e007800e30f5000e5ff3600cc
:1049e400e04080004300de0069004000c0408800d1
:1049f40090002000801f7800a07d2900801f78008f
:104a04006df30700e4875700a07e2900dbf107005f
:104a1400e0408000c300de00e0408000811f780099
:104a2400801f7800c07e2900801f780062f3070091
:104a3400e6875700a07e2900d0f10700c04080001f
:104a4400801f780020812900801f78005af3070016
:104a5400e4875700a07e2900c8f10700c140800008
:104a6400d0072000808f500009003600d0072000b6
:104a7400801f780040822900801f78004ef30700d1
:104a8400e4875700a07e2900bcf10700950a0700bf
:104a94000080fa00000006000000fa006109070027
:104aa400f04088000b09070020e8b7000080fa00f6
:104ab400000006000800fa000000eb003007980030
:104ac400660047007efb07000000eb00000f780043
:104ad400f70037001e007800c200dd00a0a220000d
:104ae40000804000100078004a00de00004078009a
:104af4000080fb000000e800200798001e007800fa
:104b0400c200dd00a0a22000008040009040780098
:104b14003e009000000178000000e8003007980093
:104b24000200780016fc07001e007800c200dd00b9
:104b3400a0a2200000804000100078004800de00a1
:104b4400634060000080fb004600dd008040780088
:104b54001e0078004201dd00a0a2200000004100f8
:104b6400100078004a00de000040780000c07000a9
:104b7400804078003e009000000178000000e800ca
:104b84003007980002007800fdfb07000000eb00ee
:104b940010079800c10037001e007800c200dd0035
:104ba400a0a2200000804000100078004800de0031
:104bb400634060000080fb00e10f50008100320080
:104bc400e10f500003003c000000e00090003200c0
:104bd400a0003700e20f500054003200e30f5000f1
:104be4009c003a001e0078004200dd008080e8004e
:104bf400a0a220000080400010007800800078000f
:104c04001e0090004300dd00008040005001be0003
:104c14004000be004818de00804078003e0090004e
:104c2400000178000000e8003007980002007800d6
:104c3400d3fb07001e0078004200dd008080e800fe
:104c4400a0a22000008040001000780080007800be
:104c54001e0090004300dd00008040005001be00b3
:104c64004000be0003007800804078003e009000c1
:104c7400000178000000e800300798000200780086
:104c8400bffb07001e0078004200dd008080e800c2
:104c9400a0a220000080400010007800800078006e
:104ca4001e0090004300dd00008040005001be0063
:104cb4004000be004810de00481add00000072000b
:104cc400804078003e009000000178000000e80079
:104cd4003007980002007800a9fb07001e00780046
:104ce4004200dd008080e800a0a220000080400097
:104cf40010007800800078001e0090004300dd0062
:104d0400008040005001be004000be000200780058
:104d1400804078003e009000000178000000e80028
:104d2400300798000200780095fb07001e00780009
:104d34004200dd008080e800a0a220000080400046
:104d440010007800800078001e0090004200dd0012
:104d5400008040001000be004808de00804078005b
:104d64003e009000000178000000e8003007980041
:104d74000200780082fb07001e0078004200dd007c
:104d84008080e800a0a2200000804000100078008d
:104d9400800078001e0090004200dd00008040008a
:104da4001000be004008de00804078003e00900005
:104db400000178000000e800300798000200780045
:104dc4006ffb07001e0078004200dd008080e800d1
:104dd400a0a220000080400010007800800078002d
:104de4001e00900000004000008040001000780089
:104df4004800de00804078003e009000000178000a
:104e04000000e80030079800020078005cfb07000f
:104e14001e0078004200dd008080e800a0a220008f
:104e24000080400010007800800078001e00900090
:104e340000804000904078003e009000000178001f
:104e44000000e80030079800020078004cfb0700df
:104e54000f0037001e007800c200dd00a0a2200071
:104e640000804000100078004800de0063406000cd
:104e74000080fb00801f780080842900801f780058
:104e84004df20700e4875700a07e2900bbf007001d
:104e94001e0090000000e800100798009e0090009b
:104ea4002e009000808f50003bff39001e0fe80059
:104eb4001e007800e30f500006ff36001ac8bf003a
:104ec4000080fb00801f7800e0852900801f7800a7
:104ed40039f20700e4875700a07e2900a7f00700f5
:104ee4000080fa00000006002800fa00889fbe0037
:104ef4008a9fbe008c9fbe000f06780090c3b3004b
:104f040006fb07000024a0008040780090c3b30093
:104f140034fb070000302000000f78001e007800ea
:104f24001e0fe800e4fa0700004f98000e489000b6
:104f34000080fb000080e900500798005e009000ac
:104f44001e004000600798000000eb001007980066
:104f54000a0037001e007800d7fa0700a28220005a
:104f64009e00900081004100804878001e0090005f
:104f74000000e800100798001e0fe8006e00900083
:104f84009e007800808f5000f2ff39001e007800e8
:104f94001e0fe800c8fa0700604f98001e00780052
:104fa4001e0fe800c4fa0700704f98001e00780036
:104fb4001e0fe800c0fa0700005798001e00780092
:104fc4001e0fe800bcfa070010579800c0822000aa
:104fd400104078000080fb00801f78004086290084
:104fe400801f78000af20700e4875700a07e29009a
:104ff40062f00700a0862900801f780004f20700f1
:105004008f87e9000000eb001007980020003700ac
:105014001e009000e70f50000e003e00a182200009
:105024001e00900000804000104078000080fb00cb
:105034009e0090008100e80011079800801f78000e
:10504400e0872900801f7800f1f10700e48757000a
:105054000f003700a18220001e0090000080400055
:10506400104078000080fb009e0090008100e80062
:1050740011079800801f780070882900801f78002d
:10508400e3f10700e4875700a07e29003bf0070006
:105094001e009000e80f5000ddff36000000eb001a
:1050a4002007980002023700ae009000811f7800ac
:1050b400f0882900801f7800d5f10700e4875700a5
:1050c400a07e29002df00700a18220001e00900080
:1050d40000804000104078000080fb009e0090009b
:1050e4008100e80011079800801f7800608a290079
:1050f400801f7800c6f10700e4875700a07e2900ce
:105104001ef00700a18220001e00900000804000d5
:1051140010427800245798001e0090000000e80018
:10512400100798002e5090000080fb004600de001f
:10513400004078000080fb00200f98002e50900063
:10514400f043b2000040e800605798002e08900039
:1051540063004000110020000008dd00801f78007b
:10516400e08a2900801f7800a9f10700e48757002e
:10517400a07e290001f007006e5090000080fb0023
:10518400801f7800f08b2900801f7800a0f10700b1
:10519400e4875700a07e2900f8ef07000000eb0029
:1051a400300798002e0890000000e0006f003a00dd
:1051b4000f007800000478006e5090008080fb009f
:1051c4008100e900410f98000080fb000000e80026
