:020000040000fa
:080000000002040000000000f2
:020000040000fa
:04000800740500007b
:020000040000fa
:04000c007405000077
:020000040000fa
:040010007405000073
:020000040000fa
:04001400740500006f
:020000040000fa
:04001800740500006b
:020000040000fa
:04001c007405000067
:020000040000fa
:040020007405000063
:020000040000fa
:04002400740500005f
:020000040000fa
:04002800740500005b
:020000040000fa
:04002c007405000057
:020000040000fa
:040030007405000053
:020000040000fa
:04003400740500004f
:020000040000fa
:04003800740500004b
:020000040000fa
:04003c007405000047
:020000040000fa
:040040007405000043
:020000040000fa
:04004400740500003f
:020000040000fa
:04004800740500003b
:020000040000fa
:04004c007405000037
:020000040000fa
:040050007405000033
:020000040000fa
:04005400740500002f
:020000040000fa
:04005800740500002b
:020000040000fa
:04005c007405000027
:020000040000fa
:040060007405000023
:020000040000fa
:04006400740500001f
:020000040000fa
:04006800740500001b
:020000040000fa
:04006c007405000017
:020000040000fa
:040070007405000013
:020000040000fa
:04007400740500000f
:020000040000fa
:040078006a05000015
:020000040000fa
:04007c007405000007
:020000040000fa
:040080007405000003
:020000040000fa
:0400840074050000ff
:020000040000fa
:0400880074050000fb
:020000040000fa
:04008c0074050000f7
:020000040000fa
:0400900074050000f3
:020000040000fa
:0400940074050000ef
:020000040000fa
:0400980074050000eb
:020000040000fa
:04009c0074050000e7
:020000040000fa
:0400a00074050000e3
:020000040000fa
:0400a40074050000df
:020000040000fa
:0400a80074050000db
:020000040000fa
:0400ac0074050000d7
:020000040000fa
:0400b00074050000d3
:020000040000fa
:0400b40074050000cf
:020000040000fa
:0400b80074050000cb
:020000040000fa
:0400bc0074050000c7
:020000040000fa
:0400c00074050000c3
:020000040000fa
:0400c40074050000bf
:020000040000fa
:0400c80074050000bb
:020000040000fa
:0400cc0074050000b7
:020000040000fa
:0400d00074050000b3
:020000040000fa
:0400d40074050000af
:020000040000fa
:0400d80074050000ab
:020000040000fa
:0400dc0074050000a7
:020000040000fa
:0400e00074050000a3
:020000040000fa
:0400e400740500009f
:020000040000fa
:0400e800740500009b
:020000040000fa
:0400ec007405000097
:020000040000fa
:0400f00018030000f1
:020000040000fa
:0400f400740500008f
:020000040000fa
:0400f800740500008b
:020000040000fa
:0400fc007405000087
:020000040000fa
:040100007405000082
:020000040000fa
:04010400740500007e
:020000040000fa
:04010800740500007a
:020000040000fa
:04010c007405000076
:020000040000fa
:040110007405000072
:020000040000fa
:04011400740500006e
:020000040000fa
:04011800740500006a
:020000040000fa
:04011c007405000066
:020000040000fa
:040120007405000062
:020000040000fa
:04012400740500005e
:020000040000fa
:04012800740500005a
:020000040000fa
:04012c007405000056
:020000040000fa
:040130007405000052
:020000040000fa
:04013400740500004e
:020000040000fa
:04013800740500004a
:020000040000fa
:04013c007405000046
:020000040000fa
:040140007405000042
:020000040000fa
:04014400740500003e
:020000040000fa
:04014800740500003a
:020000040000fa
:04014c007405000036
:020000040000fa
:040150007405000032
:020000040000fa
:04015400740500002e
:020000040000fa
:04015800740500002a
:020000040000fa
:04015c007405000026
:020000040000fa
:040160007405000022
:020000040000fa
:04016400740500001e
:020000040000fa
:04016800740500001a
:020000040000fa
:04016c007405000016
:020000040000fa
:040170007405000012
:020000040000fa
:04017400740500000e
:020000040000fa
:04017800740500000a
:020000040000fa
:04017c007405000006
:020000040000fa
:040180007405000002
:020000040000fa
:0401840074050000fe
:020000040000fa
:0401880074050000fa
:020000040000fa
:04018c0074050000f6
:020000040000fa
:0401900074050000f2
:020000040000fa
:0401940074050000ee
:020000040000fa
:0401980074050000ea
:020000040000fa
:04019c0074050000e6
:020000040000fa
:0401a00074050000e2
:020000040000fa
:0401a40074050000de
:020000040000fa
:0401a80074050000da
:020000040000fa
:0401ac0074050000d6
:020000040000fa
:0401b00074050000d2
:020000040000fa
:0401b40074050000ce
:020000040000fa
:0401b80074050000ca
:020000040000fa
:0401bc0074050000c6
:020000040000fa
:0401c00074050000c2
:020000040000fa
:0401c40074050000be
:020000040000fa
:0401c80074050000ba
:020000040000fa
:0401cc0074050000b6
:020000040000fa
:0401d00074050000b2
:020000040000fa
:0401d40074050000ae
:020000040000fa
:0401d80074050000aa
:020000040000fa
:0401dc0074050000a6
:020000040000fa
:0401e00074050000a2
:020000040000fa
:0401e400740500009e
:020000040000fa
:0401e800740500009a
:020000040000fa
:0401ec007405000096
:020000040000fa
:0401f0007405000092
:020000040000fa
:0401f400740500008e
:020000040000fa
:0401f800740500008a
:020000040000fa
:0401fc007405000086
:020000040000fa
:040208007405000079
:020000040000fa
:04020c007405000075
:020000040000fa
:040210007405000071
:020000040000fa
:04021400740500006d
:020000040000fa
:040218007405000069
:020000040000fa
:04021c007405000065
:020000040000fa
:040220007405000061
:020000040000fa
:04022400740500005d
:020000040000fa
:040228007405000059
:020000040000fa
:04022c007405000055
:020000040000fa
:040230007405000051
:020000040000fa
:04023400740500004d
:020000040000fa
:040238007405000049
:020000040000fa
:04023c007405000045
:020000040000fa
:040240007405000041
:020000040000fa
:04024400740500003d
:020000040000fa
:040248007405000039
:020000040000fa
:04024c007405000035
:020000040000fa
:040250007405000031
:020000040000fa
:04025400740500002d
:020000040000fa
:040258007405000029
:020000040000fa
:04025c007405000025
:020000040000fa
:040260007405000021
:020000040000fa
:04026400740500001d
:020000040000fa
:040268007405000019
:020000040000fa
:04026c007405000015
:020000040000fa
:040270007405000011
:020000040000fa
:04027400740500000d
:020000040000fa
:040278007405000009
:020000040000fa
:04027c007405000005
:020000040000fa
:040280007405000001
:020000040000fa
:0402840074050000fd
:020000040000fa
:0402880074050000f9
:020000040000fa
:04028c0074050000f5
:020000040000fa
:0402900074050000f1
:020000040000fa
:0402940074050000ed
:020000040000fa
:0402980074050000e9
:020000040000fa
:04029c0074050000e5
:020000040000fa
:0402a00074050000e1
:020000040000fa
:0402a40074050000dd
:020000040000fa
:0402a80074050000d9
:020000040000fa
:0402ac0074050000d5
:020000040000fa
:0402b00074050000d1
:020000040000fa
:0402b40074050000cd
:020000040000fa
:0402b80074050000c9
:020000040000fa
:0402bc0074050000c5
:020000040000fa
:0402c00074050000c1
:020000040000fa
:0402c40074050000bd
:020000040000fa
:0402c80074050000b9
:020000040000fa
:0402cc0074050000b5
:020000040000fa
:0402d00074050000b1
:020000040000fa
:0402d40074050000ad
:020000040000fa
:0402d80074050000a9
:020000040000fa
:0402dc0074050000a5
:020000040000fa
:0402e00074050000a1
:020000040000fa
:0402e400740500009d
:020000040000fa
:0402e8007405000099
:020000040000fa
:0402ec007405000095
:020000040000fa
:0402f0007405000091
:020000040000fa
:0402f400740500008d
:020000040000fa
:0402f8007405000089
:020000040000fa
:0402fc007405000085
:020000040000fa
:040300007405000080
:020000040000fa
:04030400740500007c
:020000040000fa
:040308007405000078
:020000040000fa
:04030c007405000074
:020000040000fa
:040310007405000070
:020000040000fa
:04031400740500006c
:020000040000fa
:040318007405000068
:020000040000fa
:04031c007405000064
:020000040000fa
:040320007405000060
:020000040000fa
:04032400740500005c
:020000040000fa
:040328007405000058
:020000040000fa
:04032c007405000054
:020000040000fa
:040330007405000050
:020000040000fa
:04033400740500004c
:020000040000fa
:040338007405000048
:020000040000fa
:04033c007405000044
:020000040000fa
:040340007405000040
:020000040000fa
:04034400740500003c
:020000040000fa
:040348007405000038
:020000040000fa
:04034c007405000034
:020000040000fa
:040350007405000030
:020000040000fa
:04035400740500002c
:020000040000fa
:040358007405000028
:020000040000fa
:04035c007405000024
:020000040000fa
:040360007405000020
:020000040000fa
:04036400740500001c
:020000040000fa
:040368007405000018
:020000040000fa
:04036c007405000014
:020000040000fa
:040370007405000010
:020000040000fa
:04037400740500000c
:020000040000fa
:040378007405000008
:020000040000fa
:04037c007405000004
:020000040000fa
:040380007405000000
:020000040000fa
:0403840074050000fc
:020000040000fa
:0403880074050000f8
:020000040000fa
:04038c0074050000f4
:020000040000fa
:0403900074050000f0
:020000040000fa
:0403940074050000ec
:020000040000fa
:0403980074050000e8
:020000040000fa
:04039c0074050000e4
:020000040000fa
:0403a00074050000e0
:020000040000fa
:0403a40074050000dc
:020000040000fa
:0403a80074050000d8
:020000040000fa
:0403ac0074050000d4
:020000040000fa
:0403b00074050000d0
:020000040000fa
:0403b40074050000cc
:020000040000fa
:0403b80074050000c8
:020000040000fa
:0403bc0074050000c4
:020000040000fa
:0403c00074050000c0
:020000040000fa
:0403c40074050000bc
:020000040000fa
:0403c80074050000b8
:020000040000fa
:0403cc0074050000b4
:020000040000fa
:0403d00074050000b0
:020000040000fa
:0403d40074050000ac
:020000040000fa
:0403d80074050000a8
:020000040000fa
:0403dc0074050000a4
:020000040000fa
:0403e00074050000a0
:020000040000fa
:0403e400740500009c
:020000040000fa
:0403e8007405000098
:020000040000fa
:0403ec007405000094
:020000040000fa
:0403f0007405000090
:020000040000fa
:0403f400740500008c
:020000040000fa
:0403f8007405000088
:020000040000fa
:0403fc007405000084
:020000040000fa
:10040000efad20000e7f22000e01880000000000ea
:10041000000020000000e000020032000001200087
:100420002002880014000700050207000000e00019
:1004300003003a0080bf24000100200002003700c2
:100440000000200001002000810f70000100320038
:1004500014000700000020000000e000020032004d
:100460000000020000000000263902000000000029
:100470000040da000000fe004440a9006057200060
:100480000000e000030032000020200090018800fe
:100490004440a800000006008a1f78008b1f7800e7
:1004a00000000600a1028800800478000000eb0034
:1004b0001f003700e284440054a0b4009905ba003c
:1004c000e284440054a0b4009906ba00e2844400d7
:1004d00054a0b4000006eb00476fde00fd07b20039
:1004e000ae018800636ce10003003a00eaff0700f8
:1004f0000000eb000e003700606ce10008003a00dd
:10050000004deb000a05e800020039003420ec0041
:100510000af0a0008b05e900f9ff3e000400370057
:100520006168e100010032000086eb000b0007006b
:1005300019c7ba001905ba000e04e00003003a001a
:100540000a00e000dbff3a0000000600fe07b200f0
:10055000ae0288008a047800f5ff37000cd0a300b3
:10056000e20f4d001c00390089027800354dba00b9
:100570000a05e800020039003420ec000af0a0006f
:100580008b05e9000f003200254dba000a05e8008e
:10059000020039003420ec000af0a0008b05e900cd
:1005a000080032000c00e0000600320015cdba0051
:1005b0000a05e800020039003420ec000af0a0002f
:1005c0008b05e9008984e80054a0b4000b00e0002a
:1005d000e2ff3a00000006009902ba00055d7800cb
:1005e0008b05e900f7ff3200c82ade00055d7800c0
:1005f0008b05e900f3ff32000c00e000f1ff320050
:1006000019ddba00eeff3700000000000000000016
:1006100000000000000000000000000000000000da
:1006200000000000000000000000000000000000ca
:100630003600f800809fbe00829fbe00849fbe00ef
:10064000869fbe000000fa008a40a900a117800022
:1006500000082000008060000000e0000800320078
:10066000f4e2a9002c28ef009041800020009000c7
:100670008000eb00010878003228ef000e013700ff
:10068000604180008000eb00b200200003002000e9
:10069000820f5000838f5800fd003e000060010073
:1006a0000b0037003a003700760037009d00370016
:1006b000f4003700c9003700da003700f1003700d6
:1006c000dc003700f20037003500370051003700fa
:1006d0004082200020009000620060000000e000e6
:1006e000f4003a0040822000100090009041880001
:1006f0004082200010009000104078002ee8b700e3
:10070000408220001000900010009000804188007e
:100710004082200010009000e6004000408220004f
:1007200011009800408220009000900020ab200033
:10073000808f500003003a0040822000c1aa2000b0
:10074000110098004082200020019000e1ff2f005e
:1007500081006100210098004082200090009000fc
:100760004082200010007800808f500004003a0082
:1007700040822000a00090000110a00021009800fd
:10078000f002a8002000200060418800ca00370065
:10079000f022a8002000200060418800c600370039
:1007a000a117800000002800008060000000e00029
:1007b0000800320040822000604090008040e80045
:1007c00040822000614098004000200096220700ef
:1007d000b9003700a04180008000d100f00f200058
:1007e0000080600060178800a04180006100600008
:1007f000004078000004e00003003200b000200058
:1008000060418800ac003700300020006041880063
:10081000a9003700a11780000000280000806000b8
:100820000000e0000800320040822000604090009c
:100830008040e80040822000614098004000200095
:10084000792207009c003700f022a800a041800018
:100850004800de00e6006000000f2000010070008c
:10086000a0418800a04180000000a000a0418800b5
:1008700010c0b30036e8b7002000200060418800b7
:100880008d00370036c8bf00e14f50000a0032002b
:100890008041800010007800a041880080418000e5
:1008a00020009000c04188008041800020409000de
:1008b0003ae8b700010037003668ef00a141800038
:1008c000f00f2000808f500009003600a04180000a
:1008d0004800de00e6006000000f2000010070000c
:1008e00060178800a0002000604188007200370077
:1008f000a041800060178800a04180006100600076
:10090000004078000004e0000300320050002000a6
:100910006041880068003700300020006041880096
:1009200065003700a11780000000280000806000eb
:100930000000e0000900320040822000604090008a
:100940008040e8004082200061409800f5e2a90064
:100950005000200034220700570037003ac8bf007b
:100960008080fb008100e900cf08de008140780034
:100970000040e9003ae8b7000104e000100032004e
:100980008041800066004000804188002ec8bf0082
:100990000040e9002ee8b7002ec8bf000004e000c8
:1009a00003003a00200020001f2207004200370009
:1009b000f022a80020002000604188003e0037009f
:1009c000c0418000904078008180fb006117880062
:1009d0000000e800c041880037003700a117800000
:1009e00000002800008060000000e00009003200e4
:1009f00040822000604090008040e800408220005b
:100a0000614098004000200007220700f5e2a9009d
:100a100029003700f062a8008000200060418800b3
:100a2000250037008000200060418800f062a800a7
:100a300021003700c04180005117800081407800bc
:100a4000014878000000e800c04188003ac8bf00b3
:100a50000040e9003ae8b7003ac8bf000004e000ef
:100a600004003200f0a2a90060002000604188006c
:100a700002003700f0a2a800da210700f082a800e7
:100a80000d00370020002000e72107000a00370092
:100a900040822000604090008040e80040822000ba
:100aa0006140980060002000df2107000000000086
:100ab00001003700000000000080fa004f03be0074
:100ac0004f02be004f01be004f00be003600f900cd
:100ad000004006000000fa004e08a8008680a90029
:100ae0000080fa00004006000040da000000fe002e
:100af0000a00fa0011002000b1bf9f00c0bf9f0094
:100b00006a8057007d0807004fb897000080fa0000
:100b1000000006000a00fa0051002000b1bf9f004b
:100b2000c0bf9f006a805700760807005fb8970033
:100b30000080fa0000000600889fbe008004780054
:100b4000d05680000000e00004003a000e000700cc
:100b50000084eb000000e00008003500d85680005b
:100b60000900e0000500320009004400060007000b
:100b70000000e00001003d000084eb000800780068
:100b80004f04be0000000600800078000100e00075
:100b900003003a0000002000d05688000000050045
:100ba0000080eb0002002000828f500002003e0017
:100bb000d15688000000eb00000006000800fa0093
:100bc00010079800210798003207980000000000e5
:100bd0001128800000102000008060000000e0006c
:100be000fbff3200be009000010f78000e003700be
:100bf000000000001128800000102000008060002c
:100c00000000e000fbff32002e0090001040780052
:100c10000000fb00202888002e0090000000e80063
:100c2000200798001e0fe9001e0078000000e00079
:100c3000efff3a003e0090000080fa00000006003e
:100c40000000050003f0a200889fbe008a9fbe003e
:100c50008c1f7800f6000700fd0033006450e100af
:100c60004f0032006420e1005200320003826c0029
:100c700007003b000905d0000306d000820f540096
:100c80000c065d0002003900020032008901780084
:100c9000030678008582550004003d000003fd0036
:100ca0008103fd008502ea008b854200840f7200fb
:100cb00002003b0060001000e08018006011b800e6
:100cc0000005eb007a28e1000a00390006007800f0
:100cd000c75ddd00f707b200878075002d00370083
:100ce000828171000a017800610560008180d10075
:100cf0000080d3008502e900f9ff3b0006044000b4
:100d00008784480002003b0060041400e0841c005b
:100d10000988a300070032008a8171008281710076
:100d2000610164008904d1000884d3008b05e800c8
:100d3000170037000978a30013003a000b00e00009
:100d4000130034008b05e9000804440089844c003a
:100d50000a4474000978a3000d003a000b00e0007b
:100d6000070034008b05e9000804440089844c0026
:100d700001003a000b0020000978a300f7ff3200c1
:100d80000001eb0002003700828171000a01780047
:100d90006c0007000cf0a70001f0a000b5003700c0
:100da0006420e10002003a00838f6c00b50033003c
:100db0000801be000200be00ae003700889fbe00e2
:100dc0008a9fbe008c1f780099000700a0003300a6
:100dd00003866c006450e1002e0032006420e100c4
:100de000330032006150e1002f0032006120e10049
:100df0003100320085855500eb07b0000900200066
:100e000008042000050037000804440089844c00d1
:100e10000a0031000603430087834b0000015300a2
:100e200081815b00f8ff33000203be000800a000d0
:100e30000804440089844c00f6ff3900c639dd00ff
:100e40008301730001003200130020008904d100e7
:100e50000884d3000998a300050032000800a70009
:100e60000300a0008904d1000884d3008b05e800aa
:100e70008904d1000884d3000001eb000281d20074
:100e80003000070001f0a1000cf0a70001f0a00065
:100e9000780037006420e1007a0032000801be00cb
:100ea0000200be00f7ff37006120e100750032004c
:100eb0006000b800f3ff37000000200001f82700b1
:100ec000f0ff37000001be00440007000470a700d7
:100ed00003f0a10003f8a30013003a006509b10074
:100ee00010003200090035006928e10002003500d9
:100ef000010028000000050000004000818048003b
:100f00008502e900fcff3a0000000600f88f42006d
:100f1000050035008100d1000080d3008502e80083
:100f2000fcff3a00000006008000eb000000050016
:100f30004f89de0082017800c40137006011b800db
:100f4000d201370081002000618055000b003d0078
:100f50000b00200061fe2f000100e1001d003400a5
:100f600082817100610164008904d1000884d3008a
:100f70000000e800faff3a00710020006100640000
:100f800003007000020060000900320061044400a8
:100f9000e0844c000988a500050032008b05e800bc
:100fa0006808e10002003a008904d1000884d300f7
:100fb000f20f20000258e10005003d00c75ddd0092
:100fc000f907b2008980750008007800000006006b
:100fd0000bf827008b00780000000500c70ade0030
:100fe000f107b200f50fb20008003200e1cf420075
:100ff000020032000170a00024000500810f700083
:10100000010032000408050044000500810f700053
:1010100002003a00140005008502e90000004000cb
:1010200081c04800fcff3b000170a00024000500c7
:101030000004be00e9ff07000003be000405be0077
:101040000200be00e5ff0700844f750000000600a7
:101050000200be006450e100050036006420e1009b
:10106000020036000968a30001003a000800be0033
:101070000160a0004f0678004f05be004f04be007f
:1010800000000600f0ff2f00f1ff2700f9ff3700f6
:10109000889fbe008a9fbe008c1f7800e4ff070077
:1010a000ebff330003866c006450e1002400320043
:1010b0006420e100270032006150e100220032008c
:1010c0006120e100210032008b854200eb07b10076
:1010d0000134b800003ab8000804420089844a008c
:1010e000013ab8000030b8008880400009014a0089
:1010f00004003300000040008180480002014900e4
:101100008b05e900c909dd00830170000100320090
:1011100013002000c814de004814dd004709de007b
:101120001200b200c808de000884700085ff0700c6
:1011300001f0a1000cf0a70001f0a000cdff3700e6
:101140006120e100cfff32000801be000200be00b6
:10115000f7ff37006150e100fcff3a00c9ff37009c
:101160006022b800060220000000d0008180d2007a
:101170000482d2008582d2000000a0000202520048
:1011800083825a00030031000202420083824a0037
:101190000000a1000603e900f3ff3a00000006008a
:1011a000889fbe008a9fbe0030044200b0844a007f
:1011b00030054b0090854b006000b1000898be00e0
:1011c0000a90be000440e10005c8e10006d0e1003d
:1011d00007d8e10002003100680040001008e80074
:1011e0004f05be004f04be0000000600889fbe00f1
:1011f0008a9fbe003004be002005be0004185400c3
:1012000005985c0006185d0007985d00110020003d
:101210000440e10005c8e10006d0e10007d8e10084
:10122000010039008000eb00108810004f05be005f
:101230004f04be00000006001200fa00889fbe00a6
:101240008a9fbe008c9fbe00e0b79f00f1b79f0051
:1012500082bf9f0093bf9f000605be000404be002e
:101260000000eb00d0b79f00c0b79f00b0b79f0051
:10127000a0b79f0090b79f000006eb005fb19700fa
:10128000cfb09700820141003fb097000200e0001c
:1012900004003d00370007007e805700c0ff0700b4
:1012a00003003700330007007e805700cfff0700a0
:1012b000dfb697000d00e0000c0035006fb297001c
:1012c000ffb297000fbb97009fbb97001000200054
:1012d000010020006011b8000002720081827200db
:1012e00002037300838373001b0007000c06e800f1
:1012f00001042000810f5600e0ff3a000d00e000dd
:1013000004003d000802be000a03be007e805700b4
:10131000a3ff07005fa897000000e00005003a0067
:101320001fb29700afb297003fb39700cfb39700bb
:10133000090007006fb09700ffb097000fb9970042
:101340009fb997004f06be004f05be004f04be0078
:101350000080fa00000006000100070000000600ff
:10136000a4b79f00b5b79f00c6b79f00d7b79f002f
:10137000000006004f09de0082817100b3b79f00b4
:101380004f01de008180400082807000a1b79f0085
:101390008fb097004f09de0000004000020070008f
:1013a00090b79f007fa897004f01de00818040002a
:1013b0008280700081b79f000d0007004f3ade0069
:1013c0000000400004007000f0af9f00080007001c
:1013d0000402420085824a0006034b0087834b00cb
:1013e000dfff07000802be000a03be00000006007f
:1013f0002fb29700bfb297004fb39700dfb39700ab
:1014000000000600881f780018002000881f780060
:1014100089ff07008f87e9004f047800000006006d
:10142000801feb0084ff07008f87e90000000600a3
:10143000889fbe008a9fbe00e00f5000e08f5800da
:10144000e00f5900e08f59000c003d006044b800e7
:101450006055b8000000540081805c0002015d000e
:1014600083815d00180020001500070008003d0082
:10147000180007000004eb00050037000004eb0033
:101480000f00070002003d001200070018002000b6
:10149000dcff07000800e000060032006022b80010
:1014a0006033b8000000520081805a0002015b00e6
:1014b00083815b004f05be004f04be0000000600a4
:1014c000e00f5200e08f5a00e00f5b00e08f5b00fe
:1014d000000006006044b8006055b80004025400e3
:1014e00085825c0006035d0087835d0000000600c6
:1014f000889fbe008a9fbe008c1f7800e00f5000be
:10150000e08f5800e00f5900e08f59000d003d00ba
:101510006044b8006055b8000000540081805c0051
:1015200002015d0083815d001c0020000820e100b5
:1015300009a8e1000ab0e1000bb8e1000d003d0090
:10154000080037000006eb00e00f5200e08f5a0061
:10155000e00f5b00e08f5b0006003d006044b800d8
:101560006055b8000402540085825c0006035d00eb
:1015700087835d00aaff07000c00e0000600320030
:101580006022b8006033b8000000520081805a0029
:1015900002015b0083815b004f0678004f05be00af
:1015a0004f04be0000000600889fbe008a9fbe0058
:1015b0008c1f78000006eb00e00f5000e08f580011
:1015c000e00f5900e08f590007003d006044b8006b
:1015d0006055b8000000540081805c0002015d008d
:1015e00083815d001c002000e00f5200e08f5a0054
:1015f000e00f5b00e08f5b0007003d006044b80037
:101600006055b8000402540085825c0006035d004a
:1016100087835d000c00a2004b0007000c00e00077
:10162000060032006022b8006033b80000005200ab
:1016300081805a0002015b0083815b004f067800c5
:101640004f05be004f04be0000000600881f780052
:10165000030478000300e00007003d006000100074
:10166000e080180060011900e081190002003b00d1
:1016700001f02d00030037000400070008f0a70068
:1016800001f0a0004f04780000000600889fbe0013
:101690008a9fbe0000827000040271000482710003
:1016a000260032000004be000200be006011b80037
:1016b0006b092000950220000182cf000a0039004a
:1016c0000541b1000082cf00070039000541b1009b
:1016d0000982cf00040039000541b1000882cf0023
:1016e000010039000541b1000542520012003200ec
:1016f0000a003b0082817100610164008100d10019
:101700000080d3008984d3000884d3008b05e800cf
:101710000442e800f7ff3a000700370008044400dd
:1017200089844c0000004800818048008b05e90056
:101730000442e900f9ff3a0002fe07004f05be002f
:101740004f04be0000000600889fbe008a9fbe00b6
:101750008c9fbe000404b8000506b800890446004a
:1017600060854e000606b8000a054600e0854e007a
:101770000706b8008b054600040eb8008904460031
:101780000a854e00e0854d00050eb8000a054600aa
:101790008b854e00060eb8008b0546000416b80077
:1017a0000a0546008b854e000516b8008b054600dd
:1017b000041eb8008b0546000800be000a01be00ea
:1017c0004f06be004f05be004f04be0000000600dd
:1017d000019a20000b003700019a20006a000700e0
:1017e000800078000080eb000100e000040035007c
:1017f000019a2000a0002000020007004f80de00b8
:1018000000000600889fbe008a1f78000004be000a
:10181000c900900069009000808f500005003900d9
:1018200009007800b70007008080eb000000e000ae
:1018300016003500084578004900900008587800e7
:10184000c00498001900780000b8a30004003a0012
:1018500000a8a30007003200ea4f540005003a0038
:10186000090078000d0007008080eb000000e00018
:1018700006003a0000c0200019006000020032009b
:1018800049009000e00498008a80fb000100780085
:101890004f0578004f04be0000000600889fbe0080
:1018a0008a1f7800000478000800e0000d003a006c
:1018b000e89e2000700544008004eb00580078008a
:1018c0000000e00004003200f4ff07000000e00028
:1018d00001003d008084eb008a0f5400f7ff3a00be
:1018e0002500370000002200180060008004eb0093
:1018f00021003200a80490000f00370009015100b8
:10190000384090000000fb0089007800abfc070025
:101910000000e00007003c00280090004004980010
:1019200060049800500c98001890a0008084eb0090
:10193000110037008084440048019000828f5400d9
:10194000eeff3900280090004004980098007800cd
:1019500002c020000281600001003a0038009000bf
:1019600001e8a30002003200600498000100370083
:10197000500c98008004eb00090078004f057800b7
:101980004f04be0000000600889fbe008a9fbe0074
:1019900080047800010478002c003700c800900013
:1019a00068009000808f5000040039000800780023
:1019b000540007000000e000370035000040200020
:1019c0001800600009003200a10020000900780022
:1019d00042000700800578000b00e00003003200a1
:1019e000618514000a85450004003700090078006d
:1019f00034000700000578008005eb0048009000e7
:101a0000e8009000808050008a8f50000200310072
:101a1000010578008005eb000a0178008900780054
:101a200021000700480090000a0040004004980090
:101a30000b00e000040032000800780097ff070068
:101a40000000e00014003a008a8444001904e00019
:101a5000d2ff3a000080200018006000060032002b
:101a6000080078008dff0700800078000080eb0000
:101a70000100e00009003a0001c0200098806000e9
:101a80000000eb0005003200480090006004980060
:101a90000000eb00010037000080eb004f05be00a6
:101aa0004f04be00000006008001780002003700ed
:101ab000b15978000201e9000200e000fcff3a00a1
:101ac0000000060080007800010178003104e00089
:101ad000fdff3a0000005100000006000001eb008d
:101ae00000027800b041780081cf510001003a0037
:101af000040178000304e000f9ff3a0002007800d6
:101b000000000600889fbe008a1f7800000478004d
:101b1000c8009000680190000000eb00828f500028
:101b20003c00390018007800220029000201600002
:101b3000e20f510007003200012024000000e00005
:101b400001003d0001202000008c70000080eb00af
:101b5000300037000200260002006000820f5000b3
:101b600009003a0038009000808f500006003900cc
:101b70000800780049ff0700800078000080eb0033
:101b80000100e00023003a001805780000c02000a2
:101b90000000650018003a00a804900060022000d0
:101ba00008004000808f540013003a0000202000fd
:101bb000a5010700200498000000e00005003a009d
:101bc00029049800490498008904e8003904980021
:101bd000080037000a60a0000a0c78004004980052
:101be000012020008080400031049800400c9800c3
:101bf000500c98000c00070028009000500498003a
:101c0000380090006004980000002600180c700056
:101c10000000eb004f0578004f04be0000000600f6
:101c200060eb200061003700881f780068ad20005d
:101c30001804e00003003a00f9ff070020c0b300d9
:101c4000004c78004f04780000000600889fbe001a
:101c5000000478000800780010ff07008004780076
:101c600000042000180060000200320028009000ec
:101c7000a70007000000eb00200498003840900007
:101c80000004e000050035000000fb0098fb0700a1
:101c90000000e000010032008084eb00181090008a
:101ca0000000e000080032009afb07000000e0009e
:101cb000010032008084eb001810900094000700af
:101cc0000000eb00101498000008200018006000cd
:101cd000150032000001eb006000b800039f2000f7
:101ce0000202d00063027a00880f520005003a0019
:101cf0000000400081804800008041000008eb00a7
:101d00000600370061004000e08048000201e80062
:101d1000e80f5000e08f5800f0ff3a00080078000c
:101d20007b0007000e003700000c780000c0eb00bd
:101d30003044980060022000080040002004980011
:101d40004004980050049800400c980060049800eb
:101d5000500c98007004980076004400000c980025
:101d6000090078004f04be0000000600881f7800bc
:101d70000004eb006140b800e2ff2f00f3ff2f00ea
:101d800064050700e29f2000620078000000e00088
:101d900001003200adff07000804e800e80f54001e
:101da000f4ff3a004f047800000006000100200014
:101db0000100e00008003200010080000100e000a6
:101dc000050032008100e900010088008100d00098
:101dd0000200800000b1780000000600889fbe006d
:101de00000047800010078008204780088017800ff
:101df000090178001100200077000700890f5000ca
:101e0000010032000004eb00080078004f04be001f
:101e1000000006000000fa00e88157004fb9970063
:101e2000019a2000e0ee20006a0607000080fa0018
:101e300000000600889fbe000004780001007800c2
:101e400082047800880178000901780011002000e0
:101e500061000700890f5000010032000004eb0010
:101e6000080078004f04be00000006000000fa00e1
:101e7000e88157004fb99700019a2000a0f1200097
:101e8000540607000080fa0000000600889fbe008c
:101e9000000478000100780082047800880178004e
:101ea00009017800110020004b000700890f500045
:101eb000010032000004eb00080078004f04be006f
:101ec000000006000000fa00e88157004fb99700b3
:101ed000019a200060f420003e0607000080fa000e
:101ee000000006008002780001037800110009005c
:101ef0000203d80080017800830a78000299b900b3
:101f000002015300920298000500780000000600cc
:101f10000000e0002f003200c0017800e38f510084
:101f20002c0036000308a3002a003a0081568000e6
:101f30000100e00002003200810f50000400310077
:101f40001100980080568800160037008200780043
:101f5000110190000200e00002003200800f5100e9
:101f6000faff39001102780084824000850f50008a
:101f700018003900808f520003003a0083084200a5
:101f800001007800070037000200e0000300320083
:101f900083014000830f51000e00390012009800a9
:101fa00090009800900090000100e00009003200cd
:101fb00010014000828f500006003a00e2ac200081
:101fc0000009eb0010017800110841009100900019
:101fd0001100980000000600889fbe008a9fbe0086
:101fe0008c9fbe008e1f78000006780001047800e8
:101ff00002007800830478000881b90002077800a5
:102000000200e000420032000800e000410032001f
:1020100082057800c900900069009000808f500010
:102020000400390009007800b6fe07000000e00057
:102030002900350000402000190060000a0032002d
:102040000b017800a10020000c007800a800070018
:10205000800678000d00e0000600320061051600e1
:102060000a854600040037000b0578008006eb0067
:10207000010037000b05780049009000e90090004e
:10208000808050008a8f50000200310001057800e6
:102090008006eb000a0178008c00780082fe0700c1
:1020a0008a855500490090000a004000c00498004d
:1020b0000d00e0000400320009007800f7fd070081
:1020c0000000e00004003a000b00e00002003200d3
:1020d0000a064600cfff370000802000190060008c
:1020e0000200320009007800ecfd070000c020006b
:1020f000190060000200320049009000e0049800de
:102100008b055700110009008885d80001003700b1
:102110000000eb004f0778004f06be004f05be00e1
:102120004f04be0000000600881f78008a9fbe0092
:102130008c9fbe00000478000205be000406be00ad
:102140000401be000a00be0054030700008cbe005c
:102150000c01be006f0407000005550081855d007d
:102160002a0498003b049800080078004f06be003f
:102170004f05be004f04780000000600889fbe0097
:1021800000047800715680000100e0000200320077
:10219000010078000d0037008156800000ad20005e
:1021a00004003700910f5400250036000180e8003c
:1021b000910090000100e000faff3a0010003700a3
:1021c000920f54001e0036000280e80010017800d3
:1021d0000200e000faff3a00110178008156800009
:1021e00000ad200004003700910f540014003600a9
:1021f0000180e80091009000828f5000faff3a00c1
:10220000c9568000888f540001003100880478008e
:10221000090078004c0007000000e00004003a00cc
:10222000888f5400050032008904d100f5ff370083
:102230000918780036ff0700d2ff37000000eb00d6
:102240004f04be0000000600881f780063044000b1
:102250000800a1008000eb00800f54002100360030
:10226000e30f540001003e00480020000800780001
:10227000c2ff07008000eb000000e0001900320000
:10228000900078009101780064815100880f51001e
:1022900003003100110190000208780007003700a8
:1022a0000881400002087800910190001301980015
:1022b00010017800110914008808780010017800d6
:1022c0000000eb000200e0000400320092019000e8
:1022d0000300e000010032000280e8007056880030
:1022e0008180e800010078004f04780000000600bb
:1022f00003003700b0cf1000050032000201e900f2
:10230000800178000200e000faff3a0000000500ba
:102310000300780000000600020037000304e0001c
:10232000060032000001780002007800b041780019
:1023300081cf5100f9ff3a00010037000001eb00a6
:102340000200780000000600800078000000eb002a
:102350000100e0000500340001007800f6f90700f4
:10236000e10f400001003a000000eb000000060011
:10237000889fbe0000047800e68440001900d00069
:102380004500de00f27f2000820f500010003a006e
:10239000000ceb00990478006f816400200020009d
:1023a0001b003a00210190000200e00018003a00f2
:1023b000110190000200e00015003a00100020001a
:1023c0001100e00012003200200020001000370051
:1023d0000000e00004003a0001007800fb01070063
:1023e0000000e00008003c00f20028001901610034
:1023f00001fe2300810c710021c02f00010c400060
:102400000080eb0002003700000ceb000000eb0046
:102410004f04be0000000600fc874700889fbe00f6
:102420008a9fbe008c9fbe008e1f78000006780039
:1024300080c5b30080cf50000a00320077404000d2
:1024400080cf50000a0032006940400080cf500029
:102450000b00320090a6200080bf9f00ae0020003d
:102460000a00370082a5200082bf9f0006003700c7
:1024700093a6200083bf9f008e002000030037003a
:1024800094a6200084bf9f000e0120003c02be00e5
:102490002c03be000605be000404be0040c6b30007
:1024a00080cf5000030032006540400080cf5000d4
:1024b0000b003a00e00f5200e08f5a00e00f5b0083
:1024c000e08f5b0006003d006000b8006011b800be
:1024d000040450008584580006055900878559007a
:1024e000e80f57000400320040002000f00f5700b2
:1024f00038003a000100370030002000e00f54009f
:10250000e08f5c00e00f5d00e08f5d0004003a00aa
:10251000dc0890008d0120000100e0000600320080
:102520008e00e900888060008fba9700e5c07800cf
:10253000f1ef9f007d012000800078008100e9001c
:10254000050033008b05d1000a85d3008984d300b0
:102550000884d300f9ff3700089ebe000a96be002b
:10256000120037008d06e9008e00e90084806000cb
:102570000fb99700e2c1780082fd2f000f014100e2
:1025800003f17e00800078008100e900050033003f
:102590008783d1000683d3008582d3000482d300d1
:1025a000f9ff3700049ebe000696be003c02be0046
:1025b0002c03be00e00f5200e08f5a00e00f5b00da
:1025c000e08f5b008b0034000d00e000e5ff3c0075
:1025d000880037002c60900081c6b300814f500006
:1025e0000b00320006003c000004e000080032004e
:1025f000e6c05000814f50004e003a000400370002
:10260000c1c6b300814f50004a003a002100370094
:102610000800e00004003a005c0890008d012000f2
:102620000000e00006003200110009000e84d8000e
:102630000fb99700e2c07800f1ef9f007d01200004
:10264000110009000e84d8000a00370011000900ab
:102650000e04d8008d06e9000e81b9000204540072
:102660008fb8970061417c0081fd2f008f80400072
:1026700082f07e00000478000800e00002003200d2
:102680000d00e000f1ff3c00cfc4de00614db90059
:1026900025003700e00f5400e08f5c0004003a0092
:1026a0005c0890008d0120000000e000070032006f
:1026b0006171b9000800be00130307008fb99700cd
:1026c000e3417800f3ef9f007d0120006171b900c4
:1026d0000800be00a2fa07000b0037006171b900c4
:1026e0000800be00ed0107008d06e90000f1b90009
:1026f000020454000fba9700e4427c0084fd2f00ce
:102700000f02420005f27e000004be00e00f500000
:10271000e08f5800020032000d00e000efff3c00a7
:102720004fcdde008a057800089ebe000a96be00e6
:1027300030003700e00f5400e08f5c00e00f5d00d8
:10274000e08f5d0004003a005c0890008d012000dd
:102750000000e000090032006172b900612bb9008d
:102760000800be000a01be002dfb07000fba97004b
:1027700064427800f4ef9f007d0120006172b9008f
:10278000612bb9000800be000a01be001dfb070056
:102790000d0037006172b900612bb9000800be005e
:1027a0000a01be0022fb07008d06e90000f2b90015
:1027b000040454008fba970065427c0085fd2f0009
:1027c0008f82420084f27e00009ebe000296be0010
:1027d0003c04be002c05be00e00f5400e08f5c00fe
:1027e000e00f5d00e08f5d00020034000d00e000ae
:1027f000e8ff3c00e80f570010003a000c10900072
:102800000038a3000d003200f78f560006003e008e
:1028100085fd2f008f824200e5c07e0000c3b3001b
:1028200080cf5000050032008d06e90002c3b300de
:1028300081fd2f008f80400082f07e00788116009d
:10284000120e98006c00900083fd2f008f814100d4
:102850008d80410094fc07001c089000dc0890006b
:10286000810f500006003d0000805000000e9800cf
:102870000c1090000040a100001698000f003700d7
:102880000100e0000d003d008c109000f48060001d
:10289000f08f500009003a007c099000fc00900085
:1028a000810051000c09900082805000008050008f
:1028b0004240a90001003400000e98004f07780044
:1028c0004f06be004f05be004f04be00cf01b10051
:1028d000000006000400fa00889fbe008a9fbe0028
:1028e0008c1f78000004780001067800f80d900035
:1028f000780090008085550008089000808555007c
:1029000018089000808555002808900080855500a3
:102910003808900080855500480890008085550053
:102920000002220090bf9f0000032300a0bf9f0071
:10293000081090000028a30015003a000b00e000ea
:10294000130034000b0578008a047800e20f55006c
:102950000100360029002000c8019000090178001c
:10296000ee805700580090000300010050049800ca
:102970000000e0008c003200680890000900400070
:10298000600c9800090555004240a900eeff3c008c
:10299000780190000200e0000c003400c8019000b3
:1029a0008c0078005800900003000100500498004b
:1029b0008080eb000000e0007c003200e80890001e
:1029c0007800900000804000600c9800880c900017
:1029d0000900e0001100340009057800e28f54007e
:1029e000010036002a002000c80190000a0178008a
:1029f000ec8057005800900003000100500498003c
:102a00000000e00068003200680890000a00400002
:102a1000600c98008a845400edff3700180990007c
:102a20000200e0000c003400c8019000e8009000b3
:102a30005800900003000100500498008080eb00d3
:102a40000000e00059003200e808900018089000eb
:102a500000804000600c9800a80c90000900e00085
:102a60001100340009057800e28f5400010036009f
:102a70002a002000c80190000a017800ec8057006d
:102a80005800900003000100500498000000e0008e
:102a900045003200680890000a004000600c980071
:102aa0008a845400edff3700380990000200e000ee
:102ab0000e003400e800900018089000808040006c
:102ac000c8019000580090000300010050049800d5
:102ad0008080eb000000e00034003200e808900045
:102ae0003808900000804000600c9800c80c9000ee
:102af0000900e0001100340009057800e28f54005d
:102b0000010036002a002000c80190000a01780068
:102b1000ec8057005800900003000100500498001a
:102b20000000e00020003200680890000a00400029
:102b3000600c98008a845400edff37000810900064
:102b40008000eb000028a300180032000b00e0001a
:102b5000160034008b04780009057800e28f5400d9
:102b6000010036002a002000c80190000a01780008
:102b7000ee805700580090000300010050049800b8
:102b80000000e00008003200680890000a004000e1
:102b9000600c98008a8454004240a900eeff3c007b
:102ba0008000eb00010037008080eb00010078001e
:102bb0004f0678004f05be004f04be000080fa00ab
:102bc000000006000108780000000600e600400052
:102bd0001101780005002800850261006f01610085
:102be0008208780002003200120020001100370035
:102bf000a0019000120020000300e0000d003a0048
:102c0000900190000300e0000a003a001000e0008c
:102c100008003a0036003700640340009608780048
:102c200080017800530b7800900978000408780040
:102c300070015100110278000400e000f6ff32003c
:102c40001300370064024000140378004f33de00a5
:102c5000838141008308730080017800d3037800ea
:102c6000cf3bde001403780006034300068a73009e
:102c70001302780004024200100378004f33de0094
:102c80008609720090017800038841000201e90082
:102c900091017800ef8f5100eaff360010003700f5
:102ca00080017800530378004f33dd001002d1001b
:102cb000040873006402400094037800cf3bdd00f9
:102cc0001303d10086897300110378004f33dd00b0
:102cd0009401d100030a73009108d1000201e800b9
:102ce00091017800ff8f5100edff3e00ef886100f9
:102cf00091887200020078000000060000c0da002f
:102d00000000060000c0da00000006008f1fd1009e
:102d1000050207008f87e9000000e00000000600c0
:102d2000809feb00000207008f87e9000000e000b1
:102d3000000006002800fa00889fbe008a9fbe009f
:102d40008c9fbe0003866b008f0007006400e100cb
:102d5000440032006408e1004a0032006100e100f2
:102d6000460032006108e10049003200ec064700ed
:102d70006000b8003d02be003d03be00f48657006f
:102d80006011b8003d04be003d05be007d0320007b
:102d90000b0037000000a0008d06e9001300320090
:102da0000402420085824a0006034b0087834b00e1
:102db00000004000818048000201490083814900f1
:102dc0000802520089825a000a035b008b835b0071
:102dd000f0ff3b000802420089824a000a034b00d0
:102de0008b834b008d06e900edff3a008482720070
:102df00086827200f707b2008782720001003200fb
:102e0000150020001e0490003e0b900006035400a5
:102e1000e63fb0000368a300070032000000a700ef
:102e20000500a0008301d1000281d3008180d3007e
:102e30000080d3000603e8008301d1000281d300a3
:102e40008180d3000080d3000002eb000482d20016
:102e50002100070003f0a1000cf0a70003f0a00080
:102e60005d003700640247006408e100570032004b
:102e70003400be003401be00f6ff37006108e100f7
:102e8000520032006011b8006000b800f1ff370056
:102e900003ff270002002000fbff3700839f68002c
:102ea0000100e00002003d0060001000e08018001a
:102eb0000300e00002003d0060011100e081190004
:102ec000a7f807004f00e00002003b006000100080
:102ed000e0801800000006001800200057002000c5
:102ee000080453000d003d000600200097fc2f0051
:102ef0000740e1001e00340084827200610260001d
:102f00008301d1000281d3008180d3000080d300ef
:102f10000804e800f8ff3a00470020006104600060
:102f200005047400040464000d00320061004000d8
:102f3000e080480060014900e081490003b8a50035
:102f4000070032000603e8006538e10004003a009b
:102f50008301d1000281d3008180d3000080d3009f
:102f6000f87f20000830e1000300350008037800f6
:102f70006000b8006011b8004433dd00f300b20017
:102f80008301730000000600680447000294be003d
:102f90000094be00fc0447008694be008494be00ea
:102fa00009007800a901070008007800a7010700c0
:102fb00099007800814f70000b003b000800be00b4
:102fc000820107004f00b10003003700f3ff270024
:102fd000f2ff2f006110b9004f06be004f05be0082
:102fe0004f04be000080fa00000006008103780054
:102ff000faf707000001be006000b8000478a300e3
:1030000013003a006220e10015003e000d00390077
:103010008301d1000281d3008180d3008301d100dc
:103020000281d3008180d3008301d1000281d300cb
:103030008180d3000538b000c42add00f300b2005f
:103040008381720007f0a70003f0a00000000600d3
:10305000f3ff2700f2ff2f006110b900fbff3700dc
:1030600003ff2700f7ff37001400fa00889fbe0017
:103070008a9fbe008c9fbe000004be000205be00f9
:10308000680047000a90be000890be006f0107006c
:103090000070a7000bf0a100304320009e029000ba
:1030a00080825200b0fe2f000028e10011003d0098
:1030b000b0fc2f000028e100150034001e0990002c
:1030c0008e0890007e0090000501b0000201d10042
:1030d0008180d3000080d3008502e800fbff3a0026
:1030e0000b00e000bcff3b0060001000e080180017
:1030f000b9ff3700f0ff2f00f1ff27000b00e000c1
:10310000b5ff3b000100280000002000b2ff37009f
:103110006000b800b0ff37004f89de008201780000
:1031200071013700000000002800fa00889fbe00ef
:103130008a9fbe008c9fbe0003866b0092ff070033
:103140000028a30064003a000128a30067003a00a9
:103150000008a30062003a000108a30065003a00dd
:103160001e009000be08900081064000ed3fb100b7
:10317000f4805700ee019000111ab8008e099000fb
:10318000311bb8009e099000311cb800511db800d9
:10319000f485570046000700fe0190003a00070042
:1031a0008b85e8003e0007008e0990004000070074
:1031b000ee019000340007008b85e800380007001e
:1031c0008e099000400007009e0990001b18b8006f
:1031d000890440000a854800fe0190003400070081
:1031e0008b85e80038000700ee01900030000700f2
:1031f0008e0990001b18b800890440000a85480019
:103200000a98a30008003a000402420085824a009e
:1032100006034b0087834b0008044c0089844c0054
:103220000a054d008d06e900848272008502730054
:103230004c3add00850272000100320015002000ca
:10324000443ade001400b2004538de00cb45dd0014
:103250000b007000c540de00cb4ddd008b807000a0
:103260004549de00cb55dd000b017100c551de0084
:103270000d03780018ff070003f0a1000cf0a70071
:1032800003f0a00054ff37001b18b800850240006f
:1032900006834800e0834b0060044c0007003700c1
:1032a0001b18b8000603400087834800faff370068
:1032b0001b18b8008703400008844800e0844c00d5
:1032c00060054d00000006001b18b800080440000f
:1032d00089844800faff37000108a3003bff3a0049
:1032e0005800be005801be00e3ff37000008a300ed
:1032f00036ff3a0009047800f9ff370000000000ab
:1033000007f0a2000a00370095f707000400be008e
:1033100000000600020ab900001bb9000200b80054
:103320008100420081004300000006000000000010
:103330002800fa00889fbe008a9fbe008c9fbe00b6
:1033400007067800878669000c003b0003047800bc
:103350008704780008f0a10009f0a100840f500054
:10336000858f5800860f5900890f5c0003003300d9
:103370000cf0a20001003a000cf0a10002ff0700cf
:103380006400e1005f003200780147006408e1005a
:10339000610032006c014700748557003200be00a6
:1033a0001201be003a04be001a05be001e039000c2
:1033b000be0a90008503530006003d000004fd0096
:1033c0008104fd000205fd008305fd008703ea007e
:1033d000050378000df8a300040032006004140017
:1033e000e0841c0060051d00e0851d006022b8001f
:1033f0007d0320000d38e1008006eb000b00390052
:103400004433dd00f300b20083017300390037005c
:10341000848272000d027800e10664008b85d10081
:103420000a85d3008984d3000884d3008703e90088
:10343000f7ff3b0008004000898048000a0149006e
:103440008b81490004003b0060001000e080180000
:1034500060011900e08119000358a300090032003f
:103460008d82720084827200610260008301d1004b
:103470000281d3008180d3000080d3000603e800de
:103480001b0037000348a30017003a000600e000c5
:10349000170034000603e9000d00a30000004800f7
:1034a0008180480002014900838149000348a3004c
:1034b0000f003a000600e000090034000603e900ae
:1034c00000004000818048000201490083814900da
:1034d00001003a000003eb000348a300f5ff3200af
:1034e0006022b800020037008482720061826600a8
:1034f00079fe070003f0a1000cf0a70003f0a00084
:10350000b5fe3700640147006408e10002003a009c
:103510000df8a300adfe3a003200be001201be005d
:10352000adfe370000000000889fbe008a9fbe00ed
:103530008c9fbe000404be000605be00809fbe0036
:10354000829fbe002f000700040678000800be001e
:103550000a01be002b000700840678004f03be005e
:103560004f02be008d4f76007fb0970013003300ee
:10357000f0ff2f008b8f6b0006003b000d066600ee
:103580000c00a7000a00370007f0a600100020007a
:103590000a003700880f5200898f5a008a0f5b009b
:1035a0008b8f5b00030039001000200001003e00fb
:1035b0000000200007f0a7000000ea004f06be0050
:1035c0004f05be004f04be0000000600e48240002c
:1035d0001078a30007003200640240001178a300b5
:1035e0003400be001401be00040032000330a70006
:1035f000000006003500be001501be000330a0002b
:103600000000060005ff2700058261000700320068
:103610000428e10001003200240005000600070034
:1036200001003a00440005000408050002000700fc
:10363000f9ff3a00140005006f82610081027000fa
:10364000850271008502720000000600800078008b
:103650005002be005003be004439de00f700b20045
:10366000f37f200003016100090032000218e1002d
:1036700016003a0085017200830173008381730094
:103680000008200015003a00400020001300370019
:1036900085017200830173008381730005003a0085
:1036a00004a8be0006a8be00100020000b003700d2
:1036b0000201e9000402420085824a0006034b0031
:1036c00087834b000748a300f9ff32000740a000a2
:1036d00004a8be0006a8be002000200080009800bc
:1036e0009200980000000600881f7800030478000c
:1036f0000300e00007003d0060001000e0801800bb
:1037000060011900e081190002003b0001f02d006a
:10371000030037000400070008f0a70003f0a00032
:103720004f04780000000600889fbe0000827000f1
:10373000040271000482710024003200364320002c
:10374000c50020008383cf000a0039000541b10085
:103750008283cf00070039000541b1008183cf008b
:10376000040039000541b1008083cf000100390019
:103770000541b10085c353006022b8001200320039
:103780000a003b0084827200610260008301d10064
:103790000281d3008180d3000080d3000603e800bb
:1037a0008743e800f7ff3a000700370000004000b9
:1037b0008180480002014900838149000603e90035
:1037c0008743e900f9ff3a00c3fd07004f04be003c
:1037d000000006006200fa00889fbe008a1f780081
:1037e00000057800810478000204780083007800e6
:1037f00080f92f000f004000f2fc07009a979f000d
:10380000a9979f000000eb00b09f9f001885fb0068
:103810008a04fb000a05ea004f55de005002200032
:10382000808f54000d003200e10f55000b003a006c
:103830000a017800880078002f9097009f919700e8
:1038400003000100a0979f000000e0008e003200fe
:103850003f9897000000e800b09f9f000a044400d2
:1038600050022000808f5400040032000900e00064
:10387000e6ff3a003f989700840037000000eb0015
:10388000909f9f00809f9f00f0979f00e0979f0070
:10389000d0979f00c0979f0007003700e1a8200045
:1038a000010050000000400021a8200061007800c5
:1038b000df98970001007000d09f9f008804780077
:1038c00009047800384578008a00fb00e0a8200051
:1038d00091fa07000000e000f0ff3a00a1c2b30037
:1038e000814f55000e003a00cf8897000180e90013
:1038f000c08f9f0010007800c09f9f000000e00074
:1039000005003d000000ea00c09f9f005f989700ff
:103910000020a000d09f9f000904e8000f0037009e
:10392000c09f9f000000eb0005003700f2ff27005a
:10393000820f5000020032006a01b900028040008c
:103940000904780088047800b900fb000103b10085
:10395000e98f5000f5ff3600c09f9f00e0c2b30022
:10396000984f1000020032000080eb001900370071
:10397000a0c2b300d84f100007003a00cf889700cc
:103980000180e900c08f9f0010007800a09f9f0079
:103990000804e800100037000000eb00a09f9f0023
:1039a0008800780005003700f3ff2700830f5000e0
:1039b000020032006a02b9000400410001047800ec
:1039c000880078003101fb000203b100e90f5100cb
:1039d000f5ff3600a09f9f00984478008900fb0007
:1039e000a0a720004cfa07000000e000020032000f
:1039f0000804e800010037008044eb00c97f9f0005
:103a000080c6b30080cf540004003a0098cf140061
:103a10000a003a006640500006003700c0c6b300f6
:103a200080cf540005003a0098cf140003003a00fc
:103a300065404000c07f9f000804e8001801fb00bb
:103a4000e3fb2f008f81410081f92f008f80400020
:103a5000a0f92f000f004000100007000000e00058
:103a600009003a00e1fb2f008f804000a0f92f00f1
:103a70000f00400097fb07000000e0000200350047
:103a80000804e80061ff37000080eb004f05780074
:103a90004f04be000080fa0000000600889fbe00b0
:103aa0008a1f7800000478008244780003057800bb
:103ab00070c6b30080cf540021003c0000c0e90074
:103ac00080cf5400d5003d007240500080cf54009c
:103ad0003c0132000d003c006c40500080cf54008f
:103ae0004f013c0000c0e90080cf5400cb003d00f6
:103af00050c2b30080cf5400460132007c404000e9
:103b000080cf540046013a00c400370010c6b3000d
:103b100080cf5400c100320004003c0069405000d6
:103b200080cf54003e013a006900370030c6b30030
:103b300080cf5400180032000040e8000900370030
:103b400000c7b30080cf54001001320008003c00d1
:103b500000c0e90080cf5400d90032005c003c0076
:103b60006540500080cf54002d013a000f0037000f
:103b700050c7b30080cf540055003200634040006e
:103b800080cf5400520032006540500080cf540076
:103b900023013a000b0137001181e9008208780007
:103ba000780090001275780023013700286090009b
:103bb000c2c6b300824f500007003a0011017800de
:103bc00064005100800878001000be004f89de00bc
:103bd000820178001400370012c7b300824f5000f2
:103be00003003a0011027800680052000500370017
:103bf000a2c6b300824f500006003a00910278003e
:103c000068805200800878005001be004000be006d
:103c1000050037001180e900800878001000780066
:103c2000cf80de006109b900009cbe000294be0096
:103c30002862900085c6b300854f52000d00320007
:103c400025c6b300854f520004003a000000fb0077
:103c5000cf80de006109b9000800370045c7b30016
:103c6000854f520003003200e6c24200854f5200e9
:103c700004003a00cf80de006109b900009cbe005c
:103c80000294be003802be002803be0078009000f7
:103c9000d1c2b300e00f5200e08f5a00e00f5b008a
:103ca000e08f5b0008003500881090000118a30029
:103cb00002003200b1c2b300030037000108a300c4
:103cc0005100320001c2b300017578004c0037008a
:103cd00028609000c2c6b300824f500008003a002e
:103ce0001103780064005300800878001002be00c1
:103cf0006033b8000400be000601be0014003700a7
:103d000012c7b300824f500003003a0091027800be
:103d10006880520005003700a2c6b300824f5000f1
:103d200006003a001103780068005300800878000c
:103d30005001be004000be00050037001180e900c0
:103d400080087800100078008000eb006011b80057
:103d5000009cbe000294be002862900085c6b3009d
:103d6000854f52000d00320025c6b300854f52002a
:103d700004003a000080fb008000eb006011b800f6
:103d80000800370045c7b300854f520003003200da
:103d9000e6c24200854f520004003a008000eb006a
:103da0006011b800009cbe000294be000810900094
:103db0000038a300140032003800be002801be0005
:103dc000e00f5000e08f5800e00f5900e08f5900dd
:103dd0000d00320080c7b30080cf540003003200d2
:103de00080c5b30080cf540007003a0078009000ef
:103df00001c3b300017578000000e8000975780080
:103e00000000e8007004980078009000000545006c
:103e10006a049800894078006700370028619000a4
:103e2000c0c4b300804f510006003a0091037800ef
:103e300068805300800878005001be004000be003a
:103e400005003700110178006400510080087800f7
:103e50001000be0065fc0700009cbe000294be007e
:103e6000b8009000780090000100e00002003d00e2
:103e7000d1c2b30008003700881090000118a300d9
:103e800002003200b1c2b300030037000108a300f2
:103e90000400320001c2b300017578000000e800a0
:103ea0007004980078009000000545006a049800ae
:103eb0008900fb00080078006500070060003700fb
:103ec00028619000c3c6b3001180e900834f510000
:103ed000220032000a003c00e4c15100834f51002f
:103ee0002500320083c1e800834f510013003200e7
:103ef000e8c15100834f51001e003a000a0037000c
:103f000043c7b300834f51001b003200e6c141009c
:103f1000834f510018003200e9c15100834f510016
:103f200014003a000500370080087800100078007f
:103f3000485c90000848780041003700800878000d
:103f400010007800680a9000cfa2de00612bb90053
:103f50000498be000690be00390037008008780043
:103f60001000780068099000cf91de000288be0042
:103f7000330037001180e9008008780010007800d5
:103f8000680c9000080878002d0037001180e900c7
:103f90008008780010007800cf80de006109b90049
:103fa000009cbe000294be00780090000005450011
:103fb0006a04980081c7b3000800780016f907006a
:103fc0001f0037001180e900800878001005780094
:103fd0006a049800d80c90000900e00004003d003d
:103fe0000a007800b7f60700800478000700370061
:103ff000090178008000eb000a007800bcf8070097
:104000000000e000010032008a045000190c980002
:104010000b00370078009000097578000600370023
:1040200078009000000545000904e00001003a0016
:1040300059c2b300094d78000000e80070049800f0
:104040000000eb004f0578004f04be0000000600a2
:104050002f04b000889fbe008a9fbe008c9fbe00c8
:104060008e1f78000007780081f79f003e04be0095
:104070002e05be005e0890000000e00002003d003a
:1040800060002000500f98008e00780020fb2f0069
:104090000f004000b6f80700e20f50000a003a0097
:1040a00030002000100f9800b1c9b3000ff0970046
:1040b0008140400040a02000e1cf50000d003e00b4
:1040c00000a020000b0037000000e0000f003400cb
:1040d00030002000100f9800b1c9b3000ff1970015
:1040e00081404100c0a02000e1cf500001003e000f
:1040f00080a02000ee009000b0487800b068780002
:104100001040780090409800f30037000000e00075
:1041100005003a0022fb2f000f0141000019780032
:104120008001eb00e70037006022b8006033b80080
:104130000800be000a01be00f4fa07000000e0001b
:1041400001003d000bf0a200705927009f989700d6
:104150000088b900026a2800130020004ffb070006
:10416000640650009c9f9f0013003b0063061600ee
:10417000c0ff2f00000666008c01ea00939f9f009d
:104180000da120000800be000a01be000700370094
:104190000c08a300030032003d02be002d03be0048
:1041a000e1fb07000c86d100e88646000c00e00029
:1041b000f7ff3c00180037000c00e0001800320048
:1041c000c0ff2f00000666009c9f9f000da12000ed
:1041d0006000b8000200200003ff23000700370042
:1041e0000c08a300030032003d02be002d03be00f8
:1041f000cdfb07000c86d100e88646000c00e000ed
:10420000f7ff3c000002be000203be000800be0033
:104210000a01be00c7fa07000004be000205be0086
:10422000de08900060c6b3000ff29700804f520086
:10423000040032006000200062c4b300824f5200cc
:1042400002003a009f9a97006a8042008100400075
:10425000f1b79f0001037800f30f53000200340010
:1042600037012000f7b79f0000c3b300c0779f005d
:1042700056fb2f000f0343000e007800a0b79f00ed
:10428000060778003d0037000800be000a01be00a6
:1042900075fb07000006be007fb197006801510062
:1042a000f2b79f004240a9000c0034009afb0700bf
:1042b0000002be000203be000800be000a01be00ec
:1042c0000ffc07006022b80046782d007719240003
:1042d00095fb07000004be000205be00e800470091
:1042e0008e0020000802be000a03be00b4b79f0083
:1042f000c5b79f00d6b79f00e7b79f000c01be006f
:10430000010478000c003700a40020000500200004
:10431000c0fd2f000f00400083f707006fa8970033
:10432000ffa897000fb197009fb1970005c3b30096
:10433000056441000001be00e00f5100e08f59000c
:10434000030034000e07e900e10f4700eeff3a00da
:10435000880078003fb49700cfb497005fb597000e
:10436000efb597000200370000c3b300806078000b
:104370000e07e900fcff3b00688740007fb3970011
:104380000600e000070034006022b8006033b80087
:104390000800be000a01be0061fa07000000e0004c
:1043a000b9ff3c000e0378002fb7970051fb2f0098
:1043b0008f804000010353009f9b9700678043005c
:1043c000909f9f00020037000603e9000000e9000b
:1043d000010178008200780003c3b300b1cf11005f
:1043e000f9ff3200909f9f00de09900061c6b30084
:1043f0000ff29700814f52000300320061c4b300f6
:10440000814f520002003a000000e8000a00370025
:104410001000200051c6b3008ff2970081cf5200e8
:10442000050032000540780050c4b2000080fb0057
:104430000000e9004f00de0083014000868f51003c
:1044400001003400860178000300e0001d00350003
:1044500000c3b300868f510006003d0062c27900a0
:104460006940400041c3b300814f520001003c004d
:10447000694050008300e9008100410001003700dd
:10448000840178000302e90001037800a14278006a
:1044900080cf5200faff320091c3b300814f500029
:1044a00001003a00054be8000400e00005003d0073
:1044b0000201e9008301e8001f9b97000603e80062
:1044c000969f9f008ff397008700fb001f9a97002d
:1044d0000e007800060007004f0778004f06be0068
:1044e0004f05be004f04be002f04b10000000600bf
:1044f000f0874700889fbe008a9fbe008c9fbe0049
:104500008e1f780000047800814478000205be0008
:10451000040678000b00e00002003c001b002000b5
:10452000caad200060c6b30080cf54000e00320038
:1045300060c4b30080cf54000b00320070c6b300db
:1045400080cf54000300320070c4b30080cf540009
:1045500081003a00e40f46007f00350058089000c3
:10456000800f56007c003d000c06e80060c6b300da
:1045700080cf54001000320060c4b30080cf5400dc
:104580000d003200081090000038a30004003a002b
:1045900058089000808f550001003d005b0c98008a
:1045a000580890000c005000500c980002003b008e
:1045b0000000eb00500c980018089000e8009000f4
:1045c0000c00e00026003c0002c3b30082707800bb
:1045d0000000e800100c9800d80890000100e000ee
:1045e00003003c00881090000138a3000500320051
:1045f000e8009000e2c2b300827078000000e8009a
:10460000100c9800580890008c00ea00810f5000b0
:1046100001003d000006ea008c00ea00210c980031
:10462000000646005c0c98008b0f56000100340019
:104630000b0678003c0c9800e800900018089000e9
:10464000008040000c0178008a00780016f5070011
:10465000580890000c0650004c0c98009000370051
:104660008c8f550018003d00008040000b01780041
:104670008a0078000cf507001808900000804500bb
:10468000100c98008b0556002b0c9800d808900051
:104690000100e00003003c00881090000138a300f6
:1046a00006003200e8009000e2c2b3008270780099
:1046b000380890000000e800300c9800580890007e
:1046c000400c980076003700008040000c01780014
:1046d0008a007800f4f407001808900000004600f3
:1046e000100c98008c855500d80890000100e0005f
:1046f00003003c00881090000138a3000500320040
:10470000e8009000e2c2b300827078000000e80088
:10471000100c980058089000808f5500010034005c
:1047200080057800e80090001808900000804000a4
:104730008c0045000b017800dbf40700180890009e
:104740000b004000100c9800580890008b0550009a
:104750002b0c98005200370018089000e8009000d9
:104760009a7078000000e800100c9800d8089000bb
:104770000100e00003003c00881090000138a30015
:1047800005003200e8009000e2c2b30082707800b9
:104790000000e800100c9800580890000000e000ad
:1047a000100034008b05e900808f550001003400b3
:1047b00080057800e8009000180890000080400014
:1047c0008a00e8000b017800b7f407001808900091
:1047d0000b004000100c9800580890008b0550000a
:1047e0002b0c9800e8009000180890000080400012
:1047f000095878000007e8000c00e00004003500cc
:10480000b1c2b300014878008e047800040037007c
:10481000d1c2b300014878008e0478000c06ea008b
:104820007d8557008006eb0009003700a2002000bc
:104830008c00780072805700aaf507007fb09700bf
:104840008fb89700016d7800000678008d06e800ab
:104850000c00e000f5ff3c000d00e00009003a000c
:104860008e04780000c3b300805c78000500370038
:104870008d06e900fc80570061c07e0002c3b300d2
:10488000825c40000d00e000f9ff3c00e800900071
:10489000180890000080400080845400390c980073
:1048a0000810900074006000f00f50000e003a00f5
:1048b000980890007800900000804000a8089000c0
:1048c00001004000b808900001004000c8089000b6
:1048d00001004000f8089000810f500002003d00e8
:1048e00000805000000c98004f0778004f06be0073
:1048f0004f05be004f04be000f01b10000000600ce
:020000040000fa
:10490000022d0000544e000090f00000fffe000059
:104910000a3200000a0000005374000061720000b7
:1049200074200000616c00006c20000074650000c1
:1049300073740000732e00002e2e0000000d000086
:10494000004100006c6c00002074000065730000e2
:10495000747300002073000075630000636500003d
:10496000656400006564000000530000746100008d
:10497000727400002074000065730000742c000045
:1049800020690000642000003d2000002564000034
:104990002e2e00002e000000446100007461000013
:1049a000206d0000656100006e2000003d200000c9
:1049b000256400000053000065720000696100007a
:1049c0006c20000074650000737400002073000008
:1049d00075630000636500006564000065640000a5
:1049e000005300006c650000657000002066000048
:1049f0006f7200002031000020730000656300002a
:104a00006f6e000064000000507200006f630000d1
:104a100065730000736900006e670000206300008a
:104a20006f6d0000706c0000657400006500000090
:104a3000507200006f63000065730000736900002e
:104a40006e67000020660000616900006c65000070
:104a500064000000536c0000656500007069000090
:104a60006e670000204d0000435500002e2e000010
:104a70002e00000052610000646900006f200000f9
:104a8000776f00006b6500006e000000496e00004b
:104a900074650000727200007570000074200000e0
:104aa0006e6f000074200000667200006f6d0000e1
:104ab0002072000061640000696f00002077000030
:104ac000616b000065000000526100006469000035
:104ad0006f200000736800006f72000074200000f7
:104ae00072650000616400002073000075630000bf
:104af0006365000073730000667500006c000000c1
:104b000052610000646900006f20000073680000bb
:104b10006f72000074200000726500006164000084
:104b200020660000616900006c6500006400000000
:104b300052610000646900006f2000006c6f00008b
:104b40006e670000207200006561000064200000b4
:104b500073750000636300006573000073660000f6
:104b6000756c00000052000061640000696f000075
:104b7000206c00006f6e000067200000726500006e
:104b80006164000020660000616900006c6500003f
:104b9000640000005761000069740000696e000045
:104ba00067200000666f0000722000007261000044
:104bb000646900006f200000746f0000207700001f
:104bc000616b0000652000006166000074650000f4
:104bd000722000007e2500006c7500006d730000df
:104be0002e2e00002e0000004e6f000020730000eb
:104bf0007563000068200000746500007374000095
:104c00002c20000069640000203d000020250000e9
:104c100064000000546500007374000020730000fd
:104c20007563000063650000656400006564000052
:104c30002c20000069640000203d000020250000b9
:104c400064000000426f00006172000064200000f8
:104c5000696e000069740000206400006f6e00003f
:104c6000650000000d000000526100006469000052
:104c70006f200000696e000069740000206400006d
:104c80006f6e000065000000526100006469000062
:104c90006f20000073700000656500006420000054
:104ca00074650000737400002073000074610000dc
:104cb000727400006564000000500000617900001b
:104cc0006c6f0000616400002062000079740000d5
:104cd00065730000203d00002025000075000000e5
:104ce00054720000616e0000736d00006974000072
:104cf00074650000722c00002073000074610000d5
:104d000072740000696e00006720000054580000b3
:104d1000732e00002e2e0000006400006f6e000055
:104d2000650000005761000069740000696e0000b2
:104d300067200000666f00007220000062750000ae
:104d4000747400006f6e0000207000007265000037
:104d50007373000000520000656300006569000085
:104d600076650000722c0000207700006169000069
:104d7000746900006e670000206600006f7200001a
:104d80002054000058730000207400006f200000c1
:104d9000636f00006d7000006c65000074650000ba
:104da0002e2e00002e000000257500002f2500008b
:104db000753d0000256c00007525000025200000d1
:104dc000696e0000202500002e330000667300008d
:104dd00020400000202500002e3000006642000028
:104de0002f73000020770000697400006820000025
:104df00061760000672000006c710000693d0000d2
:104e0000252e000031660000207200007373000040
:104e1000693d0000252e00003166000000520000b0
:104e200061640000696f000020730000706500007d
:104e300065640000207400006573000074200000a9
:104e4000736b000069700000706500006400000072
:104e50005465000073740000696e00006720000054
:104e6000636f00006d7000006c65000074650000e9
:104e70000054000065730000746900006e67000054
:104e800020660000616900006c650000640000009d
:104e90005465000073740000696e00006720000014
:104ea000736b000069700000706500006400000012
:104eb0004d6f000074650000204900004420000090
:104ec0003d200000257500002c20000061640000da
:104ed0006472000065730000732000003d20000034
:104ee00030780000252e000032580000252e0000ea
:104ef0003258000000520000582000006d6f000082
:104f00006465000000540000582000006d6f000030
:104f10006465000000530000656e0000736f0000c0
:104f200072200000696e00006974000020640000b7
:104f30006f6e00006500000050610000796c000099
:104f40006f61000064200000696e00006974000059
:104f5000206400006f6e00006500000052610000d8
:104f6000646900006f200000776f00006b6500002f
:104f70002075000070000000556e00006b6e000090
:104f80006f7700006e20000070610000796c0000f7
:104f90006f61000064200000656c0000656d00001a
:104fa000656e000074200000696e000064650000fa
:104fb000783a000020250000750000000d00000078
:104fc0006d680000722000006c6500006e670000d4
:104fd00074680000203d00002025000064000000ef
:104fe00070610000796c00006f61000064200000b7
:104ff0006c6500006e6700007468000020620000ad
:1050000069740000732000002862000079740000b9
:1050100065730000292000003d2000002564000089
:10502000202800002564000029000000746f0000a3
:10503000746100006c2000006c6500006e67000069
:1050400074680000203d000020250000640000007e
:10505000546f0000746100006c2000006c6500005b
:105060006e67000074680000207400006f6f00001d
:105070002062000069670000212000004d610000ef
:10508000786900006d7500006d20000069730000f4
:10509000202500006400000061640000632000001f
:1050a0003d200000257500002c20000072680000e3
:1050b000203d000020250000752c00002074000019
:1050c000656d0000702000003d2000002566000096
:1050d0002c200000707200006573000073750000e2
:1050e00072650000203d0000202500006c75000066
:1050f000005500006e6b00006e6f0000776e0000c0
:10510000207700006f7200006420000073690000c7
:105110007a6500003a2000002564000000250000a8
:105120007520000054580000002500007520000084
:10513000525800000025000075200000696400003e
:10514000203d0000202500006300000025750000c0
:10515000207700006f720000642000006c65000082
:105160006e67000074680000203d000020250000ec
:105170007500000025750000206e0000756d0000b0
:1051800062650000722000006f660000207700005a
:105190006f72000064730000203d000020250000b5
:1051a0007500000025750000206400006174000097
:1051b000612000003d200000003c0000257500003b
:1051c0003e000000257500002064000061740000ae
:1051d0006120000025750000203d00002025000012
