:020000040000fa
:080000000002040000000000f2
:020000040000fa
:040008003c040000b4
:020000040000fa
:04000c003c040000b0
:020000040000fa
:040010003c040000ac
:020000040000fa
:040014003c040000a8
:020000040000fa
:040018003c040000a4
:020000040000fa
:04001c003c040000a0
:020000040000fa
:040020003c0400009c
:020000040000fa
:040024003c04000098
:020000040000fa
:040028003c04000094
:020000040000fa
:04002c003c04000090
:020000040000fa
:040030003c0400008c
:020000040000fa
:040034003c04000088
:020000040000fa
:040038003c04000084
:020000040000fa
:04003c003c04000080
:020000040000fa
:040040003c0400007c
:020000040000fa
:040044003c04000078
:020000040000fa
:040048003c04000074
:020000040000fa
:04004c003c04000070
:020000040000fa
:040050003c0400006c
:020000040000fa
:040054003c04000068
:020000040000fa
:040058003c04000064
:020000040000fa
:04005c003c04000060
:020000040000fa
:040060003c0400005c
:020000040000fa
:040064003c04000058
:020000040000fa
:040068003c04000054
:020000040000fa
:04006c003c04000050
:020000040000fa
:040070003c0400004c
:020000040000fa
:040074003c04000048
:020000040000fa
:040078001003000071
:020000040000fa
:04007c003c04000040
:020000040000fa
:040080003c0400003c
:020000040000fa
:040084003c04000038
:020000040000fa
:040088003c04000034
:020000040000fa
:04008c003c04000030
:020000040000fa
:040090003c0400002c
:020000040000fa
:040094003c04000028
:020000040000fa
:040098003c04000024
:020000040000fa
:04009c003c04000020
:020000040000fa
:0400a0003c0400001c
:020000040000fa
:0400a4003c04000018
:020000040000fa
:0400a8003c04000014
:020000040000fa
:0400ac003c04000010
:020000040000fa
:0400b0003c0400000c
:020000040000fa
:0400b4003c04000008
:020000040000fa
:0400b8003c04000004
:020000040000fa
:0400bc003c04000000
:020000040000fa
:0400c0003c040000fc
:020000040000fa
:0400c4003c040000f8
:020000040000fa
:0400c8003c040000f4
:020000040000fa
:0400cc003c040000f0
:020000040000fa
:0400d0003c040000ec
:020000040000fa
:0400d4003c040000e8
:020000040000fa
:0400d8003c040000e4
:020000040000fa
:0400dc003c040000e0
:020000040000fa
:0400e0003c040000dc
:020000040000fa
:0400e4003c040000d8
:020000040000fa
:0400e8003c040000d4
:020000040000fa
:0400ec003c040000d0
:020000040000fa
:0400f0003c040000cc
:020000040000fa
:0400f4003c040000c8
:020000040000fa
:0400f8003c040000c4
:020000040000fa
:0400fc003c040000c0
:020000040000fa
:040100003c040000bb
:020000040000fa
:040104003c040000b7
:020000040000fa
:040108003c040000b3
:020000040000fa
:04010c003c040000af
:020000040000fa
:040110003c040000ab
:020000040000fa
:040114003c040000a7
:020000040000fa
:040118003c040000a3
:020000040000fa
:04011c003c0400009f
:020000040000fa
:040120003c0400009b
:020000040000fa
:040124003c04000097
:020000040000fa
:040128003c04000093
:020000040000fa
:04012c003c0400008f
:020000040000fa
:040130003c0400008b
:020000040000fa
:040134003c04000087
:020000040000fa
:040138003c04000083
:020000040000fa
:04013c003c0400007f
:020000040000fa
:040140003c0400007b
:020000040000fa
:040144003c04000077
:020000040000fa
:040148003c04000073
:020000040000fa
:04014c003c0400006f
:020000040000fa
:040150003c0400006b
:020000040000fa
:040154003c04000067
:020000040000fa
:040158003c04000063
:020000040000fa
:04015c003c0400005f
:020000040000fa
:040160003c0400005b
:020000040000fa
:040164003c04000057
:020000040000fa
:040168003c04000053
:020000040000fa
:04016c003c0400004f
:020000040000fa
:040170003c0400004b
:020000040000fa
:040174003c04000047
:020000040000fa
:040178003c04000043
:020000040000fa
:04017c003c0400003f
:020000040000fa
:040180003c0400003b
:020000040000fa
:040184003c04000037
:020000040000fa
:040188003c04000033
:020000040000fa
:04018c003c0400002f
:020000040000fa
:040190003c0400002b
:020000040000fa
:040194003c04000027
:020000040000fa
:040198003c04000023
:020000040000fa
:04019c003c0400001f
:020000040000fa
:0401a0003c0400001b
:020000040000fa
:0401a4003c04000017
:020000040000fa
:0401a8003c04000013
:020000040000fa
:0401ac003c0400000f
:020000040000fa
:0401b0003c0400000b
:020000040000fa
:0401b4003c04000007
:020000040000fa
:0401b8003c04000003
:020000040000fa
:0401bc003c040000ff
:020000040000fa
:0401c0003c040000fb
:020000040000fa
:0401c4003c040000f7
:020000040000fa
:0401c8003c040000f3
:020000040000fa
:0401cc003c040000ef
:020000040000fa
:0401d0003c040000eb
:020000040000fa
:0401d4003c040000e7
:020000040000fa
:0401d8003c040000e3
:020000040000fa
:0401dc003c040000df
:020000040000fa
:0401e0003c040000db
:020000040000fa
:0401e4003c040000d7
:020000040000fa
:0401e8003c040000d3
:020000040000fa
:0401ec003c040000cf
:020000040000fa
:0401f0003c040000cb
:020000040000fa
:0401f4003c040000c7
:020000040000fa
:0401f8003c040000c3
:020000040000fa
:0401fc003c040000bf
:020000040000fa
:040208003c040000b2
:020000040000fa
:04020c003c040000ae
:020000040000fa
:040210003c040000aa
:020000040000fa
:040214003c040000a6
:020000040000fa
:040218003c040000a2
:020000040000fa
:04021c003c0400009e
:020000040000fa
:040220003c0400009a
:020000040000fa
:040224003c04000096
:020000040000fa
:040228003c04000092
:020000040000fa
:04022c003c0400008e
:020000040000fa
:040230003c0400008a
:020000040000fa
:040234003c04000086
:020000040000fa
:040238003c04000082
:020000040000fa
:04023c003c0400007e
:020000040000fa
:040240003c0400007a
:020000040000fa
:040244003c04000076
:020000040000fa
:040248003c04000072
:020000040000fa
:04024c003c0400006e
:020000040000fa
:040250003c0400006a
:020000040000fa
:040254003c04000066
:020000040000fa
:040258003c04000062
:020000040000fa
:04025c003c0400005e
:020000040000fa
:040260003c0400005a
:020000040000fa
:040264003c04000056
:020000040000fa
:040268003c04000052
:020000040000fa
:04026c003c0400004e
:020000040000fa
:040270003c0400004a
:020000040000fa
:040274003c04000046
:020000040000fa
:040278003c04000042
:020000040000fa
:04027c003c0400003e
:020000040000fa
:040280003c0400003a
:020000040000fa
:040284003c04000036
:020000040000fa
:040288003c04000032
:020000040000fa
:04028c003c0400002e
:020000040000fa
:040290003c0400002a
:020000040000fa
:040294003c04000026
:020000040000fa
:040298003c04000022
:020000040000fa
:04029c003c0400001e
:020000040000fa
:0402a0003c0400001a
:020000040000fa
:0402a4003c04000016
:020000040000fa
:0402a8003c04000012
:020000040000fa
:0402ac003c0400000e
:020000040000fa
:0402b0003c0400000a
:020000040000fa
:0402b4003c04000006
:020000040000fa
:0402b8003c04000002
:020000040000fa
:0402bc003c040000fe
:020000040000fa
:0402c0003c040000fa
:020000040000fa
:0402c4003c040000f6
:020000040000fa
:0402c8003c040000f2
:020000040000fa
:0402cc003c040000ee
:020000040000fa
:0402d0003c040000ea
:020000040000fa
:0402d4003c040000e6
:020000040000fa
:0402d8003c040000e2
:020000040000fa
:0402dc003c040000de
:020000040000fa
:0402e0003c040000da
:020000040000fa
:0402e4003c040000d6
:020000040000fa
:0402e8003c040000d2
:020000040000fa
:0402ec003c040000ce
:020000040000fa
:0402f0003c040000ca
:020000040000fa
:0402f4003c040000c6
:020000040000fa
:0402f8003c040000c2
:020000040000fa
:0402fc003c040000be
:020000040000fa
:040300003c040000b9
:020000040000fa
:040304003c040000b5
:020000040000fa
:040308003c040000b1
:020000040000fa
:04030c003c040000ad
:020000040000fa
:040310003c040000a9
:020000040000fa
:040314003c040000a5
:020000040000fa
:040318003c040000a1
:020000040000fa
:04031c003c0400009d
:020000040000fa
:040320003c04000099
:020000040000fa
:040324003c04000095
:020000040000fa
:040328003c04000091
:020000040000fa
:04032c003c0400008d
:020000040000fa
:040330003c04000089
:020000040000fa
:040334003c04000085
:020000040000fa
:040338003c04000081
:020000040000fa
:04033c003c0400007d
:020000040000fa
:040340003c04000079
:020000040000fa
:040344003c04000075
:020000040000fa
:040348003c04000071
:020000040000fa
:04034c003c0400006d
:020000040000fa
:040350003c04000069
:020000040000fa
:040354003c04000065
:020000040000fa
:040358003c04000061
:020000040000fa
:04035c003c0400005d
:020000040000fa
:040360003c04000059
:020000040000fa
:040364003c04000055
:020000040000fa
:040368003c04000051
:020000040000fa
:04036c003c0400004d
:020000040000fa
:040370003c04000049
:020000040000fa
:040374003c04000045
:020000040000fa
:040378003c04000041
:020000040000fa
:04037c003c0400003d
:020000040000fa
:040380003c04000039
:020000040000fa
:040384003c04000035
:020000040000fa
:040388003c04000031
:020000040000fa
:04038c003c0400002d
:020000040000fa
:040390003c04000029
:020000040000fa
:040394003c04000025
:020000040000fa
:040398003c04000021
:020000040000fa
:04039c003c0400001d
:020000040000fa
:0403a0003c04000019
:020000040000fa
:0403a4003c04000015
:020000040000fa
:0403a8003c04000011
:020000040000fa
:0403ac003c0400000d
:020000040000fa
:0403b0003c04000009
:020000040000fa
:0403b4003c04000005
:020000040000fa
:0403b8003c04000001
:020000040000fa
:0403bc003c040000fd
:020000040000fa
:0403c0003c040000f9
:020000040000fa
:0403c4003c040000f5
:020000040000fa
:0403c8003c040000f1
:020000040000fa
:0403cc003c040000ed
:020000040000fa
:0403d0003c040000e9
:020000040000fa
:0403d4003c040000e5
:020000040000fa
:0403d8003c040000e1
:020000040000fa
:0403dc003c040000dd
:020000040000fa
:0403e0003c040000d9
:020000040000fa
:0403e4003c040000d5
:020000040000fa
:0403e8003c040000d1
:020000040000fa
:0403ec003c040000cd
:020000040000fa
:0403f0003c040000c9
:020000040000fa
:0403f4003c040000c5
:020000040000fa
:0403f8003c040000c1
:020000040000fa
:0403fc003c040000bd
:020000040000fa
:100400002f9e20000e7f22000e01880000000000b9
:10041000000020000000e000020032000001200087
:100420002002880014000700690107000000e000b6
:1004300003003a00400122000100200002003700c2
:100440000000200001002000810f70000100320038
:1004500014000700000020000000e000020032004d
:100460000000020000000000e41c02000000000088
:100470000040da000000fe004440a9000011200006
:100480000000e000030032000020200090018800fe
:100490004440a800000006008a1f78008b1f7800e7
:1004a00000000600a1028800800478000000eb0034
:1004b0001f003700e284440054a0b4009905ba003c
:1004c000e284440054a0b4009906ba00e2844400d7
:1004d00054a0b4000006eb00476fde00fd07b20039
:1004e000ae018800636ce10003003a00eaff0700f8
:1004f0000000eb000e003700606ce10008003a00dd
:10050000004deb000a05e800020039003420ec0041
:100510000af0a0008b05e900f9ff3e000400370057
:100520006168e100010032000086eb000b0007006b
:1005300019c7ba001905ba000e04e00003003a001a
:100540000a00e000dbff3a0000000600fe07b200f0
:10055000ae0288008a047800f5ff37000cd0a300b3
:10056000e20f4d001c00390089027800354dba00b9
:100570000a05e800020039003420ec000af0a0006f
:100580008b05e9000f003200254dba000a05e8008e
:10059000020039003420ec000af0a0008b05e900cd
:1005a000080032000c00e0000600320015cdba0051
:1005b0000a05e800020039003420ec000af0a0002f
:1005c0008b05e9008984e80054a0b4000b00e0002a
:1005d000e2ff3a00000006009902ba00055d7800cb
:1005e0008b05e900f7ff3200c82ade00055d7800c0
:1005f0008b05e900f3ff32000c00e000f1ff320050
:1006000019ddba00eeff3700000000000000000016
:1006100000000000000000000000000000000000da
:100620003600f800809fbe00829fbe00849fbe00ff
:10063000869fbe00881f78000c00fa009680a900f3
:1006400010c3b30018090700204798002e409000ff
:100650000004e0007c0032002e4090000080fb008f
:10066000690060000000e0006900320000c8bf00bf
:100670000004e000520032002e4090000080fb0099
:10068000680060000000e0007100320090c3b30019
:10069000050907000024a0008040780090c3b30043
:1006a0003309070000302000e608070030479800b3
:1006b00010302000200798003e4090000080fb0092
:1006c0002030b00030079800ae009000010f780095
:1006d000070037002e0090001e0410001e00780056
:1006e000d80807002180200080707c001e0fe800e1
:1006f0003e0090009e007800808f5000f5ff36008d
:100700001e00e800cf080700004f98001e80e80098
:10071000cc080700104f980090c3b300e208070010
:1007200080407800b0cfb30000c0700080407800f7
:1007300090c3b3000e090700304b2900801f7800da
:10074000ec0007008f87e9000000eb00000f780045
:1007500006003700208020001e0040001040780076
:100760000080fb00a20007001e0fe8003e40900042
:100770000080fb009e0f5000f6ff3e00804a2900db
:100780009d0007000e4890000080fb00801f78004d
:10079000104c2900801f7800d6000700e48757001e
:1007a0001e4890000080fb00801f7800c04c29008c
:1007b000801f7800cf000700e4875700240037002f
:1007c0002e4090000080fb00610060000040780037
:1007d0000004e0001e00320040c2b300b20807006f
:1007e000204f98002e4890000080fb0061006000c0
:1007f0000000e00003003a00804d29007e00070061
:1008000013003700704e29007b00070010003700ee
:100810002e4090000004e00003003d00204f29001e
:10082000750007000a0037002e4090000080fb0092
:10083000801f7800e04f2900801f7800ad0007007e
:10084000e487570002003700f05029006a000700d3
:100850008680a9009680a8000080fa004f047800e6
:100860004f03be004f02be004f01be004f00be004e
:100870003600f900004006000040da000000fe00eb
:100880000a00fa0011002000b1bf9f00c0bf9f0006
:100890006a805700b50607004fb897000080fa003d
:1008a000000006000a00fa0051002000b1bf9f00be
:1008b000c0bf9f006a805700ae0607005fb8970070
:1008c0000080fa0000000600889fbe0080047800c7
:1008d000004f80000000e00004003a000e00070016
:1008e0000084eb000000e00008003500084f8000a5
:1008f0000900e0000500320009004400060007007e
:100900000000e00001003d000084eb0008007800da
:100910004f04be0000000600800078000100e000e7
:1009200003003a0000002000004f8800000005008e
:100930000080eb0002002000828f500002003e0089
:10094000014f88000000eb00000006000800fa00dc
:100950001007980021079800320798000000000057
:100960001128800000102000008060000000e000de
:10097000fbff3200be009000010f78000e00370030
:10098000000000001128800000102000008060009e
:100990000000e000fbff32002e00900010407800c5
:1009a0000000fb00202888002e0090000000e800d6
:1009b000200798001e0fe9001e0078000000e000ec
:1009c000efff3a003e0090000080fa0000000600b1
:1009d000000005008001780002003700b15978005e
:1009e0000201e9000200e000fcff3a0000000600fe
:1009f000a19320000b003700a19320005d020700a7
:100a0000800078000080eb000100e0000400350069
:100a1000a1932000a0002000020007004f80de000c
:100a200000000600889fbe008a1f78000004be00f8
:100a3000c900900069009000808f500005003900c7
:100a4000090078000d0307008080eb000000e00043
:100a500016003500084578004900900008587800d5
:100a6000c00498001900780000b8a30004003a0000
:100a700000a8a30007003200ea4f540005003a0026
:100a800009007800000207008080eb000000e00011
:100a900006003a0000c02000190060000200320089
:100aa00049009000e00498008a80fb000100780073
:100ab0004f0578004f04be0000000600889fbe006e
:100ac0000004780001007800820478008801780032
:100ad00009017800110020006e020700890f500004
:100ae000010032000004eb00080078004f04be0053
:100af000000006000000fa00e88157004fb9970097
:100b0000a1932000e0552000020007000080fa00b9
:100b1000000006006200fa00889fbe008a1f78006d
:100b200000057800810478000204780083007800d2
:100b300080f92f000f004000020507009a979f00e0
:100b4000a9979f000000eb00b09f9f001885fb0055
:100b50008a04fb000a05ea004f55de00500220001f
:100b6000808f54000d003200e10f55000b003a0059
:100b70000a017800880078002f9097009f919700d5
:100b800003000100a0979f000000e0008e003200eb
:100b90003f9897000000e800b09f9f000a044400bf
:100ba00050022000808f5400040032000900e00051
:100bb000e6ff3a003f989700840037000000eb0002
:100bc000909f9f00809f9f00f0979f00e0979f005d
:100bd000d0979f00c0979f0007003700019d20001d
:100be0000100500000004000419c2000610078009e
:100bf000df98970001007000d09f9f008804780064
:100c000009047800384578008a00fb00009d200028
:100c10007e0207000000e000f0ff3a00a1c2b3002e
:100c2000814f55000e003a00cf8897000180e900ff
:100c3000c08f9f0010007800c09f9f000000e00060
:100c400005003d000000ea00c09f9f005f989700ec
:100c50000020a000d09f9f000904e8000f0037008b
:100c6000c09f9f000000eb0005003700f2ff270047
:100c7000820f5000020032006a01b9000280400079
:100c80000904780088047800b900fb000103b10072
:100c9000e98f5000f5ff3600c09f9f00e0c2b3000f
:100ca000984f1000020032000080eb00190037005e
:100cb000a0c2b300d84f100007003a00cf889700b9
:100cc0000180e900c08f9f0010007800a09f9f0066
:100cd0000804e800100037000000eb00a09f9f0010
:100ce0008800780005003700f3ff2700830f5000cd
:100cf000020032006a02b9000400410001047800d9
:100d0000880078003101fb000203b100e90f5100b7
:100d1000f5ff3600a09f9f00984478008900fb00f3
:100d2000c09b2000390207000000e00002003200f2
:100d30000804e800010037008044eb00c97f9f00f1
:100d400080c6b30080cf540004003a0098cf14004e
:100d50000a003a006640500006003700c0c6b300e3
:100d600080cf540005003a0098cf140003003a00e9
:100d700065404000c07f9f000804e8001801fb00a8
:100d8000e3fb2f008f81410081f92f008f8040000d
:100d9000a0f92f000f004000100007000000e00045
:100da00009003a00e1fb2f008f804000a0f92f00de
:100db0000f004000a70307000000e000020035001c
:100dc0000804e80061ff37000080eb004f05780061
:100dd0004f04be000080fa0000000600889fbe009d
:100de0008a1f780000047800e0c6b300804f5100ed
:100df000c100320015003c006b405000804f510094
:100e0000240032000a003c0070405000804f510026
:100e1000fa00320065404000804f51006800320007
:100e200050c2b300804f51000b013a000701370058
:100e300040c6b300804f51001b00320065404000a7
:100e4000804f510004013a001700370030c7b3004b
:100e5000804f5100e900320007003c006440500020
:100e6000804f5100560032000040e800804f510092
:100e7000f9003a00d300370050c7b300804f51004b
:100e80004f00320063404000804f5100f2003a00b2
:100e90004b0037001181e90082087800780090004b
:100ea00012417800ea00370028609000c4c6b30001
:100eb000844f500007003a0011027800640052008d
:100ec000800878001002be004fabde008603780079
:100ed0001100370014c7b300844f500003003200e4
:100ee000a4c6b300844f500006003a0011027800f7
:100ef00068005200800878003002be002003be0067
:100f0000050037001180e9008008780010027800a1
:100f1000cfa2de00612bb900049cbe000694be0087
:100f20002860900081c6b300814f50000d00320050
:100f300021c6b300814f500004003a000402fb00b8
:100f4000cfa2de00612bb9000800370041c7b30013
:100f5000814f500003003200e6c04000814f500036
:100f600004003a00cfa2de00612bb900049cbe0051
:100f70000694be003802be002803be007800900030
:100f8000d1c2b300e00f5200e08f5a00e00f5b00c7
:100f9000e08f5b0008003500881090000118a30066
:100fa00002003200b1c2b300030037000108a30001
:100fb0004c00320001c2b300817178004700370055
:100fc00028609000c4c6b300844f500006003a0069
:100fd0001102780064005200800878001002be0000
:100fe0006033b8001100370014c7b300844f5000bd
:100ff00003003200a4c6b300844f500006003a003c
:101000001102780068005200800878003002be00ab
:101010002003be00050037001180e9008008780039
:10102000100278008002eb006033b800049cbe0020
:101030000694be002860900081c6b300814f500026
:101040000d00320021c6b300814f500004003a0069
:101050000482fb008002eb006033b8000800370018
:1010600041c7b300814f500003003200e6c040008a
:10107000814f500004003a008002eb006033b8005a
:10108000049cbe000694be00081090000038a30027
:10109000140032003802be002803be00e00f5200e8
:1010a000e08f5a00e00f5b00e08f5b000d00320024
:1010b00080c7b300804f51000300320080c5b300e9
:1010c000804f510007003a007800900001c3b30040
:1010d000817178000000e800827178000000e8006b
:1010e00070049800780090008081410063049800ab
:1010f000824078003e00370028619000c3c6b300ec
:101100001180e900834f5100220032000a003c00a8
:10111000e4c15100834f51002500320083c1e80033
:10112000834f510013003200e8c15100834f51003a
:101130001e003a000a00370043c7b300834f510036
:101140001b003200e6c14100834f510018003200fd
:10115000e9c15100834f510014003a0005003700e7
:101160008008780010007800485c900008487800fb
:10117000410037008008780010007800680a90006d
:10118000cfa2de00612bb9000498be000690be001d
:101190003900370080087800100078006809900056
:1011a000cf91de000288be00330037001180e900d5
:1011b0008008780010007800680c9000080878001b
:1011c0002d0037001180e9008008780010027800b7
:1011d000cfa2de00612bb900049cbe000694be00c5
:1011e00078009000808141006304980081c7b300bb
:1011f00008007800680107001f0037001180e9002f
:1012000080087800100578006a049800d80c9000d7
:101210000900e00004003d000a0078000701070013
:101220008004780007003700090178008000eb0097
:101230000a007800eb0007000000e0000100320027
:101240008a045000190c98000b00370078009000b9
:10125000827178000600370078009000808141009c
:101260000204e00001003a0052c2b3008249780053
:101270000000e800700498000000eb004f057800c3
:101280004f04be0000000600889fbe008a1f780041
:10129000000478000800e0000d003a008898200063
:1012a000700544008004eb00580078000000e00066
:1012b00004003200f4ff07000000e00001003d00e0
:1012c0008084eb008a0f5400f7ff3a0025003700b6
:1012d00000002200180060008004eb0021003200b2
:1012e000a80490000f003700090151003840900019
:1012f0000000fb008900780094fd07000000e0007a
:1013000007003c002800900040049800600498000a
:10131000500c98001890a0008084eb00110037005a
:101320008084440048019000828f5400eeff390011
:1013300028009000400498009800780002c0200027
:101340000281600001003a003800900001e8a3002b
:10135000020032006004980001003700500c980031
:101360008004eb00090078004f0578004f04be00b0
:1013700000000600889fbe008a9fbe00800478009f
:10138000010478002c003700c8009000680090002d
:10139000808f50000400390008007800b700070073
:1013a0000000e00037003500004020001800600019
:1013b00009003200a100200009007800a500070004
:1013c000800578000b00e000030032006185140006
:1013d0000a854500040037000900780097000700df
:1013e000000578008005eb0048009000e8009000c0
:1013f000808050008a8f5000020031000105780083
:101400008005eb000a0178008900780071fd070073
:10141000480090000a004000400498000b00e000e3
:10142000040032000800780097ff07000000e00089
:1014300014003a008a8444001904e000d2ff3a0004
:1014400000802000180060000600320008007800cc
:101450008dff0700800078000080eb000100e000b5
:1014600009003a0001c02000988060000000eb00f5
:101470000500320048009000600498000000eb0076
:10148000010037000080eb004f05be004f04be0096
:1014900000000600889fbe008a9fbe008c9fbe0091
:1014a0008e1f7800000678000104780002007800a2
:1014b000830478000881b900020778000200e00088
:1014c000420032000800e00041003200820578004e
:1014d000c900900069009000808f5000040039001e
:1014e00009007800650007000000e00029003500d1
:1014f00000402000190060000a0032000b01780053
:10150000a10020000c00780036000700800678005b
:101510000d00e00006003200610516000a85460055
:10152000040037000b0578008006eb00010037004f
:101530000b05780049009000e90090008080500081
:101540008a8f500002003100010578008006eb0010
:101550000a0178008c0078001efd07008a8555007e
:10156000490090000a004000c00498000d00e0000f
:10157000040032000900780043ff07000000e0008b
:1015800004003a000b00e000020032000a064600a8
:10159000cfff3700008020001900600002003200f9
:1015a0000900780038ff070000c020001900600023
:1015b0000200320049009000e00498008b055700bb
:1015c000110009008885d800010037000000eb00f9
:1015d0004f0778004f06be004f05be004f04be0007
:1015e0000000060003003700b0cf100005003200f5
:1015f0000201e900800178000200e000faff3a00f1
:10160000000005000300780000000600020037001b
:101610000304e000060032000001780002007800b8
:10162000b041780081cf5100f9ff3a000100370046
:101630000001eb0002007800000006008000780046
:10164000010178003104e000fdff3a000000510084
:10165000000006000001eb0000027800b0417800b5
:1016600081cf510001003a00040178000304e0003a
:10167000f9ff3a000200780000000600889fbe00d3
:101680008a1f780000047800c8009000680190006c
:101690000000eb00828f50003c00390018007800f9
:1016a0002200290002016000e20f51000700320011
:1016b000012024000000e00001003d000120200086
:1016c000008c70000080eb00300037000200260024
:1016d00002006000820f500009003a0038009000bc
:1016e000808f50000600390008007800e6fe0700f1
:1016f000800078000080eb000100e00023003a0049
:101700001805780000c020000000650018003a00ad
:10171000a80490006002200008004000808f540060
:1017200013003a0000202000dc020700200498008b
:101730000000e00005003a002904980049049800e0
:101740008904e80039049800080037000a60a00006
:101750000a0c78004004980001202000808040009e
:1017600031049800400c9800500c9800f9010700d3
:101770002800900050049800380090006004980001
:1017800000002600180c70000000eb004f057800e8
:101790004f04be0000000600fc874700889fbe0083
:1017a0008a9fbe008c9fbe008e1f780000067800c6
:1017b00080c5b30080cf50000a003200774040005f
:1017c00080cf50000a0032006940400080cf5000b6
:1017d0000b003200b09a200080bf9f00ae002000b6
:1017e0000a003700a299200082bf9f000600370040
:1017f000b39a200083bf9f008e00200003003700b3
:10180000b49a200084bf9f000e0120003c02be005d
:101810002c03be000605be000404be0040c6b30093
:1018200080cf5000030032006540400080cf500060
:101830000b003a00e00f5200e08f5a00e00f5b000f
:10184000e08f5b0006003d006000b8006011b8004a
:101850000404500085845800060559008785590006
:10186000e80f57000400320040002000f00f57003e
:1018700038003a000100370030002000e00f54002b
:10188000e08f5c00e00f5d00e08f5d0004003a0037
:10189000dc0890008d0120000100e000060032000d
:1018a0008e00e900888060008fba9700e5c078005c
:1018b000f1ef9f007d012000800078008100e900a9
:1018c000050033008b05d1000a85d3008984d3003d
:1018d0000884d300f9ff3700089ebe000a96be00b8
:1018e000120037008d06e9008e00e9008480600058
:1018f0000fb99700e2c1780082fd2f000f0141006f
:1019000003f17e00800078008100e90005003300cb
:101910008783d1000683d3008582d3000482d3005d
:10192000f9ff3700049ebe000696be003c02be00d2
:101930002c03be00e00f5200e08f5a00e00f5b0066
:10194000e08f5b008b0034000d00e000e5ff3c0001
:10195000880037002c60900081c6b300814f500092
:101960000b00320006003c000004e00008003200da
:10197000e6c05000814f50004e003a00040037008e
:10198000c1c6b300814f50004a003a002100370021
:101990000800e00004003a005c0890008d0120007f
:1019a0000000e00006003200110009000e84d8009b
:1019b0000fb99700e2c07800f1ef9f007d01200091
:1019c000110009000e84d8000a0037001100090038
:1019d0000e04d8008d06e9000e81b90002045400ff
:1019e0008fb8970061417c0081fd2f008f804000ff
:1019f00082f07e00000478000800e000020032005f
:101a00000d00e000f1ff3c00cfc4de00614db900e5
:101a100025003700e00f5400e08f5c0004003a001e
:101a20005c0890008d0120000000e00007003200fb
:101a30006171b9000800be006f0207008fb99700fe
:101a4000e3417800f3ef9f007d0120006171b90050
:101a50000800be00580207000b0037006171b90092
:101a60000800be00450207008d06e90000f1b9003c
:101a7000020454000fba9700e4427c0084fd2f005a
:101a80000f02420005f27e000004be00e00f50008d
:101a9000e08f5800020032000d00e000efff3c0034
:101aa0004fcdde008a057800089ebe000a96be0073
:101ab00030003700e00f5400e08f5c00e00f5d0065
:101ac000e08f5d0004003a005c0890008d0120006a
:101ad0000000e000090032006172b900612bb9001a
:101ae0000800be000a01be00ec0207000fba970012
:101af00064427800f4ef9f007d0120006172b9001c
:101b0000612bb9000800be000a01be00dc0207001c
:101b10000d0037006172b900612bb9000800be00ea
:101b20000a01be00e10207008d06e90000f2b900db
:101b3000040454008fba970065427c0085fd2f0095
:101b40008f82420084f27e00009ebe000296be009c
:101b50003c04be002c05be00e00f5400e08f5c008a
:101b6000e00f5d00e08f5d00020034000d00e0003a
:101b7000e8ff3c00e80f570010003a000c109000fe
:101b80000038a3000d003200f78f560006003e001b
:101b900085fd2f008f824200e5c07e0000c3b300a8
:101ba00080cf5000050032008d06e90002c3b3006b
:101bb00081fd2f008f80400082f07e00788116002a
:101bc000120e98006c00900083fd2f008f81410061
:101bd0008d8041007ffb07001c089000dc0890000e
:101be000810f500006003d0000805000000e98005c
:101bf0000c1090000040a100001698000f00370064
:101c00000100e0000d003d008c109000f4806000a9
:101c1000f08f500009003a007c099000fc00900011
:101c2000810051000c09900082805000008050001b
:101c30004240a90001003400000e98004f077800d0
:101c40004f06be004f05be004f04be00cf01b100dd
:101c5000000006000400fa00889fbe008a9fbe00b4
:101c60008c1f78000004780001067800f80d9000c1
:101c70007800900080855500080890008085550008
:101c80001808900080855500280890008085550030
:101c900038089000808555004808900080855500e0
:101ca0000002220090bf9f0000032300a0bf9f00fe
:101cb000081090000028a30015003a000b00e00077
:101cc000130034000b0578008a047800e20f5500f9
:101cd0000100360029002000c801900009017800a9
:101ce000ee80570058009000030001005004980057
:101cf0000000e0008c0032006808900009004000fd
:101d0000600c9800090555004240a900eeff3c0018
:101d1000780190000200e0000c003400c80190003f
:101d20008c007800580090000300010050049800d7
:101d30008080eb000000e0007c003200e8089000aa
:101d40007800900000804000600c9800880c9000a3
:101d50000900e0001100340009057800e28f54000a
:101d6000010036002a002000c80190000a01780016
:101d7000ec805700580090000300010050049800c8
:101d80000000e00068003200680890000a0040008f
:101d9000600c98008a845400edff37001809900009
:101da0000200e0000c003400c8019000e800900040
:101db0005800900003000100500498008080eb0060
:101dc0000000e00059003200e80890001808900078
:101dd00000804000600c9800a80c90000900e00012
:101de0001100340009057800e28f5400010036002c
:101df0002a002000c80190000a017800ec805700fa
:101e00005800900003000100500498000000e0001a
:101e100045003200680890000a004000600c9800fd
:101e20008a845400edff3700380990000200e0007a
:101e30000e003400e80090001808900080804000f8
:101e4000c801900058009000030001005004980061
:101e50008080eb000000e00034003200e8089000d1
:101e60003808900000804000600c9800c80c90007a
:101e70000900e0001100340009057800e28f5400e9
:101e8000010036002a002000c80190000a017800f5
:101e9000ec805700580090000300010050049800a7
:101ea0000000e00020003200680890000a004000b6
:101eb000600c98008a845400edff370008109000f1
:101ec0008000eb000028a300180032000b00e000a7
:101ed000160034008b04780009057800e28f540066
:101ee000010036002a002000c80190000a01780095
:101ef000ee80570058009000030001005004980045
:101f00000000e00008003200680890000a0040006d
:101f1000600c98008a8454004240a900eeff3c0007
:101f20008000eb00010037008080eb0001007800aa
:101f30004f0678004f05be004f04be000080fa0037
:101f4000000006000108780000000600c00421001f
:101f500061003700881f7800c89d20001804e00049
:101f600003003a00f9ff070020c0b300004c7800de
:101f70004f04780000000600889fbe00000478002f
:101f800008007800c0fc07008004780000042000ee
:101f90001800600002003200280090005a0007007c
:101fa0000000eb0020049800384090000004e0009e
:101fb000050035000000fb0031fa07000000e000da
:101fc000010032008084eb00181090000000e00057
:101fd0000800320033fa07000000e0000100320080
:101fe0008084eb0018109000470007000000eb0011
:101ff000101498000008200018006000150032003e
:102000000001eb006000b800a39820000202d0009d
:1020100063027a00880f520005003a000000400079
:1020200081804800008041000008eb000600370076
:1020300061004000e08048000201e800e80f500025
:10204000e08f5800f0ff3a00080078002e000700eb
:102050000e003700000c780000c0eb003044980000
:10206000600220000800400020049800400498000e
:1020700050049800400c980060049800500c9800a0
:102080007004980076004400000c98000900780065
:102090004f04be0000000600881f78000004eb001b
:1020a0006140b800e2ff2f00f3ff2f00d5000700ca
:1020b00082992000620078000000e00001003200f8
:1020c000adff07000804e800e80f5400f4ff3a00f1
:1020d0004f04780000000600010020000100e0002d
:1020e00008003200010080000100e000050032001d
:1020f0008100e900010088008100d000020080001a
:1021000000b17800000006000000e0002f0032005f
:10211000c0017800e38f51002c0036000308a300b3
:102120002a003a00c14e80000100e00002003200a7
:10213000810f50000400310011009800c04e88004b
:102140001600370082007800110190000200e000c4
:1021500002003200800f5100faff390011027800ae
:1021600084824000850f500018003900808f520093
:1021700003003a008308420001007800070037009e
:102180000200e0000300320083014000830f510091
:102190000e00390012009800900098009000900006
:1021a0000100e0000900320010014000828f500061
:1021b00006003a00629d20000009eb001001780043
:1021c00011084100910090001100980000000600e5
:1021d000889fbe0000047800b14e80000100e0003e
:1021e00002003200010078000d003700c14e80006f
:1021f000809d200004003700910f54002500360018
:102200000180e800910090000100e000faff3a0030
:1022100010003700920f54001e0036000280e800c4
:10222000100178000200e000faff3a001101780086
:10223000c14e8000809d200004003700910f5400a3
:10224000140036000180e80091009000828f500059
:10225000faff3a00f94e8000888f540001003100e7
:102260008804780009007800360007000000e000cc
:1022700004003a00888f5400050032008904d10020
:10228000f5ff3700091878009fff0700d2ff3700dd
:102290000000eb004f04be0000000600881f78001d
:1022a000630440000800a1008000eb00800f540090
:1022b00021003600e30f540001003e0048002000da
:1022c00008007800c2ff07008000eb000000e0007b
:1022d000190032009000780091017800648151006b
:1022e000880f5100030031001101900002087800ae
:1022f0000700370008814000020878009101900033
:102300001301980010017800110914008808780062
:10231000100178000000eb000200e0000400320031
:10232000920190000300e000010032000280e8000a
:10233000b04e88008180e800010078004f047800ea
:1023400000000600800078000000eb000100e000c3
:1023500005003400010078005bf90700e10f400040
:1023600001003a000000eb000000060000c0da00a7
:102370000000060000c0da0000000600839f68002d
:102380000100e00002003d0060001000e080180045
:102390000300e00002003d0060011100e08119002f
:1023a000050007004f00e00002003b006000100045
:1023b000e0801800000006006022b800060220003d
:1023c0000000d0008180d2000482d2008582d20039
:1023d0000000a0000202520083825a000300310074
:1023e0000202420083824a000000a1000603e900c5
:1023f000f3ff3a0000000600efff07000400be00f4
:1024000000000600020ab900001bb9000200b80073
:10241000810042008100430000000600889fbe004a
:102420008a9fbe0030044200b0844a0030054b0051
:1024300090854b006000b1000898be000a90be0075
:102440000440e10005c8e10006d0e10007d8e10042
:1024500002003100680040001008e8004f05be008f
:102460004f04be0000000600889fbe008a9fbe0089
:102470003004be002005be000418540005985c001e
:1024800006185d0007985d00110020000440e1007f
:1024900005c8e10006d0e10007d8e10001003900dd
:1024a0008000eb00108810004f05be004f04be00f6
:1024b000000006001200fa00889fbe008a9fbe003e
:1024c0008c9fbe00e0b79f00f1b79f0082bf9f00c6
:1024d00093bf9f000605be000404be000000eb0091
:1024e000d0b79f00c0b79f00b0b79f00a0b79f00b4
:1024f00090b79f000006eb005fb19700cfb0970048
:10250000820141003fb097000200e00004003d005e
:10251000370007007e805700c0ff07000300370028
:10252000330007007e805700cfff0700dfb697001b
:102530000d00e0000c0035006fb29700ffb297006d
:102540000fbb97009fbb97001000200001002000e8
:102550006011b800000272008182720002037300f1
:10256000838373001b0007000c06e80001042000b1
:10257000810f5600e0ff3a000d00e00004003d002e
:102580000802be000a03be007e805700a3ff0700ba
:102590005fa897000000e00005003a001fb2970016
:1025a000afb297003fb39700cfb397000900070081
:1025b0006fb09700ffb097000fb997009fb99700d1
:1025c0004f06be004f05be004f04be000080fa005b
:1025d000000006000100070000000600a4b79f00ed
:1025e000b5b79f00c6b79f00d7b79f000000060091
:1025f0004f09de0082817100b3b79f004f01de00fa
:102600008180400082807000a1b79f008fb097004a
:102610004f09de00000040000200700090b79f00ec
:102620007fa897004f01de0081804000828070000b
:1026300081b79f000d0007004f3ade000000400008
:1026400004007000f0af9f00080007000402420081
:1026500085824a0006034b0087834b00dfff07009b
:102660000802be000a03be00000006002fb2970059
:10267000bfb297004fb39700dfb39700000006008a
:10268000881f780018002000881f780089ff070045
:102690008f87e9004f04780000000600801feb00e0
:1026a00084ff07008f87e90000000600889fbe00b6
:1026b0008a9fbe00e00f5000e08f5800e00f5900e5
:1026c000e08f59000c003d006044b8006055b80030
:1026d0000000540081805c0002015d0083815d0088
:1026e000180020001500070008003d001800070032
:1026f0000004eb00050037000004eb000f000700aa
:1027000002003d001200070018002000dcff070057
:102710000800e000060032006022b8006033b80014
:102720000000520081805a0002015b0083815b003f
:102730004f05be004f04be0000000600e00f52002f
:10274000e08f5a00e00f5b00e08f5b0000000600a6
:102750006044b8006055b8000402540085825c00f3
:1027600006035d0087835d0000000600889fbe00b1
:102770008a9fbe008c1f7800e00f5000e08f580049
:10278000e00f5900e08f59000d003d006044b80093
:102790006055b8000000540081805c0002015d00bb
:1027a00083815d001c0020000820e10009a8e100f1
:1027b0000ab0e1000bb8e1000d003d000800370051
:1027c0000006eb00e00f5200e08f5a00e00f5b00c4
:1027d000e08f5b0006003d006044b8006055b80023
:1027e0000402540085825c0006035d0087835d005f
:1027f000aaff07000c00e000060032006022b800cb
:102800006033b8000000520081805a0002015b0072
:1028100083815b004f0678004f05be004f04be0069
:0428200000000600ae
:020000040000fa
:10282400626f00006172000064200000696e0000a5
:1028340069740000206400006f6e0000650d0000e4
:102844000072000061640000696f000020690000ec
:102854006e69000074200000646f00006e65000063
:102864000d00000052580000206d00006f6400004d
:10287400650d000000540000582000006d6f00003a
:10288400646500000d000000536c000065650000e5
:10289400706900006e6700002e2e00002e0d0000ef
:1028a400005700006f6b0000656e0000206600009a
:1028b400726f00006d200000736c000065650000fd
:1028c400700d000000530000746100007274000079
:1028d40020540000582000006c6f00006f7000004e
:1028e4000d00000054580000696e000067200000cd
:1028f4005b3200005d2b00002564000020620000b4
:1029040079740000657300003a2000005b30000019
:1029140078250000782c0000203000007825000085
:10292400785d00002022000025730000220d0000c5
:102934000a000000545800004e46000049460000ba
:102944004f2000003d20000022000000220d000066
:1029540000490000443a00002030000030300000fc
:10296400005200005820000070610000796c0000e3
:102974006f610000643a000020220000004c000057
:1029840051490000203d000020250000640d000096
:102994000a0000005253000053490000203d00008b
:1029a40020250000640d00000a00000054580000b7
:1029b40020730000756300006365000073730000fa
:1029c400667500006c0d00000054000058200000e3
:1029d40066610000696c0000656400000d00000081
:1029e400536c000065650000702000006f760000e5
:1029f400657200000d000000494e000054530000b1
:102a040054410000542000003d20000030780000b4
:102a1400257800000d0a0000004e00006f20000021
:102a240074610000736b0000730d0000000000006f
:102a3400257800003d250000780d00000a00000004
:020000040000fa
:102a44000400fa0010079800b00480004400de007f
:102a540061406000104798009680a9008f41a9004a
:102a64001e00900054030700004f78008f41a80017
:102a74001e409000614060000080fb006100600027
:102a84004400dd00b2048000f1fe2f0081006100eb
:102a940001007000b00488001e4078000080fa0035
:102aa400000006000400fa0020479800b0048000eb
:102ab4004400de0061406000104798009680a90041
:102ac4008f41a9002e409000e4020700004f7800d7
:102ad4008f41a8001e409000614060000080fb0010
:102ae400610060004400dd00b2048000f1fe2f00ac
:102af4008100610001007000b00488001e4078006d
:102b04000080fa00000006000600fa001007980092
:102b140041479800b00480004400de00614060003a
:102b2400004f78009680a9008f41a900ce40900004
:102b34001e009000600307008f41a8001e4078002b
:102b4400614060000080fb00610060004400dd0023
:102b5400b2048000f1fe2f008100610001007000ca
:102b6400b00488000080fa00000006000400fa00a7
:102b74002047980031479800b00480004400de00ec
:102b840061406000004f78009680a9008f41a90041
:102b9400be4090002e409000da0207008f41a8004a
:102ba4001e407800614060000080fb00610060000e
:102bb4004400dd00b2048000f1fe2f0081006100ba
:102bc40001007000b00488000080fa0000000600d4
:102bd4000000fa0061ceb30020c3b300e3ff070096
:102be4000080fa00000006000000fa0041c0b300b3
:102bf400a0c2b300ddff07000080fa000000060059
:102c04000000fa0021c0b300a0c2b300d7ff070040
:102c14000080fa00000006000000fa0011c0b300b2
:102c2400a0c2b300d1ff07000080fa000000060034
:102c34000200fa0060c3b3009aff0700004f780057
:102c44001e4078000024a0008040780060c3b300d8
:102c5400c6ff0700b0cfb3001e406000804078007c
:102c640060c3b300c1ff0700200020006e06070008
:102c74000080fa00000006000000fa00b0c1b300b2
:102c840088ff07000080fb004400de00004078005d
:102c9400614060000080fa00000006000000fa00b5
:102ca400d0c0b3007fff07000004a000804078007c
:102cb400d0c0b300adff07000080fa00000006009a
:102cc4000200fa00000f78001e0078004400dd00c6
:102cd400004078003040b30080407800002020009d
:102ce40089ff0700d2ff07000080fa0000000600f9
:102cf4000400fa002047980000c2b300004f780097
:102d04002e4090000004a2000004e0000200320003
:102d14001e14a000010037001e04a0009e4078008d
:102d24000040eb0091ff07000080fa00000006005d
:102d34000000fa000040eb005aff07000034a00036
:102d4400804078000040eb0088ff07000080fa0014
:102d5400000006000000fa000040eb0051ff0700ed
:102d640071cfb30001406000804078000040eb0068
:102d74007eff07000080fa00000006000200fa004f
:102d8400000f78001e007800104078008040780022
:102d940010c0b30075ff07001e00e8001040780063
:102da4008040780020c0b30070ff07000080fa0064
:102db400000006000200fa00000f78001e007800f0
:102dc400104078008040780030c0b30067ff0700ef
:102dd4001e00e800104078008040780040c0b30036
:102de40062ff07000080fa00000006000200fa00fb
:102df400000f78001e0078001040780080407800b2
:102e040050c0b30059ff07001e00e80010407800ce
:102e14008040780060c0b30054ff07001e80e800c3
:102e2400104078008040780070c0b3004fff070066
:102e34009e00780063804000104078008040780055
:102e440080c0b30049ff07009e0078006480400002
:102e5400104078008040780090c0b30043ff070022
:102e64009e00780065804000104078008040780023
:102e7400a0c0b3003dff07009e00780066804000bc
:102e84001040780080407800b0c0b30037ff0700de
:102e94009e007800678040001040780080407800f1
:102ea400c0c0b30031ff07000080fa000000060034
:102eb4000200fa00000f78001e007800104078002d
:102ec40080407800802320000fff07001e00e800e8
:102ed4001040780080407800902320000aff07000b
:102ee4000080fa00000006000200fa00000f7800db
:102ef4001e007800104078008040780000232000f5
:102f040001ff07001e00e8001040780080407800b0
:102f140010232000fcfe07001e80e800104078000b
:102f24008040780020232000f7fe07009e007800f0
:102f340063804000104078008040780030232000f7
:102f4400f1fe07009e007800648040001040780085
:102f54008040780040232000ebfe07009e007800ac
:102f640065804000104078008040780050232000a5
:102f7400e5fe07009e00780066804000104078005f
:102f84008040780060232000dffe07009e00780068
:102f94006780400010407800804078007023200053
:102fa400d9fe07000080fa00000006000800fa00bd
:102fb4002007980031079800b00480004400de0028
:102fc40061406000204798009680a9008f41a900c5
:102fd40011c0b3002e009000370207000000eb0080
:102fe400000f7800060037001e007800be00900035
:102ff4000080400010407800830107001e0fe800a5
:103004001e007800ef0f5000f7ff34008f41a80036
:103014002e409000614060000080fb006100600071
:103024004400dd00b2048000f1fe2f008100610045
:1030340001007000b00488000080fa00000006005f
:103044000000fa008f61a900300020007605070017
:103054008f61a80030002000730507000080fa008b
:10306400000006000000fa008f41a8008f81a8002c
:10307400f3ff070071c0b300a0c2b300bbfe07009a
:1030840081c9b30080c1b300b8fe070051c9b300c1
:10309400e0c2b300b5fe070031c0b3000020200039
:1030a40099fe070011c0b3001020200096fe07000f
:1030b40001c8b3002020200093fe070001c9b3001b
:1030c4006020200090fe070001c8b300702020009b
:1030d4008dfe070001c1b300802020008afe070096
:1030e40011c2b3000022200087fe070001c8b3000c
:1030f400a0c3b3009dfe070001c6b300f0c3b30034
:103104009afe070001c4b300e0c3b30097fe0700b2
:1031140061cbb30020c3b30094fe070041c0b300e9
:1031240060c3b30091fe0700800c20002c0507004b
:103134008040eb0060c3b3008cfe0700800c2000cd
:10314400270507000080fa00000006000200fa00cc
:1031540001c8b30020c2b30084fe070050c3b3000b
:1031640050fe0700004f78008f81a9009efe0700e3
:103174001e4078000074a0008040780050c3b30063
:103184007afe07000080fa00000006000000fa0042
:103194008f81a800a6fe07000080fa000000060048
:1031a4000c00fa00200798003107980042079800a5
:1031b40053079800be0090004e00900080804000ad
:1031c4005e009000008f4000b0c1b30035fe0700e0
:1031d40020479800ae409000d0cfb30000c06000fc
:1031e40020479800ae409000b0cfb30000c060000c
:1031f400204798002e009000104078000080fb00cb
:103204004300de00004078000080fb0061006000a5
:10321400004078000004e000030032002e409000db
:103224000014a000204798002e0090001040780061
:103234000080fb004500de00004078000080fb00b9
:1032440061006000004078000004e00003003200e8
:103254002e4090000024a00020479800b004800075
:103264004400de0061406000304798009680a90069
:103274008f41a9003e009000004078008040780013
:103284000000eb008c0107001e007800004078006d
:10329400dd000700060037002e0090001040780083
:1032a400ae0090008100e80021079800d6000700d6
:1032b40010c0b3009e0078000100e00001003c0053
:1032c4000040eb001e0fe9000004e000f2ff3a00aa
:1032d4008f41a8003e409000614060000080fb00e8
:1032e400610060004400dd00b2048000f1fe2f00a4
:1032f4008100610001007000b00488000080fa00c1
:10330400000006000200fa00004f78001147980000
:103314001e80fb00670060004300dd0080407800f1
:103324001e4090006740600000c07000804078003c
:10333400c0c2b3000dfe07000080fa0000000600c2
:103344000200fa0000c3b300d6fd07000080fb00b2
:103354004200de00004078000080fb006100600055
:1033640000f0a7000000ea000000ea004f00de00c1
:10337400004f78008040eb0000c3b300fbfd070062
:103384001e4078000080fa00000006000400fa00e5
:1033940020479800c0c2b300c2fd0700004f780068
:1033a4002e4090000004e0000200320000c4b3008c
:1033b4000100370000c8b3009e407800014070004f
:1033c400004f78009e407800c0c2b300e7fd0700bc
:1033d4000080fa00000006000200fa0040c2b300b8
:1033e400b0fd0700004f78001e80fb006100600004
:1033f400004078000004e000090032009e80fb00d9
:1034040000022000008060000000e00002003200a2
:1034140020002000030037001000200001003700c6
:103424000000eb000080fa00000006000e00fa0025
:1034340040079800510798006207980090c3b300b2
:1034440098fd07000024a0008040780090c3b300da
:10345400c6fd0700b00480004400de006140600047
:10346400604798009680a9008f41a9000030200091
:10347400d10007000080fb00100798000000eb005b
:10348400000f7800070037004c000700ce009000c2
:10349400804878004e0090000000e8004007980043
:1034a4001e0fe8001e0090009e007800808f5000e0
:1034b400f5ff390041000700404798003f0007002e
:1034c400504798005e0090000000e00003003200c6
:1034d4005e009000ce409000014878006e0090009d
:1034e4000000e000030032006e009000de40900017
:1034f400014878008f41a8006e4090006140600050
:103504000080fb00610060004400dd00b204800024
:10351400f1fe2f008100610001007000b0048800fa
:10352400defd070090c3b3005efd0700b1cfb3001a
:10353400014060008040780090c3b3008bfd070019
:103544001e0090000080fa00000006000400fa004b
:103554000000eb00000f780010c3b30051fd07001a
:10356400204798002e4090000080fb006800600017
:103574000000e000010032001e00a0002e40900078
:103584000080fb0061006000004078000004e0005f
:10359400010032001e10a0002e4090000080fb00ad
:1035a400700060000000e000010032001e20a00056
:1035b4001e0078000080fa00000006000200fa00f5
:1035c4000000000040188000620060000000e0007d
:1035d400fcff3a000c23ef000000000041188000bb
:1035e40000022000008060000000e000fbff3a00c1
:1035f4006018800000407800004f78001e4078007a
:103604000080fa00000006000400fa002047980039
:103614000000000040188000620060000000e0002c
:10362400fcff3a002e4090000080fb0060188800e8
:1036340000000000411880000002200000806000ab
:103644000000e000fbff3a006018800000407800b2
:10365400004f78000080fa00000006000400fa0021
:10366400204798002e4090000080fb00000040009e
:1036740000407800e1c7b300014f60000000000083
:1036840040188000620060000000e000fcff3a0087
:103694001e80fb00601888000000000041188000b4
:1036a40000022000008060000000e000fbff3a0000
:1036b4006018800000407800104798000000000067
:1036c40040188000620060000000e000fcff3a0047
:1036d4000c23ef00000000004118800000022000cd
:1036e400008060000000e000fbff3a0060188000ea
:1036f40000407800104798001e4090000080fa00b7
:10370400000006000400fa002047980031479800a2
:103714002e4090000080fb00000040000040780034
:10372400e047b2000004a000004f78000000000051
:1037340040188000620060000000e000fcff3a00d6
:103744001e80fb0060188800000000004118800003
:1037540000022000008060000000e000fbff3a004f
:1037640060188000004078001047980000000000b6
:1037740040188000620060000000e000fcff3a0096
:103784003e4090000080fb006018880000000000ac
:103794004118800000022000008060000000e0006a
:1037a400fbff3a0060188000004078001047980042
:1037b4000080fa00000006000600fa0020079800c6
:1037c4002e0090004300de00004078008040780026
:1037d4000174a000014f78002e0090008040780012
:1037e400500020000008dd00104798000000000091
:1037f40040188000620060000000e000fcff3a0016
:103804001e80fb0060188800000000004118800042
:1038140000022000008060000000e000fbff3a008e
:1038240060188000004078002047980000000000e5
:1038340040188000620060000000e000fcff3a00d5
:103844001e4090000080fb0060188800000000000b
:103854004118800000022000008060000000e000a9
:10386400fbff3a0060188000004078002047980071
:103874000000000040188000620060000000e000ca
:10388400fcff3a000c23ef00000000004118800008
:1038940000022000008060000000e000fbff3a000e
:1038a4006018800000407800204798002e40900067
:1038b4000080fa00000006000800fa0020079800c3
:1038c400614798002e0090004300de00004078001d
:1038d400804078000174a000014f78002e00900011
:1038e40080407800500020000008dd000044a00063
:1038f400104798000000000040188000620060003b
:103904000000e000fcff3a001e80fb006018880005
:1039140000000000411880000002200000806000c8
:103924000000e000fbff3a006018800000407800cf
:1039340020479800000000004018800062006000ea
:103944000000e000fcff3a001e4090000080fb00f5
:103954006018880000000000411880000002200068
:10396400008060000000e000fbff3a006018800067
:1039740000407800204798000000000040188000b4
:10398400620060000000e000fcff3a006e4090001e
:103994000080fb00601888000000000041188000cf
:1039a40000022000008060000000e000fbff3a00fd
:1039b4006018800000407800204798000080fa00da
:1039c400000006001e00fa00881f78002603070086
:1039d4002041290007f40700a2fd07003042290016
:1039e40004f40700803e20000f030700100c800041
:1039f4004300de006140600000e8b70060c3b3002c
:103a040028fc07006047980000c8bf000004e000dd
:103a14000800320040432900f6f307006e4090008e
:103a24000004a0008040780060c3b3004ffc07008e
:103a340012003700d0432900eef307006e409000d7
:103a44006040b3008040780060c3b30047fc0700c7
:103a5400800c2000e2020700ee409000b0cfb300db
:103a640000c060008040780060c3b3003ffc0700e2
:103a7400800c2000da0207008441a800b04a290023
:103a8400f500470007000900b05878008000b10035
:103a940080002000400798000000eb00000f780031
:103aa40000c8bf000004e0000800320060442900a0
:103ab400d0f30700a0002000db0207000040fe0056
:103ac40030452900cbf30700f5ff37000f007800dd
:103ad4000004780050462900c6f30700803821000e
:103ae400d10207004e0090000080e80050079800c3
:103af4005e009000800078008100e9006107980072
:103b04000000e8000000e8000000d1008000400050
:103b14000f007800818747000000e8000000d10012
:103b2400000040007007980040002200000f980039
:103b34000e0890004800de00804078007e0090006f
:103b4400014878000e089000804078007e009000c4
:103b5400114098007e0090000080e800f5004700c6
:103b64004e0190009af307007e0090000081e80067
:103b74007e009000104090008080fb007e0090004a
:103b8400104078000080fb00821f7800811f7800bd
:103b9400801f7800ce009000811f780040472900e4
:103ba400801f7800d2f30700ea875700a00f200097
:103bb4009d02070021c0b3000000eb00d2fb070008
:103bc4005e009000004078008040780010002000e3
:103bd400cdfb070020002000100f98000000eb0030
:103be400100798000b003700fe0090001e009000a4
:103bf40000804000904078001e0990001e00900054
:103c040000004100c0fb07001e0090000000e80017
:103c1400100798009e0090005e009000808f500076
:103c2400f1ff3900c0492900801f7800b0f3070074
:103c34008f87e9009e089000210798000f00370045
:103c44002e0090007efb0700405798004e509000d5
:103c54000004e000040032004e5090000080fb009d
:103c640062f3070002003700100220005ff3070030
:103c74002e0090000000e800200798005e009000ed
:103c84008080e8002e009000808f5000ecff31000f
:103c9400804a290057f30700a000200062020700b1
:103ca400b0c1b3007ffb07000004a000804078008f
:103cb400b0c1b300adfb07001e0fe8001e00780082
:103cc400c200de00b04721000008b8000101d100a5
:103cd400d0cc2c000010b8004308de006a00b90004
:103ce4000000780000005100004078000043b0005c
:103cf400105f98009e007800d0cc2c000008b8001b
:103d04004309de00d0cc2c000010b8004308de00cc
:103d14006a00b900000078000000510000407800fb
:103d24000043b000205f98001e017800d0cc2c0026
:103d34000010b8004308de006a00b90000007800f3
:103d440000005100004078000043b000305f98004c
:103d54008807780052ff37000000fa000223ef00c2
:103d64000423ef000823ef0070002000801888006f
:103d74001423ef001623ef001823ef001a23ef009b
:103d840010122800001888000080fa0000000600c5
:103d94000400fa00000f78001107980000000000ea
:103da40040188000620060000000e000fcff3a0060
:103db4001e007800104078000080fb006018880026
:103dc4000000000041188000000220000080600014
:103dd4000000e000fbff3a0060188000804078009b
:103de4001e009000014878000080fa0000000600e0
:103df4001800fa00100f9800210f9800320f980055
:103e04000000eb00000f78000000eb0010079800a2
:103e14000000eb00700798000000eb00000f980012
:103e240010002000600798001e0890000000e000c9
:103e340005003a000000eb005007980070004700ae
:103e44002007980004003700ee0090005107980006
:103e54009e089000210798003e0890000000e000b2
:103e640005003a000000eb00400798006e00470090
:103e74003007980005003700ee00900041079800d5
:103e8400be08900031079800000000004018800030
:103e9400620060000000e000fcff3a001d003700f3
:103ea40040188000620060000000e00009003a0051
:103eb4002e009000104078000080fb0060188800fd
:103ec400ae0090005e009000008040002007980043
:103ed4001e0fe800411880000002200000806000ee
:103ee4000000e0000b003a00601880008040780079
:103ef4003e00900001487800be0090004e00900003
:103f040000804000300798001e0090000000e80088
:103f1400100798002e0890009e007800808f5000b3
:103f2400dfff390010003700411880000002200034
:103f3400008060000000e0000b003a006018800080
:103f4400804078003e00900001487800be00900058
:103f54004e00900000804000300798001e00900042
:103f64000000e800100798009e0090002e089000c2
:103f7400808f5000ecff39001e0078000080fa00aa
:103f8400000006000400fa00204798000e80e800b4
:103f94008e0078007eff07001e4078000080fa0043
:103fa400000006000600fa00000f780011079800d0
:103fb400220798002e0190009e0090001e007800b9
:103fc4008bff07000080fa00000006000000fa00e2
:103fd4000118800000802000008060000000e000e4
:103fe4000200320020002000080037000118800081
:103ff40000402000008060000000e0000200320069
:1040040010002000010037000000eb000080fa00df
:10401400000006000000fa00401880000080fa004a
:044024000000060092
:020000040000fa
:10402800da09000002000000800000000208000019
:1040380010010000800000000008000002000000dd
:104048008200000001000000120900008800000042
:10405800820000000100000000380900390938001a
:10406800093809003809380009280900000000004b
:104078000000000000000000000000000000000038
:1040880000000000000000000002080001016000bc
:1040980009610900600960000960090060095000b1
:1040a80009000000000000000000000000000000ff
:1040b80000000000000000000000000000000200f6
:1040c800080202008809890009880900880988000f
:1040d80009880900780900000000000000000000bd
:1040e80000000000000000000000000000000000c8
:1040f8000000000012093a000962090000000000ef
:10410800000000000000000000000000bc090000e2
:104118001a00000082000000686a6c00747a4c0083
:104128000000010000020000040008000010000068
:10413800000020002b2d2300300000009a09000009
:104148002200000082000000303132003334350094
:1041580036373800394142004344450046003000b4
:104168003132330034353600373839006162630044
:104178006465660000000000dc0900000200000021
:1041880080000000de09000002000000820000003c
:1041980004000000d60900000400000080000000b0
:1041a800e00900000200000080000000000000009c
:020000040000fa
:1041b8000000fa005622ef0040002000d0128800cc
:1041c80000002800f0128800a09d20008040eb002d
:1041d800014878000080fa00000006000000fa009c
:1041e8002104800000102000008060000000e00032
:1041f80009003200b09d2000104078008040e8009f
:10420800b09d200001487800a09d200011c0b30097
:10421800014878008500a9000080fa000000060027
:104228000200fa00000f78009e007800d112880082
:10423800a09d20008040eb00014878000080fa0033
:10424800000006000000fa00d01280000080fa008a
:10425800000006000200fa00000f78009e007800b7
:10426800b1128800a09d20008040eb000148780032
:104278000080fa00000006000000fa00b01280007a
:104288000080fa00000006000000fa00a09d20004f
:104298008040eb00014878005fe2a8000080fa0047
:1042a800000006000000fa005fe2a9000080fa00a2
:1042b800000006000200fa00a09d2000104f7800c0
:1042c8001e4078000004e00003003200a09d20009a
:1042d8008040eb00014878001e4078000080fa001a
:1042e800000006000000fa00b09d20001040780091
:1042f8000080fb000080fa00000006000000fa00c1
:10430800b09d20008040eb00014878000080fa0052
:10431800000006000000fa008421ef0000c420001d
:10432800700c8800b0002000000c8800f0122e00ed
:10433800500c88005620ef005820ef005a20ef005c
:104348006e20ef007020ef007220ef008621ef0052
:104358009021ef0070002000400c8800c0002c0065
:10436800900c880001088000f00b2000008160009c
:1043780060042000710520000310200080497800a7
:104388008149780082497800611c8000f00f2c0078
:104398008080600000d0200001007000601c880050
:1043a800e11e8000f00f2c000080600000b0a0002b
:1043b800e01e8800811d800000fc2f000080600046
:1043c8005000b300801d8800f11e8000f00f2c0003
:1043d800808060000070200001007000f01e8800de
:1043e800a11d800000fc2f00008060000030a000ac
:1043f800a01d8800e11e800000fc2f0000806000e6
:104408003000b300e01e880000088000000178003a
:104418000260a00060042000710520000310200045
:104428008049780081497800824978000080fa0044
:10443800000006000200fa000000eb00000f780000
:104448000b0037001e0078000040780094f9070040
:104458000080fb00801f78009e1f7800a051290073
:10446800801f7800a1f10700e68757001e0fe800bb
:10447800f00320009e007800808f5000f1ff360086
:1044880000202000000f78000a0037001e00780086
:104498006af907000080fb00801f78009e1f7800e3
:1044a800a0512900801f780090f10700e687570087
:1044b8001e0fe800c02420009e007800808f500066
:1044c800f2ff36000080fa00000006000400fa003f
:1044d800100798001e0090000000e0000d00320058
:1044e8000000eb00000f7800050037001e00900068
:1044f8001e004000104078001e0fe800270007004b
:104508001e0090001e004000104078000004e000eb
:10451800f6ff3a000080fa00000006000000fa00ea
:104528008000200000288800004021001028880012
:1045380070062000402888000a25ef000c25ef00af
:104548000e25ef001025ef001225ef001425ef00cf
:1045580001e5a8000345a8000080fa000000060055
:104568000000fa00000000001028800061006000d0
:104578000000e000fcff32001028800062006000ac
:104588000000e000010032000225a9003028800068
:10459800004078000080fa00000006000200fa00df
:1045a800004f780000000000112880000020200043
:1045b800008060000000e000fbff3a001e80fb0066
:1045c800202888000080fa00000006000000fa0099
:1045d800102880000080fa00000006000200fa009f
:1045e800000f78001e0078004200dd00d01288001d
:1045f8005622ef008500a9005fe2a8000000000035
:104608002104800000102000008060000000e0000d
:10461800fbff32005fe2a9008500a9000080fa00d4
:10462800000006000200fa00000f780002003700c0
:10463800703e2000e9ff07001e00780000f0a70088
:104648000000ea000000ea004f00de0000407800a9
:104658001e0fe9000004e000f5ff3a000080fa00b0
:10466800000006000000fa002aff070017000700f4
:1046780006000700b7fd0700a8ff0700ccfe0700eb
:104688001a0007000080fa00000006000000fa0087
:104698000001eb00600420007105200003102000d9
:1046a8008049780081497800824978000010230009
:1046b800100888000621ef006821ef006a21ef004a
:1046c8006c21ef000080fa00000006000000fa00ec
:1046d8007105800080ff2f00008060000010a0009e
:1046e800700588000080fa00000006000000fa004b
:1046f8008680a9008220a8009680a8000080fa0081
:0447080000000600a7
:020000040000fa
:020000040001f9
:0457f000ffff0000b7
:020000040000fa
:020000040001f9
:0457f400fffe0000b4
:020000040000fa
:020000040001f9
:0457f8009fb000005e
:020000040000fa
:020000040001f9
:0457fc003f3f00002b
:00000001FF
